{
  "_format": "hh-sol-artifact-1",
  "contractName": "ConfidentialTreasuryManager",
  "sourceName": "contracts/confidential/ConfidentialTreasuryManager.sol",
  "abi": [
    {
      "inputs": [],
      "stateMutability": "nonpayable",
      "type": "constructor"
    },
    {
      "inputs": [],
      "name": "AccessControlBadConfirmation",
      "type": "error"
    },
    {
      "inputs": [
        {
          "internalType": "address",
          "name": "account",
          "type": "address"
        },
        {
          "internalType": "bytes32",
          "name": "neededRole",
          "type": "bytes32"
        }
      ],
      "name": "AccessControlUnauthorizedAccount",
      "type": "error"
    },
    {
      "inputs": [],
      "name": "InvalidInitialization",
      "type": "error"
    },
    {
      "inputs": [],
      "name": "NotInitializing",
      "type": "error"
    },
    {
      "inputs": [],
      "name": "ReentrancyGuardReentrantCall",
      "type": "error"
    },
    {
      "anonymous": false,
      "inputs": [
        {
          "indexed": false,
          "internalType": "uint64",
          "name": "version",
          "type": "uint64"
        }
      ],
      "name": "Initialized",
      "type": "event"
    },
    {
      "anonymous": false,
      "inputs": [
        {
          "indexed": true,
          "internalType": "bytes32",
          "name": "instructionHash",
          "type": "bytes32"
        },
        {
          "indexed": false,
          "internalType": "uint256",
          "name": "timestamp",
          "type": "uint256"
        }
      ],
      "name": "RebalanceApproved",
      "type": "event"
    },
    {
      "anonymous": false,
      "inputs": [
        {
          "indexed": true,
          "internalType": "uint256",
          "name": "timestamp",
          "type": "uint256"
        },
        {
          "indexed": true,
          "internalType": "address",
          "name": "executor",
          "type": "address"
        },
        {
          "indexed": false,
          "internalType": "uint256",
          "name": "deviation",
          "type": "uint256"
        },
        {
          "indexed": false,
          "internalType": "bytes32",
          "name": "instructionHash",
          "type": "bytes32"
        }
      ],
      "name": "RebalanceExecuted",
      "type": "event"
    },
    {
      "anonymous": false,
      "inputs": [
        {
          "indexed": true,
          "internalType": "bytes32",
          "name": "role",
          "type": "bytes32"
        },
        {
          "indexed": true,
          "internalType": "bytes32",
          "name": "previousAdminRole",
          "type": "bytes32"
        },
        {
          "indexed": true,
          "internalType": "bytes32",
          "name": "newAdminRole",
          "type": "bytes32"
        }
      ],
      "name": "RoleAdminChanged",
      "type": "event"
    },
    {
      "anonymous": false,
      "inputs": [
        {
          "indexed": true,
          "internalType": "bytes32",
          "name": "role",
          "type": "bytes32"
        },
        {
          "indexed": true,
          "internalType": "address",
          "name": "account",
          "type": "address"
        },
        {
          "indexed": true,
          "internalType": "address",
          "name": "sender",
          "type": "address"
        }
      ],
      "name": "RoleGranted",
      "type": "event"
    },
    {
      "anonymous": false,
      "inputs": [
        {
          "indexed": true,
          "internalType": "bytes32",
          "name": "role",
          "type": "bytes32"
        },
        {
          "indexed": true,
          "internalType": "address",
          "name": "account",
          "type": "address"
        },
        {
          "indexed": true,
          "internalType": "address",
          "name": "sender",
          "type": "address"
        }
      ],
      "name": "RoleRevoked",
      "type": "event"
    },
    {
      "anonymous": false,
      "inputs": [
        {
          "indexed": false,
          "internalType": "uint256",
          "name": "timestamp",
          "type": "uint256"
        }
      ],
      "name": "StrategyActivated",
      "type": "event"
    },
    {
      "anonymous": false,
      "inputs": [
        {
          "indexed": false,
          "internalType": "uint256",
          "name": "timestamp",
          "type": "uint256"
        }
      ],
      "name": "StrategyDeactivated",
      "type": "event"
    },
    {
      "anonymous": false,
      "inputs": [
        {
          "indexed": false,
          "internalType": "uint256",
          "name": "timestamp",
          "type": "uint256"
        },
        {
          "indexed": true,
          "internalType": "address",
          "name": "updatedBy",
          "type": "address"
        }
      ],
      "name": "StrategyUpdated",
      "type": "event"
    },
    {
      "inputs": [],
      "name": "DEFAULT_ADMIN_ROLE",
      "outputs": [
        {
          "internalType": "bytes32",
          "name": "",
          "type": "bytes32"
        }
      ],
      "stateMutability": "view",
      "type": "function"
    },
    {
      "inputs": [],
      "name": "GOVERNANCE_ROLE",
      "outputs": [
        {
          "internalType": "bytes32",
          "name": "",
          "type": "bytes32"
        }
      ],
      "stateMutability": "view",
      "type": "function"
    },
    {
      "inputs": [],
      "name": "MAX_HISTORY",
      "outputs": [
        {
          "internalType": "uint256",
          "name": "",
          "type": "uint256"
        }
      ],
      "stateMutability": "view",
      "type": "function"
    },
    {
      "inputs": [],
      "name": "MIN_REBALANCE_INTERVAL",
      "outputs": [
        {
          "internalType": "uint256",
          "name": "",
          "type": "uint256"
        }
      ],
      "stateMutability": "view",
      "type": "function"
    },
    {
      "inputs": [],
      "name": "STRATEGY_MANAGER_ROLE",
      "outputs": [
        {
          "internalType": "bytes32",
          "name": "",
          "type": "bytes32"
        }
      ],
      "stateMutability": "view",
      "type": "function"
    },
    {
      "inputs": [],
      "name": "TREASURY_OPERATOR_ROLE",
      "outputs": [
        {
          "internalType": "bytes32",
          "name": "",
          "type": "bytes32"
        }
      ],
      "stateMutability": "view",
      "type": "function"
    },
    {
      "inputs": [],
      "name": "activateStrategy",
      "outputs": [],
      "stateMutability": "nonpayable",
      "type": "function"
    },
    {
      "inputs": [
        {
          "internalType": "bytes32",
          "name": "instructionHash",
          "type": "bytes32"
        }
      ],
      "name": "approveRebalanceInstructions",
      "outputs": [],
      "stateMutability": "nonpayable",
      "type": "function"
    },
    {
      "inputs": [
        {
          "internalType": "bytes32",
          "name": "",
          "type": "bytes32"
        }
      ],
      "name": "approvedInstructions",
      "outputs": [
        {
          "internalType": "bool",
          "name": "",
          "type": "bool"
        }
      ],
      "stateMutability": "view",
      "type": "function"
    },
    {
      "inputs": [],
      "name": "deactivateStrategy",
      "outputs": [],
      "stateMutability": "nonpayable",
      "type": "function"
    },
    {
      "inputs": [
        {
          "internalType": "uint256[]",
          "name": "currentBalances",
          "type": "uint256[]"
        },
        {
          "internalType": "uint256[]",
          "name": "currentPrices",
          "type": "uint256[]"
        }
      ],
      "name": "executeRebalance",
      "outputs": [
        {
          "internalType": "bytes",
          "name": "encryptedInstructions",
          "type": "bytes"
        }
      ],
      "stateMutability": "nonpayable",
      "type": "function"
    },
    {
      "inputs": [
        {
          "internalType": "uint256",
          "name": "index",
          "type": "uint256"
        }
      ],
      "name": "getRebalanceExecution",
      "outputs": [
        {
          "components": [
            {
              "internalType": "uint256",
              "name": "timestamp",
              "type": "uint256"
            },
            {
              "internalType": "address",
              "name": "executor",
              "type": "address"
            },
            {
              "internalType": "uint256",
              "name": "deviation",
              "type": "uint256"
            },
            {
              "internalType": "bytes32",
              "name": "instructionHash",
              "type": "bytes32"
            },
            {
              "internalType": "bool",
              "name": "approved",
              "type": "bool"
            }
          ],
          "internalType": "struct ConfidentialTreasuryManager.RebalanceExecution",
          "name": "",
          "type": "tuple"
        }
      ],
      "stateMutability": "view",
      "type": "function"
    },
    {
      "inputs": [],
      "name": "getRebalanceHistoryCount",
      "outputs": [
        {
          "internalType": "uint256",
          "name": "",
          "type": "uint256"
        }
      ],
      "stateMutability": "view",
      "type": "function"
    },
    {
      "inputs": [
        {
          "internalType": "uint256",
          "name": "count",
          "type": "uint256"
        }
      ],
      "name": "getRecentRebalances",
      "outputs": [
        {
          "components": [
            {
              "internalType": "uint256",
              "name": "timestamp",
              "type": "uint256"
            },
            {
              "internalType": "address",
              "name": "executor",
              "type": "address"
            },
            {
              "internalType": "uint256",
              "name": "deviation",
              "type": "uint256"
            },
            {
              "internalType": "bytes32",
              "name": "instructionHash",
              "type": "bytes32"
            },
            {
              "internalType": "bool",
              "name": "approved",
              "type": "bool"
            }
          ],
          "internalType": "struct ConfidentialTreasuryManager.RebalanceExecution[]",
          "name": "executions",
          "type": "tuple[]"
        }
      ],
      "stateMutability": "view",
      "type": "function"
    },
    {
      "inputs": [
        {
          "internalType": "bytes32",
          "name": "role",
          "type": "bytes32"
        }
      ],
      "name": "getRoleAdmin",
      "outputs": [
        {
          "internalType": "bytes32",
          "name": "",
          "type": "bytes32"
        }
      ],
      "stateMutability": "view",
      "type": "function"
    },
    {
      "inputs": [],
      "name": "getStrategyMetadata",
      "outputs": [
        {
          "internalType": "uint256",
          "name": "lastExecuted",
          "type": "uint256"
        },
        {
          "internalType": "uint256",
          "name": "lastUpdated",
          "type": "uint256"
        },
        {
          "internalType": "address",
          "name": "updatedBy",
          "type": "address"
        },
        {
          "internalType": "bool",
          "name": "active",
          "type": "bool"
        }
      ],
      "stateMutability": "view",
      "type": "function"
    },
    {
      "inputs": [
        {
          "internalType": "bytes32",
          "name": "role",
          "type": "bytes32"
        },
        {
          "internalType": "address",
          "name": "account",
          "type": "address"
        }
      ],
      "name": "grantRole",
      "outputs": [],
      "stateMutability": "nonpayable",
      "type": "function"
    },
    {
      "inputs": [
        {
          "internalType": "bytes32",
          "name": "role",
          "type": "bytes32"
        },
        {
          "internalType": "address",
          "name": "account",
          "type": "address"
        }
      ],
      "name": "hasRole",
      "outputs": [
        {
          "internalType": "bool",
          "name": "",
          "type": "bool"
        }
      ],
      "stateMutability": "view",
      "type": "function"
    },
    {
      "inputs": [],
      "name": "initialize",
      "outputs": [],
      "stateMutability": "nonpayable",
      "type": "function"
    },
    {
      "inputs": [
        {
          "internalType": "bytes32",
          "name": "instructionHash",
          "type": "bytes32"
        }
      ],
      "name": "isApproved",
      "outputs": [
        {
          "internalType": "bool",
          "name": "",
          "type": "bool"
        }
      ],
      "stateMutability": "view",
      "type": "function"
    },
    {
      "inputs": [
        {
          "internalType": "uint256",
          "name": "",
          "type": "uint256"
        }
      ],
      "name": "rebalanceHistory",
      "outputs": [
        {
          "internalType": "uint256",
          "name": "timestamp",
          "type": "uint256"
        },
        {
          "internalType": "address",
          "name": "executor",
          "type": "address"
        },
        {
          "internalType": "uint256",
          "name": "deviation",
          "type": "uint256"
        },
        {
          "internalType": "bytes32",
          "name": "instructionHash",
          "type": "bytes32"
        },
        {
          "internalType": "bool",
          "name": "approved",
          "type": "bool"
        }
      ],
      "stateMutability": "view",
      "type": "function"
    },
    {
      "inputs": [
        {
          "internalType": "bytes32",
          "name": "role",
          "type": "bytes32"
        },
        {
          "internalType": "address",
          "name": "callerConfirmation",
          "type": "address"
        }
      ],
      "name": "renounceRole",
      "outputs": [],
      "stateMutability": "nonpayable",
      "type": "function"
    },
    {
      "inputs": [
        {
          "internalType": "bytes32",
          "name": "role",
          "type": "bytes32"
        },
        {
          "internalType": "address",
          "name": "account",
          "type": "address"
        }
      ],
      "name": "revokeRole",
      "outputs": [],
      "stateMutability": "nonpayable",
      "type": "function"
    },
    {
      "inputs": [
        {
          "internalType": "bytes4",
          "name": "interfaceId",
          "type": "bytes4"
        }
      ],
      "name": "supportsInterface",
      "outputs": [
        {
          "internalType": "bool",
          "name": "",
          "type": "bool"
        }
      ],
      "stateMutability": "view",
      "type": "function"
    },
    {
      "inputs": [
        {
          "internalType": "bytes",
          "name": "encryptedAllocation",
          "type": "bytes"
        },
        {
          "internalType": "bytes",
          "name": "encryptedRebalanceThreshold",
          "type": "bytes"
        },
        {
          "internalType": "bytes",
          "name": "encryptedSlippageTolerance",
          "type": "bytes"
        }
      ],
      "name": "updateStrategy",
      "outputs": [],
      "stateMutability": "nonpayable",
      "type": "function"
    }
  ],
  "bytecode": "0x60806040523480156200001157600080fd5b506200001c62000022565b620000d6565b7ff0c57e16840df040f15088dc2f81fe391c3923bec73e23a9662efc9c229c6a00805468010000000000000000900460ff1615620000735760405163f92ee8a960e01b815260040160405180910390fd5b80546001600160401b0390811614620000d35780546001600160401b0319166001600160401b0390811782556040519081527fc7f505b2f371ae2175ee4913f4499e1f2633a7b5936321eed1cdaeb6115181d29060200160405180910390a15b50565b6125d480620000e66000396000f3fe608060405234801561001057600080fd5b50600436106101735760003560e01c80635cc95ee8116100de57806391d1485411610097578063c1a5e0be11610071578063c1a5e0be1461039d578063d547741f146103bd578063dff0553c146103d0578063f36c8f5c146103d857600080fd5b806391d148541461036d578063a217fddf14610380578063abcbe0b21461038857600080fd5b80635cc95ee8146102d35780636741c1b9146102fa57806377b92e1e146103025780637ceb976a146103225780638129fc1c1461034557806381bf923f1461034d57600080fd5b8063292c6c0211610130578063292c6c02146102295780632f2ff15d1461023c578063350e42211461024f57806336568abe1461025857806348aefc321461026b5780634c39ad481461028e57600080fd5b806301ffc9a71461017857806303acedf3146101a057806304005d9c146101e257806313545a02146101f757806321401dd11461020e578063248a9ca314610216575b600080fd5b61018b610186366004611de0565b6103ff565b60405190151581526020015b60405180910390f35b6003546004546005546040805193845260208401929092526001600160a01b03811691830191909152600160a01b900460ff1615156060820152608001610197565b6101f56101f0366004611e5a565b610436565b005b6102006101f481565b604051908152602001610197565b6101f5610598565b610200610224366004611ef4565b610640565b6101f5610237366004611ef4565b610662565b6101f561024a366004611f0d565b6107b0565b610200610e1081565b6101f5610266366004611f0d565b6107d2565b61018b610279366004611ef4565b60009081526007602052604090205460ff1690565b6102a161029c366004611ef4565b61080a565b604080519586526001600160a01b0390941660208601529284019190915260608301521515608082015260a001610197565b6102007fef11b8e82d6cedc106fa9b56a5f50aa91fb8ce054d1df4894e4f24ac144da2c481565b6101f5610858565b610315610310366004611ef4565b610900565b6040516101979190611f81565b61018b610330366004611ef4565b60076020526000908152604090205460ff1681565b6101f5610a48565b61036061035b366004612014565b610be1565b60405161019791906120d0565b61018b61037b366004611f0d565b6111c1565b610200600081565b61020060008051602061255f83398151915281565b6103b06103ab366004611ef4565b6111f9565b60405161019791906120e3565b6101f56103cb366004611f0d565b6112d7565b600654610200565b6102007f71840dc4906352362b0cdaf79870196c8e42acafade72d5d5a6d59291253ceb181565b60006001600160e01b03198216637965db0b60e01b148061043057506301ffc9a760e01b6001600160e01b03198316145b92915050565b60008051602061255f83398151915261044e816112f3565b856104955760405162461bcd60e51b815260206004820152601260248201527124b73b30b634b21030b63637b1b0ba34b7b760711b60448201526064015b60405180910390fd5b836104d65760405162461bcd60e51b8152602060048201526011602482015270125b9d985b1a59081d1a1c995cda1bdb19607a1b604482015260640161048c565b816105165760405162461bcd60e51b815260206004820152601060248201526f496e76616c696420736c69707061676560801b604482015260640161048c565b6000610523878983612191565b506001610531858783612191565b50600261053f838583612191565b50426004819055600580546001600160a01b03191633908117909155604051918252907f325e765252c39ce9537554142972efc7138b7b18832eaf30f3d6f2acb23bc09e9060200160405180910390a250505050505050565b60008051602061255f8339815191526105b0816112f3565b600554600160a01b900460ff166105fc5760405162461bcd60e51b815260206004820152601060248201526f416c726561647920696e61637469766560801b604482015260640161048c565b6005805460ff60a01b191690556040514281527ff0158db7bc4baf411e9502a7e72c9cc72407d1a4c1f5c3cd6b5205d3ac4188d7906020015b60405180910390a150565b600090815260008051602061257f833981519152602052604090206001015490565b7f71840dc4906352362b0cdaf79870196c8e42acafade72d5d5a6d59291253ceb161068c816112f3565b60008281526007602052604090205460ff16156106de5760405162461bcd60e51b815260206004820152601060248201526f105b1c9958591e48185c1c1c9bdd995960821b604482015260640161048c565b6000828152600760205260408120805460ff191660011790555b60065481101561077157826006828154811061071657610716612251565b906000526020600020906005020160030154036107695760016006828154811061074257610742612251565b60009182526020909120600590910201600401805460ff1916911515919091179055610771565b6001016106f8565b50817f8cba85734c06cbccfd60c5f133cab65d171f6be78ab76781cc8af44e9663e25c426040516107a491815260200190565b60405180910390a25050565b6107b982610640565b6107c2816112f3565b6107cc8383611300565b50505050565b6001600160a01b03811633146107fb5760405163334bd91960e11b815260040160405180910390fd5b61080582826113a5565b505050565b6006818154811061081a57600080fd5b6000918252602090912060059091020180546001820154600283015460038401546004909401549294506001600160a01b0390911692909160ff1685565b60008051602061255f833981519152610870816112f3565b600554600160a01b900460ff16156108bb5760405162461bcd60e51b815260206004820152600e60248201526d416c72656164792061637469766560901b604482015260640161048c565b6005805460ff60a01b1916600160a01b1790556040517f810feeaac6a69718f00fcfa74f3606d764fb6d172b872f62dc9caa01b9f0ef68906106359042815260200190565b60065460609060008184116109155783610917565b815b90508067ffffffffffffffff811115610932576109326120f1565b60405190808252806020026020018201604052801561098b57816020015b6040805160a0810182526000808252602080830182905292820181905260608201819052608082015282526000199092019101816109505790505b50925060005b81811015610a40576006816109a6848661227d565b6109b09190612290565b815481106109c0576109c0612251565b60009182526020918290206040805160a08101825260059093029091018054835260018101546001600160a01b0316938301939093526002830154908201526003820154606082015260049091015460ff16151560808201528451859083908110610a2d57610a2d612251565b6020908102919091010152600101610991565b505050919050565b7ff0c57e16840df040f15088dc2f81fe391c3923bec73e23a9662efc9c229c6a008054600160401b810460ff16159067ffffffffffffffff16600081158015610a8e5750825b905060008267ffffffffffffffff166001148015610aab5750303b155b905081158015610ab9575080155b15610ad75760405163f92ee8a960e01b815260040160405180910390fd5b845467ffffffffffffffff191660011785558315610b0157845460ff60401b1916600160401b1785555b610b09611421565b610b1161142b565b610b1c600033611300565b50610b3560008051602061255f83398151915233611300565b50610b607fef11b8e82d6cedc106fa9b56a5f50aa91fb8ce054d1df4894e4f24ac144da2c433611300565b50610b8b7f71840dc4906352362b0cdaf79870196c8e42acafade72d5d5a6d59291253ceb133611300565b50610b9461143b565b8315610bda57845460ff60401b19168555604051600181527fc7f505b2f371ae2175ee4913f4499e1f2633a7b5936321eed1cdaeb6115181d29060200160405180910390a15b5050505050565b60607fef11b8e82d6cedc106fa9b56a5f50aa91fb8ce054d1df4894e4f24ac144da2c4610c0d816112f3565b610c1561165c565b600554600160a01b900460ff16610c645760405162461bcd60e51b81526020600482015260136024820152725374726174656779206e6f742061637469766560681b604482015260640161048c565b848314610cab5760405162461bcd60e51b8152602060048201526015602482015274082e4e4c2f240d8cadccee8d040dad2e6dac2e8c6d605b1b604482015260640161048c565b84610ce75760405162461bcd60e51b815260206004820152600c60248201526b456d7074792061727261797360a01b604482015260640161048c565b600354610cf790610e1090612290565b421015610d3b5760405162461bcd60e51b81526020600482015260126024820152712932b130b630b731b2903a37b79039b7b7b760711b604482015260640161048c565b60008054610de590829081908190610d5290612107565b80601f0160208091040260200160405190810160405280929190818152602001828054610d7e90612107565b8015610dcb5780601f10610da057610100808354040283529160200191610dcb565b820191906000526020600020905b815481529060010190602001808311610dae57829003601f168201915b5050505050604051806020016040528060008152506116a6565b806020019051810190610df891906122a3565b90506000610e176000801b6000801b60006001018054610d5290612107565b806020019051810190610e2a9190612361565b82519091508714610e735760405162461bcd60e51b8152602060048201526013602482015272082d8d8dec6c2e8d2dedc40dad2e6dac2e8c6d606b1b604482015260640161048c565b6000805b88811015610ee257670de0b6b3a7640000888883818110610e9a57610e9a612251565b905060200201358b8b84818110610eb357610eb3612251565b90506020020135610ec4919061237a565b610ece9190612391565b610ed89083612290565b9150600101610e77565b5060008111610f265760405162461bcd60e51b815260206004820152601060248201526f5a65726f20746f74616c2076616c756560801b604482015260640161048c565b6000805b89811015611022576000610f4684670de0b6b3a764000061237a565b8a8a84818110610f5857610f58612251565b905060200201358d8d85818110610f7157610f71612251565b90506020020135610f82919061237a565b610f8d90606461237a565b610f979190612391565b90506000868381518110610fad57610fad612251565b60200260200101518211610fe55781878481518110610fce57610fce612251565b6020026020010151610fe0919061227d565b61100a565b868381518110610ff757610ff7612251565b60200260200101518261100a919061227d565b905083811115611018578093505b5050600101610f2a565b508281101561106a5760405162461bcd60e51b8152602060048201526014602482015273149958985b185b98d9481b9bdd081b995959195960621b604482015260640161048c565b6000806110ef8c8c80806020026020016040519081016040528093929190818152602001838360200280828437600081840152601f19601f820116905080830192505050505050508b8b808060200260200160405190810160405280939291908181526020018383602002808284376000920191909152508b925089915061177b9050565b91509150600082826040516020016111089291906123ef565b60408051601f198184030181526020830190915260008083529092506111319181908490611a09565b426003558051602082012090995061114a338683611ad4565b6040805186815260208101839052339142917f11f9479242a2cd855a245ff47a76c94c21c5219023f01e0d8170bdd13f284c7d910160405180910390a350505050505050506111b860017f9b779b17422d0df92223018b32b4d1fa46e071723d6817e2486d003becc55f0055565b50949350505050565b600091825260008051602061257f833981519152602090815260408084206001600160a01b0393909316845291905290205460ff1690565b6040805160a08101825260008082526020820181905291810182905260608101829052608081019190915260065482106112655760405162461bcd60e51b815260206004820152600d60248201526c092dcecc2d8d2c840d2dcc8caf609b1b604482015260640161048c565b6006828154811061127857611278612251565b60009182526020918290206040805160a08101825260059093029091018054835260018101546001600160a01b0316938301939093526002830154908201526003820154606082015260049091015460ff161515608082015292915050565b6112e082610640565b6112e9816112f3565b6107cc83836113a5565b6112fd8133611d52565b50565b600060008051602061257f83398151915261131b84846111c1565b61139b576000848152602082815260408083206001600160a01b03871684529091529020805460ff191660011790556113513390565b6001600160a01b0316836001600160a01b0316857f2f8788117e7eff1d82e926ec794901d17c78024a50270940304540a733656f0d60405160405180910390a46001915050610430565b6000915050610430565b600060008051602061257f8339815191526113c084846111c1565b1561139b576000848152602082815260408083206001600160a01b0387168085529252808320805460ff1916905551339287917ff6391f5c32d9c69d2a47ea670b442974b53935d1edc7fd64eb21e047a839171b9190a46001915050610430565b611429611d8f565b565b611433611d8f565b611429611dd8565b60408051600480825260a082019092526000916020820160808036833701905050905060288160008151811061147357611473612251565b602002602001018181525050601e8160018151811061149457611494612251565b6020026020010181815250506014816002815181106114b5576114b5612251565b602002602001018181525050600a816003815181106114d6576114d6612251565b6020026020010181815250506000816040516020016114f5919061241d565b60408051601f198184030181528282526005602084015292506000910160408051601f198184030181528282526001602084015292506000910160408051601f198184030181526101008301909152600060e083018181529193508291611560919081908890611a09565b81526020016115866000801b6000801b8660405180602001604052806000815250611a09565b81526020016115ac6000801b6000801b8560405180602001604052806000815250611a09565b81526000602082018190524260408301523360608301526001608090920191909152815181906115dc9082612430565b50602082015160018201906115f19082612430565b50604082015160028201906116069082612430565b50606082015160038201556080820151600482015560a08201516005909101805460c0909301511515600160a01b026001600160a81b03199093166001600160a01b039092169190911791909117905550505050565b7f9b779b17422d0df92223018b32b4d1fa46e071723d6817e2486d003becc55f008054600119016116a057604051633ee5aeb560e01b815260040160405180910390fd5b60029055565b60606000806004600160981b016001600160a01b0316878787876040516020016116d394939291906124f0565b60408051601f19818403018152908290526116ed9161252c565b600060405180830381855afa9150503d8060008114611728576040519150601f19603f3d011682016040523d82523d6000602084013e61172d565b606091505b5091509150816117715760405162461bcd60e51b815260206004820152600f60248201526e191958dc9e5c1d0e8819985a5b1959608a1b604482015260640161048c565b9695505050505050565b835160609081908067ffffffffffffffff81111561179b5761179b6120f1565b6040519080825280602002602001820160405280156117c4578160200160208202803683370190505b5092508067ffffffffffffffff8111156117e0576117e06120f1565b604051908082528060200260200182016040528015611809578160200160208202803683370190505b50915060005b818110156119fe576000606487838151811061182d5761182d612251565b602002602001015187611840919061237a565b61184a9190612391565b90506000670de0b6b3a764000089848151811061186957611869612251565b60200260200101518b858151811061188357611883612251565b6020026020010151611895919061237a565b61189f9190612391565b9050818110156119335760006118b5828461227d565b90508984815181106118c9576118c9612251565b602002602001015181670de0b6b3a76400006118e5919061237a565b6118ef9190612391565b87858151811061190157611901612251565b602002602001018181525050600086858151811061192157611921612251565b602002602001018181525050506119f4565b818111156119b3576000611947838361227d565b905089848151811061195b5761195b612251565b602002602001015181670de0b6b3a7640000611977919061237a565b6119819190612391565b86858151811061199357611993612251565b602002602001018181525050600087858151811061192157611921612251565b60008684815181106119c7576119c7612251565b60200260200101818152505060008584815181106119e7576119e7612251565b6020026020010181815250505b505060010161180f565b505094509492505050565b60606000806003600160981b016001600160a01b031687878787604051602001611a3694939291906124f0565b60408051601f1981840301815290829052611a509161252c565b600060405180830381855afa9150503d8060008114611a8b576040519150601f19603f3d011682016040523d82523d6000602084013e611a90565b606091505b5091509150816117715760405162461bcd60e51b815260206004820152600f60248201526e195b98dc9e5c1d0e8819985a5b1959608a1b604482015260640161048c565b6006546101f411611c045760005b600654611af19060019061227d565b811015611bab576006611b05826001612290565b81548110611b1557611b15612251565b906000526020600020906005020160068281548110611b3657611b36612251565b60009182526020909120825460059092020190815560018083015481830180546001600160a01b0319166001600160a01b03909216919091179055600280840154908301556003808401549083015560049283015492909101805460ff909316151560ff199093169290921790915501611ae2565b506006805480611bbd57611bbd612548565b6000828152602081206005600019909301928302018181556001810180546001600160a01b0319169055600281018290556003810191909155600401805460ff1916905590555b6040805160a0810182524281526001600160a01b03948516602082019081529181019384526060810192835260006080820181815260068054600181018255925291517ff652222313e28459528d920b65115c16c04f3efc82aaedc97be59f3f377c0d3f60059092029182015591517ff652222313e28459528d920b65115c16c04f3efc82aaedc97be59f3f377c0d40830180546001600160a01b031916919096161790945591517ff652222313e28459528d920b65115c16c04f3efc82aaedc97be59f3f377c0d41830155517ff652222313e28459528d920b65115c16c04f3efc82aaedc97be59f3f377c0d4282015590517ff652222313e28459528d920b65115c16c04f3efc82aaedc97be59f3f377c0d43909101805460ff1916911515919091179055565b60017f9b779b17422d0df92223018b32b4d1fa46e071723d6817e2486d003becc55f0055565b611d5c82826111c1565b611d8b5760405163e2517d3f60e01b81526001600160a01b03821660048201526024810183905260440161048c565b5050565b7ff0c57e16840df040f15088dc2f81fe391c3923bec73e23a9662efc9c229c6a0054600160401b900460ff1661142957604051631afcd79f60e31b815260040160405180910390fd5b611d2c611d8f565b600060208284031215611df257600080fd5b81356001600160e01b031981168114611e0a57600080fd5b9392505050565b60008083601f840112611e2357600080fd5b50813567ffffffffffffffff811115611e3b57600080fd5b602083019150836020828501011115611e5357600080fd5b9250929050565b60008060008060008060608789031215611e7357600080fd5b863567ffffffffffffffff80821115611e8b57600080fd5b611e978a838b01611e11565b90985096506020890135915080821115611eb057600080fd5b611ebc8a838b01611e11565b90965094506040890135915080821115611ed557600080fd5b50611ee289828a01611e11565b979a9699509497509295939492505050565b600060208284031215611f0657600080fd5b5035919050565b60008060408385031215611f2057600080fd5b8235915060208301356001600160a01b0381168114611f3e57600080fd5b809150509250929050565b805182526020808201516001600160a01b03169083015260408082015190830152606080820151908301526080908101511515910152565b6020808252825182820181905260009190848201906040850190845b81811015611fc357611fb0838551611f49565b9284019260a09290920191600101611f9d565b50909695505050505050565b60008083601f840112611fe157600080fd5b50813567ffffffffffffffff811115611ff957600080fd5b6020830191508360208260051b8501011115611e5357600080fd5b6000806000806040858703121561202a57600080fd5b843567ffffffffffffffff8082111561204257600080fd5b61204e88838901611fcf565b9096509450602087013591508082111561206757600080fd5b5061207487828801611fcf565b95989497509550505050565b60005b8381101561209b578181015183820152602001612083565b50506000910152565b600081518084526120bc816020860160208601612080565b601f01601f19169290920160200192915050565b602081526000611e0a60208301846120a4565b60a081016104308284611f49565b634e487b7160e01b600052604160045260246000fd5b600181811c9082168061211b57607f821691505b60208210810361213b57634e487b7160e01b600052602260045260246000fd5b50919050565b601f821115610805576000816000526020600020601f850160051c8101602086101561216a5750805b601f850160051c820191505b8181101561218957828155600101612176565b505050505050565b67ffffffffffffffff8311156121a9576121a96120f1565b6121bd836121b78354612107565b83612141565b6000601f8411600181146121f157600085156121d95750838201355b600019600387901b1c1916600186901b178355610bda565b600083815260209020601f19861690835b828110156122225786850135825560209485019460019092019101612202565b508682101561223f5760001960f88860031b161c19848701351681555b505060018560011b0183555050505050565b634e487b7160e01b600052603260045260246000fd5b634e487b7160e01b600052601160045260246000fd5b8181038181111561043057610430612267565b8082018082111561043057610430612267565b600060208083850312156122b657600080fd5b825167ffffffffffffffff808211156122ce57600080fd5b818501915085601f8301126122e257600080fd5b8151818111156122f4576122f46120f1565b8060051b604051601f19603f83011681018181108582111715612319576123196120f1565b60405291825284820192508381018501918883111561233757600080fd5b938501935b828510156123555784518452938501939285019261233c565b98975050505050505050565b60006020828403121561237357600080fd5b5051919050565b808202811582820484141761043057610430612267565b6000826123ae57634e487b7160e01b600052601260045260246000fd5b500490565b60008151808452602080850194506020840160005b838110156123e4578151875295820195908201906001016123c8565b509495945050505050565b60408152600061240260408301856123b3565b828103602084015261241481856123b3565b95945050505050565b602081526000611e0a60208301846123b3565b815167ffffffffffffffff81111561244a5761244a6120f1565b61245e816124588454612107565b84612141565b602080601f831160018114612493576000841561247b5750858301515b600019600386901b1c1916600185901b178555612189565b600085815260208120601f198616915b828110156124c2578886015182559484019460019091019084016124a3565b50858210156124e05787850151600019600388901b60f8161c191681555b5050505050600190811b01905550565b84815283602082015260806040820152600061250f60808301856120a4565b828103606084015261252181856120a4565b979650505050505050565b6000825161253e818460208701612080565b9190910192915050565b634e487b7160e01b600052603160045260246000fdfe4170d100a3a3728ae51207936ee755ecaa64a7f6e9383c642ab204a136f90b1b02dd7bc7dec4dceedda775e58dd541e08a116c6c53815c0bd028192f7b626800a2646970667358221220084b749c72c79ee91c511b2eb020368d09a3c8bb61500b212bc9e819cabf3c8f64736f6c63430008180033",
  "linkReferences": {},
  "deployedLinkReferences": {}
}