{
  "_format": "hh-sol-artifact-1",
  "contractName": "PrivateLiquidationAuction",
  "sourceName": "contracts/confidential/PrivateLiquidationAuction.sol",
  "abi": [
    {
      "inputs": [],
      "stateMutability": "nonpayable",
      "type": "constructor"
    },
    {
      "inputs": [],
      "name": "AccessControlBadConfirmation",
      "type": "error"
    },
    {
      "inputs": [
        {
          "internalType": "address",
          "name": "account",
          "type": "address"
        },
        {
          "internalType": "bytes32",
          "name": "neededRole",
          "type": "bytes32"
        }
      ],
      "name": "AccessControlUnauthorizedAccount",
      "type": "error"
    },
    {
      "inputs": [],
      "name": "InvalidInitialization",
      "type": "error"
    },
    {
      "inputs": [],
      "name": "NotInitializing",
      "type": "error"
    },
    {
      "inputs": [],
      "name": "ReentrancyGuardReentrantCall",
      "type": "error"
    },
    {
      "anonymous": false,
      "inputs": [
        {
          "indexed": true,
          "internalType": "uint256",
          "name": "auctionId",
          "type": "uint256"
        }
      ],
      "name": "AuctionCancelled",
      "type": "event"
    },
    {
      "anonymous": false,
      "inputs": [
        {
          "indexed": true,
          "internalType": "uint256",
          "name": "auctionId",
          "type": "uint256"
        },
        {
          "indexed": false,
          "internalType": "address",
          "name": "collateralAsset",
          "type": "address"
        },
        {
          "indexed": false,
          "internalType": "uint256",
          "name": "collateralAmount",
          "type": "uint256"
        },
        {
          "indexed": false,
          "internalType": "uint256",
          "name": "minimumBid",
          "type": "uint256"
        },
        {
          "indexed": false,
          "internalType": "uint256",
          "name": "endTime",
          "type": "uint256"
        }
      ],
      "name": "AuctionCreated",
      "type": "event"
    },
    {
      "anonymous": false,
      "inputs": [
        {
          "indexed": true,
          "internalType": "uint256",
          "name": "auctionId",
          "type": "uint256"
        },
        {
          "indexed": false,
          "internalType": "address",
          "name": "winner",
          "type": "address"
        },
        {
          "indexed": false,
          "internalType": "uint256",
          "name": "winningAmount",
          "type": "uint256"
        }
      ],
      "name": "AuctionFinalized",
      "type": "event"
    },
    {
      "anonymous": false,
      "inputs": [
        {
          "indexed": true,
          "internalType": "uint256",
          "name": "auctionId",
          "type": "uint256"
        }
      ],
      "name": "AuctionSettled",
      "type": "event"
    },
    {
      "anonymous": false,
      "inputs": [
        {
          "indexed": true,
          "internalType": "uint256",
          "name": "auctionId",
          "type": "uint256"
        },
        {
          "indexed": true,
          "internalType": "address",
          "name": "bidder",
          "type": "address"
        },
        {
          "indexed": false,
          "internalType": "bytes32",
          "name": "commitment",
          "type": "bytes32"
        },
        {
          "indexed": false,
          "internalType": "uint256",
          "name": "timestamp",
          "type": "uint256"
        }
      ],
      "name": "BidSubmitted",
      "type": "event"
    },
    {
      "anonymous": false,
      "inputs": [
        {
          "indexed": false,
          "internalType": "uint64",
          "name": "version",
          "type": "uint64"
        }
      ],
      "name": "Initialized",
      "type": "event"
    },
    {
      "anonymous": false,
      "inputs": [
        {
          "indexed": true,
          "internalType": "bytes32",
          "name": "role",
          "type": "bytes32"
        },
        {
          "indexed": true,
          "internalType": "bytes32",
          "name": "previousAdminRole",
          "type": "bytes32"
        },
        {
          "indexed": true,
          "internalType": "bytes32",
          "name": "newAdminRole",
          "type": "bytes32"
        }
      ],
      "name": "RoleAdminChanged",
      "type": "event"
    },
    {
      "anonymous": false,
      "inputs": [
        {
          "indexed": true,
          "internalType": "bytes32",
          "name": "role",
          "type": "bytes32"
        },
        {
          "indexed": true,
          "internalType": "address",
          "name": "account",
          "type": "address"
        },
        {
          "indexed": true,
          "internalType": "address",
          "name": "sender",
          "type": "address"
        }
      ],
      "name": "RoleGranted",
      "type": "event"
    },
    {
      "anonymous": false,
      "inputs": [
        {
          "indexed": true,
          "internalType": "bytes32",
          "name": "role",
          "type": "bytes32"
        },
        {
          "indexed": true,
          "internalType": "address",
          "name": "account",
          "type": "address"
        },
        {
          "indexed": true,
          "internalType": "address",
          "name": "sender",
          "type": "address"
        }
      ],
      "name": "RoleRevoked",
      "type": "event"
    },
    {
      "inputs": [],
      "name": "AUCTION_MANAGER_ROLE",
      "outputs": [
        {
          "internalType": "bytes32",
          "name": "",
          "type": "bytes32"
        }
      ],
      "stateMutability": "view",
      "type": "function"
    },
    {
      "inputs": [],
      "name": "BRIDGE_ROLE",
      "outputs": [
        {
          "internalType": "bytes32",
          "name": "",
          "type": "bytes32"
        }
      ],
      "stateMutability": "view",
      "type": "function"
    },
    {
      "inputs": [],
      "name": "DEFAULT_ADMIN_ROLE",
      "outputs": [
        {
          "internalType": "bytes32",
          "name": "",
          "type": "bytes32"
        }
      ],
      "stateMutability": "view",
      "type": "function"
    },
    {
      "inputs": [],
      "name": "auctionCount",
      "outputs": [
        {
          "internalType": "uint256",
          "name": "",
          "type": "uint256"
        }
      ],
      "stateMutability": "view",
      "type": "function"
    },
    {
      "inputs": [
        {
          "internalType": "uint256",
          "name": "",
          "type": "uint256"
        }
      ],
      "name": "auctions",
      "outputs": [
        {
          "internalType": "uint256",
          "name": "auctionId",
          "type": "uint256"
        },
        {
          "internalType": "address",
          "name": "collateralAsset",
          "type": "address"
        },
        {
          "internalType": "uint256",
          "name": "collateralAmount",
          "type": "uint256"
        },
        {
          "internalType": "uint256",
          "name": "minimumBid",
          "type": "uint256"
        },
        {
          "internalType": "uint256",
          "name": "startTime",
          "type": "uint256"
        },
        {
          "internalType": "uint256",
          "name": "endTime",
          "type": "uint256"
        },
        {
          "internalType": "enum PrivateLiquidationAuction.AuctionStatus",
          "name": "status",
          "type": "uint8"
        },
        {
          "internalType": "address",
          "name": "winner",
          "type": "address"
        },
        {
          "internalType": "uint256",
          "name": "winningAmount",
          "type": "uint256"
        },
        {
          "internalType": "uint256",
          "name": "bidCount",
          "type": "uint256"
        }
      ],
      "stateMutability": "view",
      "type": "function"
    },
    {
      "inputs": [
        {
          "internalType": "uint256",
          "name": "auctionId",
          "type": "uint256"
        }
      ],
      "name": "cancelAuction",
      "outputs": [],
      "stateMutability": "nonpayable",
      "type": "function"
    },
    {
      "inputs": [
        {
          "internalType": "address",
          "name": "collateralAsset",
          "type": "address"
        },
        {
          "internalType": "uint256",
          "name": "collateralAmount",
          "type": "uint256"
        },
        {
          "internalType": "uint256",
          "name": "minimumBid",
          "type": "uint256"
        },
        {
          "internalType": "uint256",
          "name": "duration",
          "type": "uint256"
        }
      ],
      "name": "createAuction",
      "outputs": [
        {
          "internalType": "uint256",
          "name": "",
          "type": "uint256"
        }
      ],
      "stateMutability": "nonpayable",
      "type": "function"
    },
    {
      "inputs": [],
      "name": "externalNullifierHash",
      "outputs": [
        {
          "internalType": "uint256",
          "name": "",
          "type": "uint256"
        }
      ],
      "stateMutability": "view",
      "type": "function"
    },
    {
      "inputs": [
        {
          "internalType": "uint256",
          "name": "auctionId",
          "type": "uint256"
        }
      ],
      "name": "finalizeAuction",
      "outputs": [],
      "stateMutability": "nonpayable",
      "type": "function"
    },
    {
      "inputs": [
        {
          "internalType": "uint256",
          "name": "auctionId",
          "type": "uint256"
        }
      ],
      "name": "getAuction",
      "outputs": [
        {
          "components": [
            {
              "internalType": "uint256",
              "name": "auctionId",
              "type": "uint256"
            },
            {
              "internalType": "address",
              "name": "collateralAsset",
              "type": "address"
            },
            {
              "internalType": "uint256",
              "name": "collateralAmount",
              "type": "uint256"
            },
            {
              "internalType": "uint256",
              "name": "minimumBid",
              "type": "uint256"
            },
            {
              "internalType": "uint256",
              "name": "startTime",
              "type": "uint256"
            },
            {
              "internalType": "uint256",
              "name": "endTime",
              "type": "uint256"
            },
            {
              "internalType": "enum PrivateLiquidationAuction.AuctionStatus",
              "name": "status",
              "type": "uint8"
            },
            {
              "internalType": "address",
              "name": "winner",
              "type": "address"
            },
            {
              "internalType": "uint256",
              "name": "winningAmount",
              "type": "uint256"
            },
            {
              "internalType": "uint256",
              "name": "bidCount",
              "type": "uint256"
            }
          ],
          "internalType": "struct PrivateLiquidationAuction.Auction",
          "name": "",
          "type": "tuple"
        }
      ],
      "stateMutability": "view",
      "type": "function"
    },
    {
      "inputs": [
        {
          "internalType": "uint256",
          "name": "auctionId",
          "type": "uint256"
        },
        {
          "internalType": "uint256",
          "name": "bidIndex",
          "type": "uint256"
        }
      ],
      "name": "getBidCommitment",
      "outputs": [
        {
          "internalType": "address",
          "name": "bidder",
          "type": "address"
        },
        {
          "internalType": "bytes32",
          "name": "commitment",
          "type": "bytes32"
        },
        {
          "internalType": "uint256",
          "name": "timestamp",
          "type": "uint256"
        }
      ],
      "stateMutability": "view",
      "type": "function"
    },
    {
      "inputs": [
        {
          "internalType": "uint256",
          "name": "auctionId",
          "type": "uint256"
        }
      ],
      "name": "getBidCount",
      "outputs": [
        {
          "internalType": "uint256",
          "name": "",
          "type": "uint256"
        }
      ],
      "stateMutability": "view",
      "type": "function"
    },
    {
      "inputs": [
        {
          "internalType": "bytes32",
          "name": "role",
          "type": "bytes32"
        }
      ],
      "name": "getRoleAdmin",
      "outputs": [
        {
          "internalType": "bytes32",
          "name": "",
          "type": "bytes32"
        }
      ],
      "stateMutability": "view",
      "type": "function"
    },
    {
      "inputs": [
        {
          "internalType": "bytes32",
          "name": "role",
          "type": "bytes32"
        },
        {
          "internalType": "address",
          "name": "account",
          "type": "address"
        }
      ],
      "name": "grantRole",
      "outputs": [],
      "stateMutability": "nonpayable",
      "type": "function"
    },
    {
      "inputs": [
        {
          "internalType": "bytes32",
          "name": "role",
          "type": "bytes32"
        },
        {
          "internalType": "address",
          "name": "account",
          "type": "address"
        }
      ],
      "name": "hasRole",
      "outputs": [
        {
          "internalType": "bool",
          "name": "",
          "type": "bool"
        }
      ],
      "stateMutability": "view",
      "type": "function"
    },
    {
      "inputs": [
        {
          "internalType": "address",
          "name": "_worldId",
          "type": "address"
        },
        {
          "internalType": "uint256",
          "name": "_externalNullifierHash",
          "type": "uint256"
        }
      ],
      "name": "initialize",
      "outputs": [],
      "stateMutability": "nonpayable",
      "type": "function"
    },
    {
      "inputs": [
        {
          "internalType": "uint256",
          "name": "auctionId",
          "type": "uint256"
        }
      ],
      "name": "markSettled",
      "outputs": [],
      "stateMutability": "nonpayable",
      "type": "function"
    },
    {
      "inputs": [
        {
          "internalType": "bytes32",
          "name": "role",
          "type": "bytes32"
        },
        {
          "internalType": "address",
          "name": "callerConfirmation",
          "type": "address"
        }
      ],
      "name": "renounceRole",
      "outputs": [],
      "stateMutability": "nonpayable",
      "type": "function"
    },
    {
      "inputs": [
        {
          "internalType": "bytes32",
          "name": "role",
          "type": "bytes32"
        },
        {
          "internalType": "address",
          "name": "account",
          "type": "address"
        }
      ],
      "name": "revokeRole",
      "outputs": [],
      "stateMutability": "nonpayable",
      "type": "function"
    },
    {
      "inputs": [
        {
          "internalType": "uint256",
          "name": "auctionId",
          "type": "uint256"
        },
        {
          "internalType": "bytes",
          "name": "encryptedBidAmount",
          "type": "bytes"
        },
        {
          "internalType": "bytes32",
          "name": "commitment",
          "type": "bytes32"
        },
        {
          "internalType": "uint256",
          "name": "merkleRoot",
          "type": "uint256"
        },
        {
          "internalType": "uint256",
          "name": "nullifierHash",
          "type": "uint256"
        },
        {
          "internalType": "uint256[8]",
          "name": "proof",
          "type": "uint256[8]"
        }
      ],
      "name": "submitBid",
      "outputs": [],
      "stateMutability": "nonpayable",
      "type": "function"
    },
    {
      "inputs": [
        {
          "internalType": "bytes4",
          "name": "interfaceId",
          "type": "bytes4"
        }
      ],
      "name": "supportsInterface",
      "outputs": [
        {
          "internalType": "bool",
          "name": "",
          "type": "bool"
        }
      ],
      "stateMutability": "view",
      "type": "function"
    },
    {
      "inputs": [
        {
          "internalType": "uint256",
          "name": "",
          "type": "uint256"
        }
      ],
      "name": "usedBidderNullifiers",
      "outputs": [
        {
          "internalType": "bool",
          "name": "",
          "type": "bool"
        }
      ],
      "stateMutability": "view",
      "type": "function"
    },
    {
      "inputs": [],
      "name": "worldId",
      "outputs": [
        {
          "internalType": "contract IWorldID",
          "name": "",
          "type": "address"
        }
      ],
      "stateMutability": "view",
      "type": "function"
    }
  ],
  "bytecode": "0x608060405234801561001057600080fd5b5061001961001e565b6100d0565b7ff0c57e16840df040f15088dc2f81fe391c3923bec73e23a9662efc9c229c6a00805468010000000000000000900460ff161561006e5760405163f92ee8a960e01b815260040160405180910390fd5b80546001600160401b03908116146100cd5780546001600160401b0319166001600160401b0390811782556040519081527fc7f505b2f371ae2175ee4913f4499e1f2633a7b5936321eed1cdaeb6115181d29060200160405180910390a15b50565b611c6a806100df6000396000f3fe608060405234801561001057600080fd5b506004361061014d5760003560e01c8063744d3411116100c357806396b5a7551161007c57806396b5a75514610381578063a217fddf14610394578063b5bfddea1461039c578063cd6dc687146103c3578063d547741f146103d6578063e8083863146103e957600080fd5b8063744d3411146102db578063753e9ef0146102fb57806378bd7935146103265780637d615286146103465780637e5634b91461035b57806391d148541461036e57600080fd5b806336568abe1161011557806336568abe146101f157806338e30a5b146102045780633e5401ac14610227578063571a26a01461023a57806359dd06aa146102bf57806361beb1d7146102c857600080fd5b806301ffc9a714610152578063248a9ca31461017a5780632ad715731461019b5780632c340ebf146101a45780632f2ff15d146101dc575b600080fd5b61016561016036600461160c565b6103fc565b60405190151581526020015b60405180910390f35b61018d61018836600461163d565b610433565b604051908152602001610171565b61018d60025481565b6101b76101b2366004611656565b610455565b604080516001600160a01b039094168452602084019290925290820152606001610171565b6101ef6101ea366004611694565b610504565b005b6101ef6101ff366004611694565b610526565b61016561021236600461163d565b60056020526000908152604090205460ff1681565b6101ef6102353660046116d2565b61055e565b6102a961024836600461163d565b60006020819052908152604090208054600182015460028301546003840154600485015460058601546006870154600788015460089098015496976001600160a01b0396871697959694959394929360ff831693610100909304909216918a565b6040516101719a999897969594939291906117b6565b61018d60045481565b61018d6102d636600461181c565b61088b565b61018d6102e936600461163d565b60009081526001602052604090205490565b60035461030e906001600160a01b031681565b6040516001600160a01b039091168152602001610171565b61033961033436600461163d565b610b45565b6040516101719190611855565b61018d600080516020611bf583398151915281565b6101ef61036936600461163d565b610c13565b61016561037c366004611694565b610cea565b6101ef61038f36600461163d565b610d22565b61018d600081565b61018d7f52ba824bfabc2bcfcdf7f0edbb486ebb05e1836c90e78047efeb949990f72e5f81565b6101ef6103d13660046118ed565b610e10565b6101ef6103e4366004611694565b610f6c565b6101ef6103f736600461163d565b610f88565b60006001600160e01b03198216637965db0b60e01b148061042d57506301ffc9a760e01b6001600160e01b03198316145b92915050565b6000908152600080516020611c15833981519152602052604090206001015490565b6000828152600160205260408120548190819084106104af5760405162461bcd60e51b8152602060048201526011602482015270092dcecc2d8d2c840c4d2c840d2dcc8caf607b1b60448201526064015b60405180910390fd5b60008581526001602052604081208054869081106104cf576104cf611917565b60009182526020909120600490910201805460038201546002909201546001600160a01b039091169891975095509350505050565b61050d82610433565b6105168161127b565b6105208383611288565b50505050565b6001600160a01b038116331461054f5760405163334bd91960e11b815260040160405180910390fd5b610559828261132d565b505050565b6105666113a9565b600087815260208190526040812090600682015460ff16600381111561058e5761058e61177e565b146105ab5760405162461bcd60e51b81526004016104a69061192d565b806005015442106105ee5760405162461bcd60e51b815260206004820152600d60248201526c105d58dd1a5bdb88195b991959609a1b60448201526064016104a6565b856106335760405162461bcd60e51b8152602060048201526015602482015274125b9d985b1a5908195b98dc9e5c1d195908189a59605a1b60448201526064016104a6565b6003546040805160208082018c9052825180830382018152828401938490528051910120600454633bc778e360e01b9093526001600160a01b0390931692633bc778e39261069492899260019260089190911c918a91908a90604401611959565b60006040518083038186803b1580156106ac57600080fd5b505afa1580156106c0573d6000803e3d6000fd5b50505060008481526005602052604090205460ff161590506107245760405162461bcd60e51b815260206004820152601b60248201527f416c72656164792062696420696e20746869732061756374696f6e000000000060448201526064016104a6565b6000838152600560209081526040808320805460ff191660019081179091558b845282529182902082516080810184523381528351601f8b018490048402810184019094528984529092909182810191908b908b9081908401838280828437600092018290525093855250504260208085019190915260409093018a90525083546001808201865594825290829020835160049092020180546001600160a01b0319166001600160a01b039092169190911781559082015191929091908201906107ee9082611a31565b506040820151600282015560609091015160039091015560088101805490600061081783611b07565b90915550506040805186815242602082015233918a917f0944b81e47f5c964d704e6aa09a5d493e5e763ffd980df4e99dda53f0855f326910160405180910390a35061088260017f9b779b17422d0df92223018b32b4d1fa46e071723d6817e2486d003becc55f0055565b50505050505050565b6000600080516020611bf58339815191526108a58161127b565b600085116108f55760405162461bcd60e51b815260206004820152601960248201527f496e76616c696420636f6c6c61746572616c20616d6f756e740000000000000060448201526064016104a6565b61012c83101561093c5760405162461bcd60e51b8152602060048201526012602482015271111d5c985d1a5bdb881d1bdbc81cda1bdc9d60721b60448201526064016104a6565b620151808311156109835760405162461bcd60e51b81526020600482015260116024820152704475726174696f6e20746f6f206c6f6e6760781b60448201526064016104a6565b600280546000918261099483611b07565b919050559050604051806101400160405280828152602001886001600160a01b0316815260200187815260200186815260200142815260200185426109d99190611b20565b81526020016000815260200160006001600160a01b031681526020016000815260200160008152506000808381526020019081526020016000206000820151816000015560208201518160010160006101000a8154816001600160a01b0302191690836001600160a01b0316021790555060408201518160020155606082015181600301556080820151816004015560a0820151816005015560c08201518160060160006101000a81548160ff02191690836003811115610a9c57610a9c61177e565b021790555060e0820151600682018054610100600160a81b0319166101006001600160a01b039093168302179055820151600782015561012090910151600890910155807f05f9bf100dd0ca9f37f08e0526690286d357ed7d6c5a4ac29730440b6e2dfd62888888610b0e8942611b20565b604080516001600160a01b039095168552602085019390935291830152606082015260800160405180910390a29695505050505050565b610b4d611596565b600082815260208181526040918290208251610140810184528154815260018201546001600160a01b031692810192909252600281015492820192909252600380830154606083015260048301546080830152600583015460a0830152600683015491929160c084019160ff90911690811115610bcc57610bcc61177e565b6003811115610bdd57610bdd61177e565b8152600682015461010090046001600160a01b031660208201526007820154604082015260089091015460609091015292915050565b7f52ba824bfabc2bcfcdf7f0edbb486ebb05e1836c90e78047efeb949990f72e5f610c3d8161127b565b60008281526020819052604090206001600682015460ff166003811115610c6657610c6661177e565b14610cab5760405162461bcd60e51b8152602060048201526015602482015274105d58dd1a5bdb881b9bdd08199a5b985b1a5e9959605a1b60448201526064016104a6565b60068101805460ff1916600217905560405183907f2f95e6505f529dd225ce705685fe55440c01f2824ac3fb4303f6eef4bd453ff490600090a2505050565b6000918252600080516020611c15833981519152602090815260408084206001600160a01b0393909316845291905290205460ff1690565b600080516020611bf5833981519152610d3a8161127b565b600082815260208190526040812090600682015460ff166003811115610d6257610d6261177e565b14610d7f5760405162461bcd60e51b81526004016104a69061192d565b600881015415610dd15760405162461bcd60e51b815260206004820152601f60248201527f43616e6e6f742063616e63656c2061756374696f6e207769746820626964730060448201526064016104a6565b60068101805460ff1916600317905560405183907f2809c7e17bf978fbc7194c0a694b638c4215e9140cacc6c38ca36010b45697df90600090a2505050565b7ff0c57e16840df040f15088dc2f81fe391c3923bec73e23a9662efc9c229c6a008054600160401b810460ff16159067ffffffffffffffff16600081158015610e565750825b905060008267ffffffffffffffff166001148015610e735750303b155b905081158015610e81575080155b15610e9f5760405163f92ee8a960e01b815260040160405180910390fd5b845467ffffffffffffffff191660011785558315610ec957845460ff60401b1916600160401b1785555b610ed1611419565b610ed9611423565b610ee4600033611288565b50610efd600080516020611bf583398151915233611288565b50600380546001600160a01b0319166001600160a01b0389161790556004869055831561088257845460ff60401b19168555604051600181527fc7f505b2f371ae2175ee4913f4499e1f2633a7b5936321eed1cdaeb6115181d29060200160405180910390a150505050505050565b610f7582610433565b610f7e8161127b565b610520838361132d565b600080516020611bf5833981519152610fa08161127b565b600082815260208190526040812090600682015460ff166003811115610fc857610fc861177e565b14610fe55760405162461bcd60e51b81526004016104a69061192d565b80600501544210156110315760405162461bcd60e51b815260206004820152601560248201527441756374696f6e207374696c6c206f6e676f696e6760581b60448201526064016104a6565b60008160080154116110795760405162461bcd60e51b8152602060048201526011602482015270139bc8189a591cc81cdd589b5a5d1d1959607a1b60448201526064016104a6565b60008381526001602052604081208190815b81548110156111ba5760006111626000801b6000801b8585815481106110b3576110b3611917565b906000526020600020906004020160010180546110cf906119a7565b80601f01602080910402602001604051908101604052809291908181526020018280546110fb906119a7565b80156111485780601f1061111d57610100808354040283529160200191611148565b820191906000526020600020905b81548152906001019060200180831161112b57829003601f168201915b505050505060405180602001604052806000815250611433565b8060200190518101906111759190611b33565b9050848111156111b15780945082828154811061119457611194611917565b60009182526020909120600490910201546001600160a01b031693505b5060010161108b565b5083600301548310156111ff5760405162461bcd60e51b815260206004820152600d60248201526c4e6f2076616c6964206269647360981b60448201526064016104a6565b6006840180546007860185905560ff196001600160a01b0385166101008102919091166001600160a81b031990921691909117600117909155604080519182526020820185905287917f4d9113a1377d665eaa1f9168a9c9080f2e488cb820b10149de3d6d2e0f2780c7910160405180910390a2505050505050565b6112858133611508565b50565b6000600080516020611c158339815191526112a38484610cea565b611323576000848152602082815260408083206001600160a01b03871684529091529020805460ff191660011790556112d93390565b6001600160a01b0316836001600160a01b0316857f2f8788117e7eff1d82e926ec794901d17c78024a50270940304540a733656f0d60405160405180910390a4600191505061042d565b600091505061042d565b6000600080516020611c158339815191526113488484610cea565b15611323576000848152602082815260408083206001600160a01b0387168085529252808320805460ff1916905551339287917ff6391f5c32d9c69d2a47ea670b442974b53935d1edc7fd64eb21e047a839171b9190a4600191505061042d565b7f9b779b17422d0df92223018b32b4d1fa46e071723d6817e2486d003becc55f008054600119016113ed57604051633ee5aeb560e01b815260040160405180910390fd5b60029055565b60017f9b779b17422d0df92223018b32b4d1fa46e071723d6817e2486d003becc55f0055565b611421611545565b565b61142b611545565b61142161158e565b60606000806004600160981b016001600160a01b0316878787876040516020016114609493929190611b9c565b60408051601f198184030181529082905261147a91611bd8565b600060405180830381855afa9150503d80600081146114b5576040519150601f19603f3d011682016040523d82523d6000602084013e6114ba565b606091505b5091509150816114fe5760405162461bcd60e51b815260206004820152600f60248201526e191958dc9e5c1d0e8819985a5b1959608a1b60448201526064016104a6565b9695505050505050565b6115128282610cea565b6115415760405163e2517d3f60e01b81526001600160a01b0382166004820152602481018390526044016104a6565b5050565b7ff0c57e16840df040f15088dc2f81fe391c3923bec73e23a9662efc9c229c6a0054600160401b900460ff1661142157604051631afcd79f60e31b815260040160405180910390fd5b6113f3611545565b6040518061014001604052806000815260200160006001600160a01b0316815260200160008152602001600081526020016000815260200160008152602001600060038111156115e8576115e861177e565b815260200160006001600160a01b0316815260200160008152602001600081525090565b60006020828403121561161e57600080fd5b81356001600160e01b03198116811461163657600080fd5b9392505050565b60006020828403121561164f57600080fd5b5035919050565b6000806040838503121561166957600080fd5b50508035926020909101359150565b80356001600160a01b038116811461168f57600080fd5b919050565b600080604083850312156116a757600080fd5b823591506116b760208401611678565b90509250929050565b80610100810183101561042d57600080fd5b60008060008060008060006101a0888a0312156116ee57600080fd5b87359650602088013567ffffffffffffffff8082111561170d57600080fd5b818a0191508a601f83011261172157600080fd5b81358181111561173057600080fd5b8b602082850101111561174257600080fd5b6020830198508097505050506040880135935060608801359250608088013591506117708960a08a016116c0565b905092959891949750929550565b634e487b7160e01b600052602160045260246000fd5b600481106117b257634e487b7160e01b600052602160045260246000fd5b9052565b8a81526001600160a01b038a81166020830152604082018a9052606082018990526080820188905260a082018790526101408201906117f860c0840188611794565b9490941660e082015261010081019290925261012090910152979650505050505050565b6000806000806080858703121561183257600080fd5b61183b85611678565b966020860135965060408601359560600135945092505050565b81518152602080830151610140830191611879908401826001600160a01b03169052565b5060408301516040830152606083015160608301526080830151608083015260a083015160a083015260c08301516118b460c0840182611794565b5060e08301516118cf60e08401826001600160a01b03169052565b50610100838101519083015261012092830151929091019190915290565b6000806040838503121561190057600080fd5b61190983611678565b946020939093013593505050565b634e487b7160e01b600052603260045260246000fd5b60208082526012908201527141756374696f6e206e6f742061637469766560701b604082015260600190565b60006101a0820190508782528660208301528560408301528460608301528360808301526101008360a0840137979650505050505050565b634e487b7160e01b600052604160045260246000fd5b600181811c908216806119bb57607f821691505b6020821081036119db57634e487b7160e01b600052602260045260246000fd5b50919050565b601f821115610559576000816000526020600020601f850160051c81016020861015611a0a5750805b601f850160051c820191505b81811015611a2957828155600101611a16565b505050505050565b815167ffffffffffffffff811115611a4b57611a4b611991565b611a5f81611a5984546119a7565b846119e1565b602080601f831160018114611a945760008415611a7c5750858301515b600019600386901b1c1916600185901b178555611a29565b600085815260208120601f198616915b82811015611ac357888601518255948401946001909101908401611aa4565b5085821015611ae15787850151600019600388901b60f8161c191681555b5050505050600190811b01905550565b634e487b7160e01b600052601160045260246000fd5b600060018201611b1957611b19611af1565b5060010190565b8082018082111561042d5761042d611af1565b600060208284031215611b4557600080fd5b5051919050565b60005b83811015611b67578181015183820152602001611b4f565b50506000910152565b60008151808452611b88816020860160208601611b4c565b601f01601f19169290920160200192915050565b848152836020820152608060408201526000611bbb6080830185611b70565b8281036060840152611bcd8185611b70565b979650505050505050565b60008251611bea818460208701611b4c565b919091019291505056fefc15875e223f196de4d28f104664030b8067b4a40d0372ee3095567046e5e0b302dd7bc7dec4dceedda775e58dd541e08a116c6c53815c0bd028192f7b626800a264697066735822122074a3ee0e6f91e80dc1f4a1a350826510b4f137aaca3a214348f37dd27ed30edf64736f6c63430008180033",
  "linkReferences": {},
  "deployedLinkReferences": {}
}