{
  "_format": "hh-sol-artifact-1",
  "contractName": "RiskGuardian",
  "sourceName": "contracts/RiskGuardian.sol",
  "abi": [
    {
      "inputs": [],
      "stateMutability": "nonpayable",
      "type": "constructor"
    },
    {
      "inputs": [],
      "name": "AccessControlBadConfirmation",
      "type": "error"
    },
    {
      "inputs": [
        {
          "internalType": "address",
          "name": "account",
          "type": "address"
        },
        {
          "internalType": "bytes32",
          "name": "neededRole",
          "type": "bytes32"
        }
      ],
      "name": "AccessControlUnauthorizedAccount",
      "type": "error"
    },
    {
      "inputs": [
        {
          "internalType": "address",
          "name": "target",
          "type": "address"
        }
      ],
      "name": "AddressEmptyCode",
      "type": "error"
    },
    {
      "inputs": [],
      "name": "CooldownActive",
      "type": "error"
    },
    {
      "inputs": [
        {
          "internalType": "address",
          "name": "implementation",
          "type": "address"
        }
      ],
      "name": "ERC1967InvalidImplementation",
      "type": "error"
    },
    {
      "inputs": [],
      "name": "ERC1967NonPayable",
      "type": "error"
    },
    {
      "inputs": [],
      "name": "FailedInnerCall",
      "type": "error"
    },
    {
      "inputs": [],
      "name": "InvalidConfidence",
      "type": "error"
    },
    {
      "inputs": [],
      "name": "InvalidInitialization",
      "type": "error"
    },
    {
      "inputs": [],
      "name": "InvalidRiskScore",
      "type": "error"
    },
    {
      "inputs": [],
      "name": "InvalidThresholds",
      "type": "error"
    },
    {
      "inputs": [],
      "name": "NotInitializing",
      "type": "error"
    },
    {
      "inputs": [],
      "name": "ReentrancyGuardReentrantCall",
      "type": "error"
    },
    {
      "inputs": [],
      "name": "UUPSUnauthorizedCallContext",
      "type": "error"
    },
    {
      "inputs": [
        {
          "internalType": "bytes32",
          "name": "slot",
          "type": "bytes32"
        }
      ],
      "name": "UUPSUnsupportedProxiableUUID",
      "type": "error"
    },
    {
      "inputs": [],
      "name": "UnauthorizedCREWorkflow",
      "type": "error"
    },
    {
      "inputs": [],
      "name": "ZeroAddress",
      "type": "error"
    },
    {
      "anonymous": false,
      "inputs": [
        {
          "indexed": true,
          "internalType": "address",
          "name": "workflow",
          "type": "address"
        },
        {
          "indexed": false,
          "internalType": "uint256",
          "name": "timestamp",
          "type": "uint256"
        }
      ],
      "name": "CREWorkflowAuthorized",
      "type": "event"
    },
    {
      "anonymous": false,
      "inputs": [
        {
          "indexed": true,
          "internalType": "address",
          "name": "workflow",
          "type": "address"
        },
        {
          "indexed": false,
          "internalType": "uint256",
          "name": "timestamp",
          "type": "uint256"
        }
      ],
      "name": "CREWorkflowRevoked",
      "type": "event"
    },
    {
      "anonymous": false,
      "inputs": [
        {
          "indexed": false,
          "internalType": "uint256",
          "name": "riskScore",
          "type": "uint256"
        },
        {
          "indexed": false,
          "internalType": "string",
          "name": "reasoning",
          "type": "string"
        },
        {
          "indexed": false,
          "internalType": "uint256",
          "name": "timestamp",
          "type": "uint256"
        }
      ],
      "name": "CriticalSafeguardActivated",
      "type": "event"
    },
    {
      "anonymous": false,
      "inputs": [
        {
          "indexed": false,
          "internalType": "uint256",
          "name": "oldRatio",
          "type": "uint256"
        },
        {
          "indexed": false,
          "internalType": "uint256",
          "name": "newRatio",
          "type": "uint256"
        },
        {
          "indexed": false,
          "internalType": "uint256",
          "name": "timestamp",
          "type": "uint256"
        }
      ],
      "name": "ElevatedSafeguardActivated",
      "type": "event"
    },
    {
      "anonymous": false,
      "inputs": [
        {
          "indexed": false,
          "internalType": "uint64",
          "name": "version",
          "type": "uint64"
        }
      ],
      "name": "Initialized",
      "type": "event"
    },
    {
      "anonymous": false,
      "inputs": [
        {
          "indexed": true,
          "internalType": "uint256",
          "name": "riskScore",
          "type": "uint256"
        },
        {
          "indexed": false,
          "internalType": "string",
          "name": "action",
          "type": "string"
        },
        {
          "indexed": false,
          "internalType": "uint256",
          "name": "confidence",
          "type": "uint256"
        },
        {
          "indexed": false,
          "internalType": "address",
          "name": "triggeredBy",
          "type": "address"
        },
        {
          "indexed": false,
          "internalType": "uint256",
          "name": "timestamp",
          "type": "uint256"
        }
      ],
      "name": "RiskResponseExecuted",
      "type": "event"
    },
    {
      "anonymous": false,
      "inputs": [
        {
          "indexed": true,
          "internalType": "bytes32",
          "name": "role",
          "type": "bytes32"
        },
        {
          "indexed": true,
          "internalType": "bytes32",
          "name": "previousAdminRole",
          "type": "bytes32"
        },
        {
          "indexed": true,
          "internalType": "bytes32",
          "name": "newAdminRole",
          "type": "bytes32"
        }
      ],
      "name": "RoleAdminChanged",
      "type": "event"
    },
    {
      "anonymous": false,
      "inputs": [
        {
          "indexed": true,
          "internalType": "bytes32",
          "name": "role",
          "type": "bytes32"
        },
        {
          "indexed": true,
          "internalType": "address",
          "name": "account",
          "type": "address"
        },
        {
          "indexed": true,
          "internalType": "address",
          "name": "sender",
          "type": "address"
        }
      ],
      "name": "RoleGranted",
      "type": "event"
    },
    {
      "anonymous": false,
      "inputs": [
        {
          "indexed": true,
          "internalType": "bytes32",
          "name": "role",
          "type": "bytes32"
        },
        {
          "indexed": true,
          "internalType": "address",
          "name": "account",
          "type": "address"
        },
        {
          "indexed": true,
          "internalType": "address",
          "name": "sender",
          "type": "address"
        }
      ],
      "name": "RoleRevoked",
      "type": "event"
    },
    {
      "anonymous": false,
      "inputs": [
        {
          "indexed": false,
          "internalType": "uint256",
          "name": "moderate",
          "type": "uint256"
        },
        {
          "indexed": false,
          "internalType": "uint256",
          "name": "elevated",
          "type": "uint256"
        },
        {
          "indexed": false,
          "internalType": "uint256",
          "name": "critical",
          "type": "uint256"
        },
        {
          "indexed": false,
          "internalType": "uint256",
          "name": "timestamp",
          "type": "uint256"
        }
      ],
      "name": "ThresholdsUpdated",
      "type": "event"
    },
    {
      "anonymous": false,
      "inputs": [
        {
          "indexed": true,
          "internalType": "address",
          "name": "attacker",
          "type": "address"
        },
        {
          "indexed": false,
          "internalType": "uint256",
          "name": "timestamp",
          "type": "uint256"
        }
      ],
      "name": "UnauthorizedAccessAttempt",
      "type": "event"
    },
    {
      "anonymous": false,
      "inputs": [
        {
          "indexed": true,
          "internalType": "address",
          "name": "implementation",
          "type": "address"
        }
      ],
      "name": "Upgraded",
      "type": "event"
    },
    {
      "inputs": [],
      "name": "ADMIN_ROLE",
      "outputs": [
        {
          "internalType": "bytes32",
          "name": "",
          "type": "bytes32"
        }
      ],
      "stateMutability": "view",
      "type": "function"
    },
    {
      "inputs": [],
      "name": "DEFAULT_ADMIN_ROLE",
      "outputs": [
        {
          "internalType": "bytes32",
          "name": "",
          "type": "bytes32"
        }
      ],
      "stateMutability": "view",
      "type": "function"
    },
    {
      "inputs": [],
      "name": "GUARDIAN_ROLE",
      "outputs": [
        {
          "internalType": "bytes32",
          "name": "",
          "type": "bytes32"
        }
      ],
      "stateMutability": "view",
      "type": "function"
    },
    {
      "inputs": [],
      "name": "UPGRADE_INTERFACE_VERSION",
      "outputs": [
        {
          "internalType": "string",
          "name": "",
          "type": "string"
        }
      ],
      "stateMutability": "view",
      "type": "function"
    },
    {
      "inputs": [
        {
          "internalType": "address",
          "name": "workflowAddress",
          "type": "address"
        }
      ],
      "name": "addAuthorizedCREWorkflow",
      "outputs": [],
      "stateMutability": "nonpayable",
      "type": "function"
    },
    {
      "inputs": [
        {
          "internalType": "address",
          "name": "",
          "type": "address"
        }
      ],
      "name": "authorizedCREWorkflows",
      "outputs": [
        {
          "internalType": "bool",
          "name": "",
          "type": "bool"
        }
      ],
      "stateMutability": "view",
      "type": "function"
    },
    {
      "inputs": [
        {
          "internalType": "uint256",
          "name": "",
          "type": "uint256"
        }
      ],
      "name": "creWorkflowList",
      "outputs": [
        {
          "internalType": "address",
          "name": "",
          "type": "address"
        }
      ],
      "stateMutability": "view",
      "type": "function"
    },
    {
      "inputs": [],
      "name": "criticalRiskThreshold",
      "outputs": [
        {
          "internalType": "uint256",
          "name": "",
          "type": "uint256"
        }
      ],
      "stateMutability": "view",
      "type": "function"
    },
    {
      "inputs": [],
      "name": "elevatedRiskThreshold",
      "outputs": [
        {
          "internalType": "uint256",
          "name": "",
          "type": "uint256"
        }
      ],
      "stateMutability": "view",
      "type": "function"
    },
    {
      "inputs": [
        {
          "internalType": "uint256",
          "name": "riskScore",
          "type": "uint256"
        },
        {
          "internalType": "string",
          "name": "recommendedAction",
          "type": "string"
        },
        {
          "internalType": "uint256",
          "name": "confidence",
          "type": "uint256"
        },
        {
          "internalType": "string",
          "name": "reasoning",
          "type": "string"
        }
      ],
      "name": "executeRiskResponse",
      "outputs": [],
      "stateMutability": "nonpayable",
      "type": "function"
    },
    {
      "inputs": [],
      "name": "getAuthorizedWorkflows",
      "outputs": [
        {
          "internalType": "address[]",
          "name": "",
          "type": "address[]"
        }
      ],
      "stateMutability": "view",
      "type": "function"
    },
    {
      "inputs": [
        {
          "internalType": "uint256",
          "name": "count",
          "type": "uint256"
        }
      ],
      "name": "getRiskSignalHistory",
      "outputs": [
        {
          "components": [
            {
              "internalType": "uint256",
              "name": "riskScore",
              "type": "uint256"
            },
            {
              "internalType": "string",
              "name": "recommendedAction",
              "type": "string"
            },
            {
              "internalType": "uint256",
              "name": "confidence",
              "type": "uint256"
            },
            {
              "internalType": "string",
              "name": "reasoning",
              "type": "string"
            },
            {
              "internalType": "uint256",
              "name": "timestamp",
              "type": "uint256"
            },
            {
              "internalType": "address",
              "name": "triggeredBy",
              "type": "address"
            }
          ],
          "internalType": "struct RiskGuardian.RiskSignal[]",
          "name": "",
          "type": "tuple[]"
        }
      ],
      "stateMutability": "view",
      "type": "function"
    },
    {
      "inputs": [
        {
          "internalType": "bytes32",
          "name": "role",
          "type": "bytes32"
        }
      ],
      "name": "getRoleAdmin",
      "outputs": [
        {
          "internalType": "bytes32",
          "name": "",
          "type": "bytes32"
        }
      ],
      "stateMutability": "view",
      "type": "function"
    },
    {
      "inputs": [],
      "name": "governanceContract",
      "outputs": [
        {
          "internalType": "contract IGovernanceModule",
          "name": "",
          "type": "address"
        }
      ],
      "stateMutability": "view",
      "type": "function"
    },
    {
      "inputs": [
        {
          "internalType": "bytes32",
          "name": "role",
          "type": "bytes32"
        },
        {
          "internalType": "address",
          "name": "account",
          "type": "address"
        }
      ],
      "name": "grantRole",
      "outputs": [],
      "stateMutability": "nonpayable",
      "type": "function"
    },
    {
      "inputs": [
        {
          "internalType": "bytes32",
          "name": "role",
          "type": "bytes32"
        },
        {
          "internalType": "address",
          "name": "account",
          "type": "address"
        }
      ],
      "name": "hasRole",
      "outputs": [
        {
          "internalType": "bool",
          "name": "",
          "type": "bool"
        }
      ],
      "stateMutability": "view",
      "type": "function"
    },
    {
      "inputs": [
        {
          "internalType": "address",
          "name": "_vaultContract",
          "type": "address"
        },
        {
          "internalType": "address",
          "name": "_admin",
          "type": "address"
        }
      ],
      "name": "initialize",
      "outputs": [],
      "stateMutability": "nonpayable",
      "type": "function"
    },
    {
      "inputs": [
        {
          "internalType": "address",
          "name": "workflow",
          "type": "address"
        }
      ],
      "name": "isAuthorizedWorkflow",
      "outputs": [
        {
          "internalType": "bool",
          "name": "",
          "type": "bool"
        }
      ],
      "stateMutability": "view",
      "type": "function"
    },
    {
      "inputs": [],
      "name": "lastSafeguardExecution",
      "outputs": [
        {
          "internalType": "uint256",
          "name": "",
          "type": "uint256"
        }
      ],
      "stateMutability": "view",
      "type": "function"
    },
    {
      "inputs": [],
      "name": "moderateRiskThreshold",
      "outputs": [
        {
          "internalType": "uint256",
          "name": "",
          "type": "uint256"
        }
      ],
      "stateMutability": "view",
      "type": "function"
    },
    {
      "inputs": [],
      "name": "proxiableUUID",
      "outputs": [
        {
          "internalType": "bytes32",
          "name": "",
          "type": "bytes32"
        }
      ],
      "stateMutability": "view",
      "type": "function"
    },
    {
      "inputs": [
        {
          "internalType": "address",
          "name": "workflowAddress",
          "type": "address"
        }
      ],
      "name": "removeAuthorizedCREWorkflow",
      "outputs": [],
      "stateMutability": "nonpayable",
      "type": "function"
    },
    {
      "inputs": [
        {
          "internalType": "bytes32",
          "name": "role",
          "type": "bytes32"
        },
        {
          "internalType": "address",
          "name": "callerConfirmation",
          "type": "address"
        }
      ],
      "name": "renounceRole",
      "outputs": [],
      "stateMutability": "nonpayable",
      "type": "function"
    },
    {
      "inputs": [
        {
          "internalType": "bytes32",
          "name": "role",
          "type": "bytes32"
        },
        {
          "internalType": "address",
          "name": "account",
          "type": "address"
        }
      ],
      "name": "revokeRole",
      "outputs": [],
      "stateMutability": "nonpayable",
      "type": "function"
    },
    {
      "inputs": [
        {
          "internalType": "uint256",
          "name": "",
          "type": "uint256"
        }
      ],
      "name": "riskSignalHistory",
      "outputs": [
        {
          "internalType": "uint256",
          "name": "riskScore",
          "type": "uint256"
        },
        {
          "internalType": "string",
          "name": "recommendedAction",
          "type": "string"
        },
        {
          "internalType": "uint256",
          "name": "confidence",
          "type": "uint256"
        },
        {
          "internalType": "string",
          "name": "reasoning",
          "type": "string"
        },
        {
          "internalType": "uint256",
          "name": "timestamp",
          "type": "uint256"
        },
        {
          "internalType": "address",
          "name": "triggeredBy",
          "type": "address"
        }
      ],
      "stateMutability": "view",
      "type": "function"
    },
    {
      "inputs": [],
      "name": "safeguardCooldown",
      "outputs": [
        {
          "internalType": "uint256",
          "name": "",
          "type": "uint256"
        }
      ],
      "stateMutability": "view",
      "type": "function"
    },
    {
      "inputs": [
        {
          "internalType": "address",
          "name": "_governanceContract",
          "type": "address"
        }
      ],
      "name": "setGovernanceContract",
      "outputs": [],
      "stateMutability": "nonpayable",
      "type": "function"
    },
    {
      "inputs": [
        {
          "internalType": "bytes4",
          "name": "interfaceId",
          "type": "bytes4"
        }
      ],
      "name": "supportsInterface",
      "outputs": [
        {
          "internalType": "bool",
          "name": "",
          "type": "bool"
        }
      ],
      "stateMutability": "view",
      "type": "function"
    },
    {
      "inputs": [
        {
          "internalType": "uint256",
          "name": "newCooldown",
          "type": "uint256"
        }
      ],
      "name": "updateSafeguardCooldown",
      "outputs": [],
      "stateMutability": "nonpayable",
      "type": "function"
    },
    {
      "inputs": [
        {
          "internalType": "uint256",
          "name": "moderate",
          "type": "uint256"
        },
        {
          "internalType": "uint256",
          "name": "elevated",
          "type": "uint256"
        },
        {
          "internalType": "uint256",
          "name": "critical",
          "type": "uint256"
        }
      ],
      "name": "updateThresholds",
      "outputs": [],
      "stateMutability": "nonpayable",
      "type": "function"
    },
    {
      "inputs": [
        {
          "internalType": "address",
          "name": "newImplementation",
          "type": "address"
        },
        {
          "internalType": "bytes",
          "name": "data",
          "type": "bytes"
        }
      ],
      "name": "upgradeToAndCall",
      "outputs": [],
      "stateMutability": "payable",
      "type": "function"
    },
    {
      "inputs": [],
      "name": "vaultContract",
      "outputs": [
        {
          "internalType": "contract ITokenizedVault",
          "name": "",
          "type": "address"
        }
      ],
      "stateMutability": "view",
      "type": "function"
    }
  ],
  "bytecode": "0x60a06040523060805234801561001457600080fd5b5061001d610022565b6100d4565b7ff0c57e16840df040f15088dc2f81fe391c3923bec73e23a9662efc9c229c6a00805468010000000000000000900460ff16156100725760405163f92ee8a960e01b815260040160405180910390fd5b80546001600160401b03908116146100d15780546001600160401b0319166001600160401b0390811782556040519081527fc7f505b2f371ae2175ee4913f4499e1f2633a7b5936321eed1cdaeb6115181d29060200160405180910390a15b50565b6080516124d2620000fe6000396000818161188a015281816118b30152611a0901526124d26000f3fe6080604052600436106101e35760003560e01c806375274d5e1161010257806399b8bd9b11610095578063d547741f11610064578063d547741f146105c1578063e44f052b146105e1578063f0c94b8814610601578063fd19e10c1461062e57600080fd5b806399b8bd9b14610538578063a217fddf1461054e578063ad3cb1cc14610563578063b172b222146105a157600080fd5b80638f6f8d61116100d15780638f6f8d61146104a957806391d14854146104bf578063966382f5146104df5780639876185d146104ff57600080fd5b806375274d5e1461042f57806375b238fc1461044f5780637f3e13fd146104715780638b04d08c1461048757600080fd5b806334f2bae61161017a5780634b9ee184116101495780634b9ee184146103d15780634f1ef286146103f157806352d1902d1461040457806360ba33f81461041957600080fd5b806334f2bae61461032f57806336568abe146103615780633ec46ebe14610381578063485cc955146103b157600080fd5b80632274346b116101b65780632274346b14610283578063248a9ca3146102bb57806324ea54f4146102db5780632f2ff15d1461030f57600080fd5b806301ffc9a7146101e85780631129753f1461021d578063187e147b1461023f5780631cb0251c14610263575b600080fd5b3480156101f457600080fd5b50610208610203366004611ca9565b61064e565b60405190151581526020015b60405180910390f35b34801561022957600080fd5b5061023d610238366004611cef565b610685565b005b34801561024b57600080fd5b5061025560025481565b604051908152602001610214565b34801561026f57600080fd5b5061023d61027e366004611d53565b6106e7565b34801561028f57600080fd5b506007546102a3906001600160a01b031681565b6040516001600160a01b039091168152602001610214565b3480156102c757600080fd5b506102556102d6366004611dd6565b6109c0565b3480156102e757600080fd5b506102557f55435dd261a4b9b3364963f7738a7a662ad9c84396d64be3365284bb7f0a504181565b34801561031b57600080fd5b5061023d61032a366004611def565b6109e2565b34801561033b57600080fd5b5061034f61034a366004611dd6565b610a04565b60405161021496959493929190611e6b565b34801561036d57600080fd5b5061023d61037c366004611def565b610b66565b34801561038d57600080fd5b5061020861039c366004611cef565b60006020819052908152604090205460ff1681565b3480156103bd57600080fd5b5061023d6103cc366004611ec0565b610b9e565b3480156103dd57600080fd5b5061023d6103ec366004611cef565b610d4e565b61023d6103ff366004611f00565b610eeb565b34801561041057600080fd5b50610255610f06565b34801561042557600080fd5b5061025560055481565b34801561043b57600080fd5b506102a361044a366004611dd6565b610f23565b34801561045b57600080fd5b5061025560008051602061247d83398151915281565b34801561047d57600080fd5b5061025560065481565b34801561049357600080fd5b5061049c610f4d565b6040516102149190611fc2565b3480156104b557600080fd5b5061025560045481565b3480156104cb57600080fd5b506102086104da366004611def565b610faf565b3480156104eb57600080fd5b5061023d6104fa366004611cef565b610fe7565b34801561050b57600080fd5b5061020861051a366004611cef565b6001600160a01b031660009081526020819052604090205460ff1690565b34801561054457600080fd5b5061025560035481565b34801561055a57600080fd5b50610255600081565b34801561056f57600080fd5b50610594604051806040016040528060058152602001640352e302e360dc1b81525081565b604051610214919061200f565b3480156105ad57600080fd5b506008546102a3906001600160a01b031681565b3480156105cd57600080fd5b5061023d6105dc366004611def565b6110d7565b3480156105ed57600080fd5b5061023d6105fc366004611dd6565b6110f3565b34801561060d57600080fd5b5061062161061c366004611dd6565b611111565b6040516102149190612022565b34801561063a57600080fd5b5061023d6106493660046120dd565b61138c565b60006001600160e01b03198216637965db0b60e01b148061067f57506301ffc9a760e01b6001600160e01b03198316145b92915050565b60008051602061247d83398151915261069d81611438565b6001600160a01b0382166106c45760405163d92e233d60e01b815260040160405180910390fd5b50600880546001600160a01b0319166001600160a01b0392909216919091179055565b3360009081526020819052604090205460ff1661074c5760405142815233907fc92d7d03227b2e1b193646042b42a3f4dd60313dd3444fb7f748d7568a2315ee9060200160405180910390a260405163725d43ad60e11b815260040160405180910390fd5b60055460065461075c919061211f565b42101561077c5760405163aa9a98df60e01b815260040160405180910390fd5b610784611445565b60648611156107a6576040516330cdce3160e21b815260040160405180910390fd5b60648311156107c857604051630936dac760e11b815260040160405180910390fd5b60096040518060c0016040528088815260200187878080601f016020809104026020016040519081016040528093929190818152602001838380828437600092019190915250505090825250602080820187905260408051601f870183900483028101830182528681529201919086908690819084018382808284376000920182905250938552505042602080850191909152336040909401939093525083546001818101865594825290829020835160069092020190815590820151919290919082019061089790826121b4565b5060408201516002820155606082015160038201906108b690826121b4565b50608082015160048281019190915560a090920151600590910180546001600160a01b0319166001600160a01b039092169190911790554260065554861061093d576109388683838080601f01602080910402602001604051908101604052809392919081815260200183838082843760009201919091525061148f92505050565b61094f565b600354861061094f57610938866115d2565b857fea88984e83e7f690dffdbe4501af854edff261c3201486eb6132052c83f7f3978686863342604051610987959493929190612274565b60405180910390a26109b860017f9b779b17422d0df92223018b32b4d1fa46e071723d6817e2486d003becc55f0055565b505050505050565b600090815260008051602061245d833981519152602052604090206001015490565b6109eb826109c0565b6109f481611438565b6109fe8383611744565b50505050565b60098181548110610a1457600080fd5b60009182526020909120600690910201805460018201805491935090610a3990612132565b80601f0160208091040260200160405190810160405280929190818152602001828054610a6590612132565b8015610ab25780601f10610a8757610100808354040283529160200191610ab2565b820191906000526020600020905b815481529060010190602001808311610a9557829003601f168201915b505050505090806002015490806003018054610acd90612132565b80601f0160208091040260200160405190810160405280929190818152602001828054610af990612132565b8015610b465780601f10610b1b57610100808354040283529160200191610b46565b820191906000526020600020905b815481529060010190602001808311610b2957829003601f168201915b5050505060048301546005909301549192916001600160a01b0316905086565b6001600160a01b0381163314610b8f5760405163334bd91960e11b815260040160405180910390fd5b610b9982826117e9565b505050565b7ff0c57e16840df040f15088dc2f81fe391c3923bec73e23a9662efc9c229c6a008054600160401b810460ff16159067ffffffffffffffff16600081158015610be45750825b905060008267ffffffffffffffff166001148015610c015750303b155b905081158015610c0f575080155b15610c2d5760405163f92ee8a960e01b815260040160405180910390fd5b845467ffffffffffffffff191660011785558315610c5757845460ff60401b1916600160401b1785555b6001600160a01b0387161580610c7457506001600160a01b038616155b15610c925760405163d92e233d60e01b815260040160405180910390fd5b610c9a611865565b610ca261186f565b610caa611865565b600780546001600160a01b0319166001600160a01b038916179055603c6002556050600355605a600455610e10600555610ce5600087611744565b50610cfe60008051602061247d83398151915287611744565b508315610d4557845460ff60401b19168555604051600181527fc7f505b2f371ae2175ee4913f4499e1f2633a7b5936321eed1cdaeb6115181d29060200160405180910390a15b50505050505050565b60008051602061247d833981519152610d6681611438565b6001600160a01b03821660009081526020819052604090205460ff1615610ee7576001600160a01b0382166000908152602081905260408120805460ff191690555b600154811015610ea257826001600160a01b031660018281548110610dcf57610dcf6122c2565b6000918252602090912001546001600160a01b031603610e9a5760018054610df89082906122d8565b81548110610e0857610e086122c2565b600091825260209091200154600180546001600160a01b039092169183908110610e3457610e346122c2565b9060005260206000200160006101000a8154816001600160a01b0302191690836001600160a01b031602179055506001805480610e7357610e736122eb565b600082815260209020810160001990810180546001600160a01b0319169055019055610ea2565b600101610da8565b50816001600160a01b03167f31b70ea6196d1f4d88b4be0ea12e482cecd7e4e951149bcb7020d6ac23fc091342604051610ede91815260200190565b60405180910390a25b5050565b610ef361187f565b610efc82611924565b610ee7828261193c565b6000610f106119fe565b5060008051602061243d83398151915290565b60018181548110610f3357600080fd5b6000918252602090912001546001600160a01b0316905081565b60606001805480602002602001604051908101604052809291908181526020018280548015610fa557602002820191906000526020600020905b81546001600160a01b03168152600190910190602001808311610f87575b5050505050905090565b600091825260008051602061245d833981519152602090815260408084206001600160a01b0393909316845291905290205460ff1690565b60008051602061247d833981519152610fff81611438565b6001600160a01b0382166110265760405163d92e233d60e01b815260040160405180910390fd5b6001600160a01b03821660009081526020819052604090205460ff16610ee7576001600160a01b038216600081815260208181526040808320805460ff191660019081179091558054808201825593527fb10e2d527612073b26eecdfd717e6a320cf44b4afac2b0732d9fcbe2b7fa0cf690920180546001600160a01b0319168417905590514281527f93f90378f5d21826317bab371b39ff4f26d895cc5ebf575aec3406e9ae6855649101610ede565b6110e0826109c0565b6110e981611438565b6109fe83836117e9565b60008051602061247d83398151915261110b81611438565b50600555565b60095460609060008184116111265783611128565b815b905060008167ffffffffffffffff81111561114557611145611eea565b6040519080825280602002602001820160405280156111b857816020015b6111a56040518060c00160405280600081526020016060815260200160008152602001606081526020016000815260200160006001600160a01b031681525090565b8152602001906001900390816111635790505b50905060005b82811015611383576009816111d385876122d8565b6111dd919061211f565b815481106111ed576111ed6122c2565b90600052602060002090600602016040518060c00160405290816000820154815260200160018201805461122090612132565b80601f016020809104026020016040519081016040528092919081815260200182805461124c90612132565b80156112995780601f1061126e57610100808354040283529160200191611299565b820191906000526020600020905b81548152906001019060200180831161127c57829003601f168201915b50505050508152602001600282015481526020016003820180546112bc90612132565b80601f01602080910402602001604051908101604052809291908181526020018280546112e890612132565b80156113355780601f1061130a57610100808354040283529160200191611335565b820191906000526020600020905b81548152906001019060200180831161131857829003601f168201915b5050509183525050600482015460208201526005909101546001600160a01b03166040909101528251839083908110611370576113706122c2565b60209081029190910101526001016111be565b50949350505050565b60008051602061247d8339815191526113a481611438565b82841015806113b35750818310155b806113be5750606482115b156113dc57604051632e83089360e11b815260040160405180910390fd5b60028490556003839055600482905560408051858152602081018590529081018390524260608201527f8a9ad82f8e5ca7c651da1f118b2d5db2c46666c88b9625d814eeac7ef67e628a9060800160405180910390a150505050565b6114428133611a47565b50565b7f9b779b17422d0df92223018b32b4d1fa46e071723d6817e2486d003becc55f0080546001190161148957604051633ee5aeb560e01b815260040160405180910390fd5b60029055565b600760009054906101000a90046001600160a01b03166001600160a01b03166351858e276040518163ffffffff1660e01b8152600401600060405180830381600087803b1580156114df57600080fd5b505af11580156114f3573d6000803e3d6000fd5b505050507f1f06d1c53e761120313d97ab051c90a68e34d4f98735a9480f18b2ba3c9d0dd082824260405161152a93929190612301565b60405180910390a1605f821015801561154d57506008546001600160a01b031615155b15610ee757600854600754604051632bb790b760e01b81526001600160a01b0392831692632bb790b79261158d928692909116908790839060040161232a565b6020604051808303816000875af19250505080156115c8575060408051601f3d908101601f191682019092526115c5918101906123ce565b60015b15610ee757505050565b60075460408051634617a93760e01b815290516000926001600160a01b031691634617a9379160048083019260209291908290030181865afa15801561161c573d6000803e3d6000fd5b505050506040513d601f19601f8201168201806040525081019061164091906123ce565b9050600060646116518360966123e7565b61165b91906123fe565b905061138881111561166c57506113885b610bb881101561167b5750610bb85b60075460405163379fcfa560e11b8152600481018390526001600160a01b0390911690636f3f9f4a90602401600060405180830381600087803b1580156116c157600080fd5b505af11580156116d5573d6000803e3d6000fd5b50506040805185815260208101859052428183015290517ff880f277a84c1521f304f4a8b36fd0ae67d7848e992f90c33e3b5fcea86d05bc9350908190036060019150a1505050565b60017f9b779b17422d0df92223018b32b4d1fa46e071723d6817e2486d003becc55f0055565b600060008051602061245d83398151915261175f8484610faf565b6117df576000848152602082815260408083206001600160a01b03871684529091529020805460ff191660011790556117953390565b6001600160a01b0316836001600160a01b0316857f2f8788117e7eff1d82e926ec794901d17c78024a50270940304540a733656f0d60405160405180910390a4600191505061067f565b600091505061067f565b600060008051602061245d8339815191526118048484610faf565b156117df576000848152602082815260408083206001600160a01b0387168085529252808320805460ff1916905551339287917ff6391f5c32d9c69d2a47ea670b442974b53935d1edc7fd64eb21e047a839171b9190a4600191505061067f565b61186d611a80565b565b611877611a80565b61186d611ac9565b306001600160a01b037f000000000000000000000000000000000000000000000000000000000000000016148061190657507f00000000000000000000000000000000000000000000000000000000000000006001600160a01b03166118fa60008051602061243d833981519152546001600160a01b031690565b6001600160a01b031614155b1561186d5760405163703e46dd60e11b815260040160405180910390fd5b60008051602061247d833981519152610ee781611438565b816001600160a01b03166352d1902d6040518163ffffffff1660e01b8152600401602060405180830381865afa925050508015611996575060408051601f3d908101601f19168201909252611993918101906123ce565b60015b6119c357604051634c9c8ce360e01b81526001600160a01b03831660048201526024015b60405180910390fd5b60008051602061243d83398151915281146119f457604051632a87526960e21b8152600481018290526024016119ba565b610b998383611ad1565b306001600160a01b037f0000000000000000000000000000000000000000000000000000000000000000161461186d5760405163703e46dd60e11b815260040160405180910390fd5b611a518282610faf565b610ee75760405163e2517d3f60e01b81526001600160a01b0382166004820152602481018390526044016119ba565b7ff0c57e16840df040f15088dc2f81fe391c3923bec73e23a9662efc9c229c6a0054600160401b900460ff1661186d57604051631afcd79f60e31b815260040160405180910390fd5b61171e611a80565b611ada82611b27565b6040516001600160a01b038316907fbc7cd75a20ee27fd9adebab32041f755214dbc6bffa90cc0225b39da2e5c2d3b90600090a2805115611b1f57610b998282611b8c565b610ee7611c02565b806001600160a01b03163b600003611b5d57604051634c9c8ce360e01b81526001600160a01b03821660048201526024016119ba565b60008051602061243d83398151915280546001600160a01b0319166001600160a01b0392909216919091179055565b6060600080846001600160a01b031684604051611ba99190612420565b600060405180830381855af49150503d8060008114611be4576040519150601f19603f3d011682016040523d82523d6000602084013e611be9565b606091505b5091509150611bf9858383611c21565b95945050505050565b341561186d5760405163b398979f60e01b815260040160405180910390fd5b606082611c3657611c3182611c80565b611c79565b8151158015611c4d57506001600160a01b0384163b155b15611c7657604051639996b31560e01b81526001600160a01b03851660048201526024016119ba565b50805b9392505050565b805115611c905780518082602001fd5b604051630a12f52160e11b815260040160405180910390fd5b600060208284031215611cbb57600080fd5b81356001600160e01b031981168114611c7957600080fd5b80356001600160a01b0381168114611cea57600080fd5b919050565b600060208284031215611d0157600080fd5b611c7982611cd3565b60008083601f840112611d1c57600080fd5b50813567ffffffffffffffff811115611d3457600080fd5b602083019150836020828501011115611d4c57600080fd5b9250929050565b60008060008060008060808789031215611d6c57600080fd5b86359550602087013567ffffffffffffffff80821115611d8b57600080fd5b611d978a838b01611d0a565b9097509550604089013594506060890135915080821115611db757600080fd5b50611dc489828a01611d0a565b979a9699509497509295939492505050565b600060208284031215611de857600080fd5b5035919050565b60008060408385031215611e0257600080fd5b82359150611e1260208401611cd3565b90509250929050565b60005b83811015611e36578181015183820152602001611e1e565b50506000910152565b60008151808452611e57816020860160208601611e1b565b601f01601f19169290920160200192915050565b86815260c060208201526000611e8460c0830188611e3f565b8660408401528281036060840152611e9c8187611e3f565b608084019590955250506001600160a01b039190911660a090910152949350505050565b60008060408385031215611ed357600080fd5b611edc83611cd3565b9150611e1260208401611cd3565b634e487b7160e01b600052604160045260246000fd5b60008060408385031215611f1357600080fd5b611f1c83611cd3565b9150602083013567ffffffffffffffff80821115611f3957600080fd5b818501915085601f830112611f4d57600080fd5b813581811115611f5f57611f5f611eea565b604051601f8201601f19908116603f01168101908382118183101715611f8757611f87611eea565b81604052828152886020848701011115611fa057600080fd5b8260208601602083013760006020848301015280955050505050509250929050565b6020808252825182820181905260009190848201906040850190845b818110156120035783516001600160a01b031683529284019291840191600101611fde565b50909695505050505050565b602081526000611c796020830184611e3f565b600060208083018184528085518083526040925060408601915060408160051b87010184880160005b838110156120cf57603f19898403018552815160c08151855288820151818a87015261207982870182611e3f565b91505087820151888601526060808301518683038288015261209b8382611e3f565b6080858101519089015260a0948501516001600160a01b03169490970193909352505050938601939086019060010161204b565b509098975050505050505050565b6000806000606084860312156120f257600080fd5b505081359360208301359350604090920135919050565b634e487b7160e01b600052601160045260246000fd5b8082018082111561067f5761067f612109565b600181811c9082168061214657607f821691505b60208210810361216657634e487b7160e01b600052602260045260246000fd5b50919050565b601f821115610b99576000816000526020600020601f850160051c810160208610156121955750805b601f850160051c820191505b818110156109b8578281556001016121a1565b815167ffffffffffffffff8111156121ce576121ce611eea565b6121e2816121dc8454612132565b8461216c565b602080601f83116001811461221757600084156121ff5750858301515b600019600386901b1c1916600185901b1785556109b8565b600085815260208120601f198616915b8281101561224657888601518255948401946001909101908401612227565b50858210156122645787850151600019600388901b60f8161c191681555b5050505050600190811b01905550565b60808152846080820152848660a0830137600060a086830181019190915260208201949094526001600160a01b039290921660408301526060820152601f909201601f191690910101919050565b634e487b7160e01b600052603260045260246000fd5b8181038181111561067f5761067f612109565b634e487b7160e01b600052603160045260246000fd5b83815260606020820152600061231a6060830185611e3f565b9050826040830152949350505050565b60c08152602a60c08201527f437269746963616c205269736b3a20456d657267656e637920526573706f6e7360e082015269194814995c5d5a5c995960b21b610100820152600061012080602084015261238681840188611e3f565b6001600160a01b0387166040850152838103606085018190526000825260808501879052602090810160a08601529091506123c390820185611e3f565b979650505050505050565b6000602082840312156123e057600080fd5b5051919050565b808202811582820484141761067f5761067f612109565b60008261241b57634e487b7160e01b600052601260045260246000fd5b500490565b60008251612432818460208701611e1b565b919091019291505056fe360894a13ba1a3210667c828492db98dca3e2076cc3735a920a3ca505d382bbc02dd7bc7dec4dceedda775e58dd541e08a116c6c53815c0bd028192f7b626800a49807205ce4d355092ef5a8a18f56e8913cf4a201fbe287825b095693c21775a2646970667358221220efb0f19f681124024ab46ee78a27520a559ca2c158e75f0ff2d6cd2bafeab66a64736f6c63430008180033",
  "linkReferences": {},
  "deployedLinkReferences": {}
}