{
  "_format": "hh-sol-artifact-1",
  "contractName": "PredictionMarket",
  "sourceName": "contracts/PredictionMarket.sol",
  "abi": [
    {
      "inputs": [],
      "stateMutability": "nonpayable",
      "type": "constructor"
    },
    {
      "inputs": [],
      "name": "AccessControlBadConfirmation",
      "type": "error"
    },
    {
      "inputs": [
        {
          "internalType": "address",
          "name": "account",
          "type": "address"
        },
        {
          "internalType": "bytes32",
          "name": "neededRole",
          "type": "bytes32"
        }
      ],
      "name": "AccessControlUnauthorizedAccount",
      "type": "error"
    },
    {
      "inputs": [
        {
          "internalType": "address",
          "name": "target",
          "type": "address"
        }
      ],
      "name": "AddressEmptyCode",
      "type": "error"
    },
    {
      "inputs": [],
      "name": "AlreadyClaimed",
      "type": "error"
    },
    {
      "inputs": [],
      "name": "AlreadyParticipated",
      "type": "error"
    },
    {
      "inputs": [],
      "name": "DisputePeriodExpired",
      "type": "error"
    },
    {
      "inputs": [
        {
          "internalType": "address",
          "name": "implementation",
          "type": "address"
        }
      ],
      "name": "ERC1967InvalidImplementation",
      "type": "error"
    },
    {
      "inputs": [],
      "name": "ERC1967NonPayable",
      "type": "error"
    },
    {
      "inputs": [],
      "name": "FailedInnerCall",
      "type": "error"
    },
    {
      "inputs": [],
      "name": "InsufficientFees",
      "type": "error"
    },
    {
      "inputs": [],
      "name": "InsufficientStake",
      "type": "error"
    },
    {
      "inputs": [],
      "name": "InvalidDuration",
      "type": "error"
    },
    {
      "inputs": [],
      "name": "InvalidInitialization",
      "type": "error"
    },
    {
      "inputs": [],
      "name": "InvalidMarketStatus",
      "type": "error"
    },
    {
      "inputs": [],
      "name": "InvalidOutcomeCount",
      "type": "error"
    },
    {
      "inputs": [],
      "name": "InvalidOutcomeIndex",
      "type": "error"
    },
    {
      "inputs": [],
      "name": "InvalidPlatformFee",
      "type": "error"
    },
    {
      "inputs": [],
      "name": "InvalidWorldIDProof",
      "type": "error"
    },
    {
      "inputs": [],
      "name": "MarketNotActive",
      "type": "error"
    },
    {
      "inputs": [],
      "name": "MarketNotEnded",
      "type": "error"
    },
    {
      "inputs": [],
      "name": "MarketNotFound",
      "type": "error"
    },
    {
      "inputs": [],
      "name": "MarketNotSettled",
      "type": "error"
    },
    {
      "inputs": [],
      "name": "NotInitializing",
      "type": "error"
    },
    {
      "inputs": [],
      "name": "NotParticipant",
      "type": "error"
    },
    {
      "inputs": [],
      "name": "NotResolver",
      "type": "error"
    },
    {
      "inputs": [],
      "name": "NotWinningOutcome",
      "type": "error"
    },
    {
      "inputs": [],
      "name": "NullifierAlreadyUsed",
      "type": "error"
    },
    {
      "inputs": [],
      "name": "ReentrancyGuardReentrantCall",
      "type": "error"
    },
    {
      "inputs": [],
      "name": "TransferFailed",
      "type": "error"
    },
    {
      "inputs": [],
      "name": "UUPSUnauthorizedCallContext",
      "type": "error"
    },
    {
      "inputs": [
        {
          "internalType": "bytes32",
          "name": "slot",
          "type": "bytes32"
        }
      ],
      "name": "UUPSUnsupportedProxiableUUID",
      "type": "error"
    },
    {
      "anonymous": false,
      "inputs": [
        {
          "indexed": false,
          "internalType": "uint64",
          "name": "version",
          "type": "uint64"
        }
      ],
      "name": "Initialized",
      "type": "event"
    },
    {
      "anonymous": false,
      "inputs": [
        {
          "indexed": true,
          "internalType": "uint256",
          "name": "marketId",
          "type": "uint256"
        },
        {
          "indexed": false,
          "internalType": "uint256",
          "name": "timestamp",
          "type": "uint256"
        }
      ],
      "name": "MarketClosed",
      "type": "event"
    },
    {
      "anonymous": false,
      "inputs": [
        {
          "indexed": true,
          "internalType": "uint256",
          "name": "marketId",
          "type": "uint256"
        },
        {
          "indexed": true,
          "internalType": "address",
          "name": "creator",
          "type": "address"
        },
        {
          "indexed": false,
          "internalType": "string",
          "name": "question",
          "type": "string"
        },
        {
          "indexed": false,
          "internalType": "uint256",
          "name": "endTime",
          "type": "uint256"
        }
      ],
      "name": "MarketCreated",
      "type": "event"
    },
    {
      "anonymous": false,
      "inputs": [
        {
          "indexed": true,
          "internalType": "uint256",
          "name": "marketId",
          "type": "uint256"
        },
        {
          "indexed": true,
          "internalType": "address",
          "name": "disputant",
          "type": "address"
        },
        {
          "indexed": false,
          "internalType": "string",
          "name": "reason",
          "type": "string"
        }
      ],
      "name": "MarketDisputed",
      "type": "event"
    },
    {
      "anonymous": false,
      "inputs": [
        {
          "indexed": true,
          "internalType": "uint256",
          "name": "marketId",
          "type": "uint256"
        },
        {
          "indexed": true,
          "internalType": "address",
          "name": "participant",
          "type": "address"
        },
        {
          "indexed": false,
          "internalType": "uint256",
          "name": "outcomeIndex",
          "type": "uint256"
        },
        {
          "indexed": false,
          "internalType": "uint256",
          "name": "stakeAmount",
          "type": "uint256"
        }
      ],
      "name": "MarketParticipation",
      "type": "event"
    },
    {
      "anonymous": false,
      "inputs": [
        {
          "indexed": true,
          "internalType": "uint256",
          "name": "marketId",
          "type": "uint256"
        },
        {
          "indexed": false,
          "internalType": "uint256",
          "name": "winningOutcome",
          "type": "uint256"
        },
        {
          "indexed": false,
          "internalType": "string",
          "name": "resolutionData",
          "type": "string"
        },
        {
          "indexed": false,
          "internalType": "uint256",
          "name": "timestamp",
          "type": "uint256"
        }
      ],
      "name": "MarketSettled",
      "type": "event"
    },
    {
      "anonymous": false,
      "inputs": [
        {
          "indexed": true,
          "internalType": "address",
          "name": "resolver",
          "type": "address"
        }
      ],
      "name": "ResolverAuthorized",
      "type": "event"
    },
    {
      "anonymous": false,
      "inputs": [
        {
          "indexed": true,
          "internalType": "address",
          "name": "resolver",
          "type": "address"
        }
      ],
      "name": "ResolverRevoked",
      "type": "event"
    },
    {
      "anonymous": false,
      "inputs": [
        {
          "indexed": true,
          "internalType": "bytes32",
          "name": "role",
          "type": "bytes32"
        },
        {
          "indexed": true,
          "internalType": "bytes32",
          "name": "previousAdminRole",
          "type": "bytes32"
        },
        {
          "indexed": true,
          "internalType": "bytes32",
          "name": "newAdminRole",
          "type": "bytes32"
        }
      ],
      "name": "RoleAdminChanged",
      "type": "event"
    },
    {
      "anonymous": false,
      "inputs": [
        {
          "indexed": true,
          "internalType": "bytes32",
          "name": "role",
          "type": "bytes32"
        },
        {
          "indexed": true,
          "internalType": "address",
          "name": "account",
          "type": "address"
        },
        {
          "indexed": true,
          "internalType": "address",
          "name": "sender",
          "type": "address"
        }
      ],
      "name": "RoleGranted",
      "type": "event"
    },
    {
      "anonymous": false,
      "inputs": [
        {
          "indexed": true,
          "internalType": "bytes32",
          "name": "role",
          "type": "bytes32"
        },
        {
          "indexed": true,
          "internalType": "address",
          "name": "account",
          "type": "address"
        },
        {
          "indexed": true,
          "internalType": "address",
          "name": "sender",
          "type": "address"
        }
      ],
      "name": "RoleRevoked",
      "type": "event"
    },
    {
      "anonymous": false,
      "inputs": [
        {
          "indexed": true,
          "internalType": "address",
          "name": "implementation",
          "type": "address"
        }
      ],
      "name": "Upgraded",
      "type": "event"
    },
    {
      "anonymous": false,
      "inputs": [
        {
          "indexed": true,
          "internalType": "uint256",
          "name": "marketId",
          "type": "uint256"
        },
        {
          "indexed": true,
          "internalType": "address",
          "name": "participant",
          "type": "address"
        },
        {
          "indexed": false,
          "internalType": "uint256",
          "name": "payout",
          "type": "uint256"
        }
      ],
      "name": "WinningsClaimed",
      "type": "event"
    },
    {
      "inputs": [],
      "name": "ADMIN_ROLE",
      "outputs": [
        {
          "internalType": "bytes32",
          "name": "",
          "type": "bytes32"
        }
      ],
      "stateMutability": "view",
      "type": "function"
    },
    {
      "inputs": [],
      "name": "CRE_ROLE",
      "outputs": [
        {
          "internalType": "bytes32",
          "name": "",
          "type": "bytes32"
        }
      ],
      "stateMutability": "view",
      "type": "function"
    },
    {
      "inputs": [],
      "name": "DEFAULT_ADMIN_ROLE",
      "outputs": [
        {
          "internalType": "bytes32",
          "name": "",
          "type": "bytes32"
        }
      ],
      "stateMutability": "view",
      "type": "function"
    },
    {
      "inputs": [],
      "name": "DISPUTE_WINDOW",
      "outputs": [
        {
          "internalType": "uint256",
          "name": "",
          "type": "uint256"
        }
      ],
      "stateMutability": "view",
      "type": "function"
    },
    {
      "inputs": [],
      "name": "MAX_DURATION",
      "outputs": [
        {
          "internalType": "uint256",
          "name": "",
          "type": "uint256"
        }
      ],
      "stateMutability": "view",
      "type": "function"
    },
    {
      "inputs": [],
      "name": "MAX_FEE",
      "outputs": [
        {
          "internalType": "uint256",
          "name": "",
          "type": "uint256"
        }
      ],
      "stateMutability": "view",
      "type": "function"
    },
    {
      "inputs": [],
      "name": "MAX_OUTCOMES",
      "outputs": [
        {
          "internalType": "uint256",
          "name": "",
          "type": "uint256"
        }
      ],
      "stateMutability": "view",
      "type": "function"
    },
    {
      "inputs": [],
      "name": "MIN_DURATION",
      "outputs": [
        {
          "internalType": "uint256",
          "name": "",
          "type": "uint256"
        }
      ],
      "stateMutability": "view",
      "type": "function"
    },
    {
      "inputs": [],
      "name": "UPGRADE_INTERFACE_VERSION",
      "outputs": [
        {
          "internalType": "string",
          "name": "",
          "type": "string"
        }
      ],
      "stateMutability": "view",
      "type": "function"
    },
    {
      "inputs": [],
      "name": "accumulatedFees",
      "outputs": [
        {
          "internalType": "uint256",
          "name": "",
          "type": "uint256"
        }
      ],
      "stateMutability": "view",
      "type": "function"
    },
    {
      "inputs": [
        {
          "internalType": "address",
          "name": "resolver",
          "type": "address"
        }
      ],
      "name": "authorizeResolver",
      "outputs": [],
      "stateMutability": "nonpayable",
      "type": "function"
    },
    {
      "inputs": [
        {
          "internalType": "address",
          "name": "",
          "type": "address"
        }
      ],
      "name": "authorizedResolvers",
      "outputs": [
        {
          "internalType": "bool",
          "name": "",
          "type": "bool"
        }
      ],
      "stateMutability": "view",
      "type": "function"
    },
    {
      "inputs": [
        {
          "internalType": "uint256",
          "name": "marketId",
          "type": "uint256"
        }
      ],
      "name": "claimWinnings",
      "outputs": [
        {
          "internalType": "uint256",
          "name": "payout",
          "type": "uint256"
        }
      ],
      "stateMutability": "nonpayable",
      "type": "function"
    },
    {
      "inputs": [
        {
          "internalType": "uint256",
          "name": "marketId",
          "type": "uint256"
        }
      ],
      "name": "closeMarket",
      "outputs": [],
      "stateMutability": "nonpayable",
      "type": "function"
    },
    {
      "inputs": [
        {
          "internalType": "string",
          "name": "question",
          "type": "string"
        },
        {
          "internalType": "string[]",
          "name": "outcomes",
          "type": "string[]"
        },
        {
          "internalType": "uint256",
          "name": "duration",
          "type": "uint256"
        },
        {
          "internalType": "uint256",
          "name": "merkleRoot",
          "type": "uint256"
        },
        {
          "internalType": "uint256",
          "name": "nullifierHash",
          "type": "uint256"
        },
        {
          "internalType": "uint256[8]",
          "name": "proof",
          "type": "uint256[8]"
        }
      ],
      "name": "createMarket",
      "outputs": [
        {
          "internalType": "uint256",
          "name": "marketId",
          "type": "uint256"
        }
      ],
      "stateMutability": "payable",
      "type": "function"
    },
    {
      "inputs": [
        {
          "internalType": "uint256",
          "name": "marketId",
          "type": "uint256"
        },
        {
          "internalType": "string",
          "name": "reason",
          "type": "string"
        }
      ],
      "name": "disputeMarket",
      "outputs": [],
      "stateMutability": "nonpayable",
      "type": "function"
    },
    {
      "inputs": [],
      "name": "externalNullifierHash",
      "outputs": [
        {
          "internalType": "uint256",
          "name": "",
          "type": "uint256"
        }
      ],
      "stateMutability": "view",
      "type": "function"
    },
    {
      "inputs": [],
      "name": "feeRecipient",
      "outputs": [
        {
          "internalType": "address",
          "name": "",
          "type": "address"
        }
      ],
      "stateMutability": "view",
      "type": "function"
    },
    {
      "inputs": [
        {
          "internalType": "uint256",
          "name": "marketId",
          "type": "uint256"
        }
      ],
      "name": "getMarket",
      "outputs": [
        {
          "internalType": "address",
          "name": "creator",
          "type": "address"
        },
        {
          "internalType": "string",
          "name": "question",
          "type": "string"
        },
        {
          "internalType": "string[]",
          "name": "outcomes",
          "type": "string[]"
        },
        {
          "internalType": "uint256",
          "name": "endTime",
          "type": "uint256"
        },
        {
          "internalType": "enum PredictionMarket.MarketStatus",
          "name": "status",
          "type": "uint8"
        },
        {
          "internalType": "uint256",
          "name": "winningOutcome",
          "type": "uint256"
        },
        {
          "internalType": "uint256",
          "name": "totalStake",
          "type": "uint256"
        },
        {
          "internalType": "bool",
          "name": "exists",
          "type": "bool"
        }
      ],
      "stateMutability": "view",
      "type": "function"
    },
    {
      "inputs": [
        {
          "internalType": "uint256",
          "name": "marketId",
          "type": "uint256"
        }
      ],
      "name": "getMarketOutcomeStakes",
      "outputs": [
        {
          "internalType": "uint256[]",
          "name": "",
          "type": "uint256[]"
        }
      ],
      "stateMutability": "view",
      "type": "function"
    },
    {
      "inputs": [
        {
          "internalType": "uint256",
          "name": "marketId",
          "type": "uint256"
        }
      ],
      "name": "getMarketOutcomes",
      "outputs": [
        {
          "internalType": "string[]",
          "name": "",
          "type": "string[]"
        }
      ],
      "stateMutability": "view",
      "type": "function"
    },
    {
      "inputs": [
        {
          "internalType": "uint256",
          "name": "marketId",
          "type": "uint256"
        },
        {
          "internalType": "uint256",
          "name": "outcomeIndex",
          "type": "uint256"
        }
      ],
      "name": "getOutcomeStake",
      "outputs": [
        {
          "internalType": "uint256",
          "name": "",
          "type": "uint256"
        }
      ],
      "stateMutability": "view",
      "type": "function"
    },
    {
      "inputs": [
        {
          "internalType": "uint256",
          "name": "marketId",
          "type": "uint256"
        }
      ],
      "name": "getParticipantCount",
      "outputs": [
        {
          "internalType": "uint256",
          "name": "",
          "type": "uint256"
        }
      ],
      "stateMutability": "view",
      "type": "function"
    },
    {
      "inputs": [
        {
          "internalType": "uint256",
          "name": "marketId",
          "type": "uint256"
        }
      ],
      "name": "getParticipants",
      "outputs": [
        {
          "internalType": "address[]",
          "name": "",
          "type": "address[]"
        }
      ],
      "stateMutability": "view",
      "type": "function"
    },
    {
      "inputs": [
        {
          "internalType": "uint256",
          "name": "marketId",
          "type": "uint256"
        },
        {
          "internalType": "address",
          "name": "participant",
          "type": "address"
        }
      ],
      "name": "getParticipation",
      "outputs": [
        {
          "internalType": "uint256",
          "name": "outcomeIndex",
          "type": "uint256"
        },
        {
          "internalType": "uint256",
          "name": "stakeAmount",
          "type": "uint256"
        },
        {
          "internalType": "bool",
          "name": "claimed",
          "type": "bool"
        },
        {
          "internalType": "uint256",
          "name": "nullifierHash",
          "type": "uint256"
        }
      ],
      "stateMutability": "view",
      "type": "function"
    },
    {
      "inputs": [
        {
          "internalType": "bytes32",
          "name": "role",
          "type": "bytes32"
        }
      ],
      "name": "getRoleAdmin",
      "outputs": [
        {
          "internalType": "bytes32",
          "name": "",
          "type": "bytes32"
        }
      ],
      "stateMutability": "view",
      "type": "function"
    },
    {
      "inputs": [
        {
          "internalType": "bytes32",
          "name": "role",
          "type": "bytes32"
        },
        {
          "internalType": "address",
          "name": "account",
          "type": "address"
        }
      ],
      "name": "grantRole",
      "outputs": [],
      "stateMutability": "nonpayable",
      "type": "function"
    },
    {
      "inputs": [],
      "name": "groupId",
      "outputs": [
        {
          "internalType": "uint256",
          "name": "",
          "type": "uint256"
        }
      ],
      "stateMutability": "view",
      "type": "function"
    },
    {
      "inputs": [
        {
          "internalType": "bytes32",
          "name": "role",
          "type": "bytes32"
        },
        {
          "internalType": "address",
          "name": "account",
          "type": "address"
        }
      ],
      "name": "hasRole",
      "outputs": [
        {
          "internalType": "bool",
          "name": "",
          "type": "bool"
        }
      ],
      "stateMutability": "view",
      "type": "function"
    },
    {
      "inputs": [
        {
          "internalType": "address",
          "name": "_worldId",
          "type": "address"
        },
        {
          "internalType": "uint256",
          "name": "_externalNullifierHash",
          "type": "uint256"
        },
        {
          "internalType": "uint256",
          "name": "_groupId",
          "type": "uint256"
        },
        {
          "internalType": "uint256",
          "name": "_minimumStake",
          "type": "uint256"
        },
        {
          "internalType": "uint256",
          "name": "_platformFee",
          "type": "uint256"
        }
      ],
      "name": "initialize",
      "outputs": [],
      "stateMutability": "nonpayable",
      "type": "function"
    },
    {
      "inputs": [
        {
          "internalType": "uint256",
          "name": "marketId",
          "type": "uint256"
        },
        {
          "internalType": "uint256",
          "name": "nullifierHash",
          "type": "uint256"
        }
      ],
      "name": "isNullifierUsed",
      "outputs": [
        {
          "internalType": "bool",
          "name": "",
          "type": "bool"
        }
      ],
      "stateMutability": "view",
      "type": "function"
    },
    {
      "inputs": [],
      "name": "marketCount",
      "outputs": [
        {
          "internalType": "uint256",
          "name": "",
          "type": "uint256"
        }
      ],
      "stateMutability": "view",
      "type": "function"
    },
    {
      "inputs": [
        {
          "internalType": "uint256",
          "name": "",
          "type": "uint256"
        },
        {
          "internalType": "uint256",
          "name": "",
          "type": "uint256"
        }
      ],
      "name": "marketNullifiers",
      "outputs": [
        {
          "internalType": "bool",
          "name": "",
          "type": "bool"
        }
      ],
      "stateMutability": "view",
      "type": "function"
    },
    {
      "inputs": [
        {
          "internalType": "uint256",
          "name": "",
          "type": "uint256"
        }
      ],
      "name": "markets",
      "outputs": [
        {
          "internalType": "uint256",
          "name": "marketId",
          "type": "uint256"
        },
        {
          "internalType": "address",
          "name": "creator",
          "type": "address"
        },
        {
          "internalType": "string",
          "name": "question",
          "type": "string"
        },
        {
          "internalType": "uint256",
          "name": "endTime",
          "type": "uint256"
        },
        {
          "internalType": "uint256",
          "name": "resolutionTime",
          "type": "uint256"
        },
        {
          "internalType": "enum PredictionMarket.MarketStatus",
          "name": "status",
          "type": "uint8"
        },
        {
          "internalType": "uint256",
          "name": "winningOutcome",
          "type": "uint256"
        },
        {
          "internalType": "uint256",
          "name": "totalStake",
          "type": "uint256"
        },
        {
          "internalType": "bool",
          "name": "exists",
          "type": "bool"
        }
      ],
      "stateMutability": "view",
      "type": "function"
    },
    {
      "inputs": [],
      "name": "minimumStake",
      "outputs": [
        {
          "internalType": "uint256",
          "name": "",
          "type": "uint256"
        }
      ],
      "stateMutability": "view",
      "type": "function"
    },
    {
      "inputs": [
        {
          "internalType": "uint256",
          "name": "marketId",
          "type": "uint256"
        },
        {
          "internalType": "uint256",
          "name": "outcomeIndex",
          "type": "uint256"
        },
        {
          "internalType": "uint256",
          "name": "merkleRoot",
          "type": "uint256"
        },
        {
          "internalType": "uint256",
          "name": "nullifierHash",
          "type": "uint256"
        },
        {
          "internalType": "uint256[8]",
          "name": "proof",
          "type": "uint256[8]"
        }
      ],
      "name": "participateInMarket",
      "outputs": [],
      "stateMutability": "payable",
      "type": "function"
    },
    {
      "inputs": [
        {
          "internalType": "uint256",
          "name": "",
          "type": "uint256"
        },
        {
          "internalType": "address",
          "name": "",
          "type": "address"
        }
      ],
      "name": "participations",
      "outputs": [
        {
          "internalType": "uint256",
          "name": "outcomeIndex",
          "type": "uint256"
        },
        {
          "internalType": "uint256",
          "name": "stakeAmount",
          "type": "uint256"
        },
        {
          "internalType": "bool",
          "name": "claimed",
          "type": "bool"
        },
        {
          "internalType": "uint256",
          "name": "nullifierHash",
          "type": "uint256"
        }
      ],
      "stateMutability": "view",
      "type": "function"
    },
    {
      "inputs": [],
      "name": "platformFee",
      "outputs": [
        {
          "internalType": "uint256",
          "name": "",
          "type": "uint256"
        }
      ],
      "stateMutability": "view",
      "type": "function"
    },
    {
      "inputs": [],
      "name": "proxiableUUID",
      "outputs": [
        {
          "internalType": "bytes32",
          "name": "",
          "type": "bytes32"
        }
      ],
      "stateMutability": "view",
      "type": "function"
    },
    {
      "inputs": [
        {
          "internalType": "bytes32",
          "name": "role",
          "type": "bytes32"
        },
        {
          "internalType": "address",
          "name": "callerConfirmation",
          "type": "address"
        }
      ],
      "name": "renounceRole",
      "outputs": [],
      "stateMutability": "nonpayable",
      "type": "function"
    },
    {
      "inputs": [
        {
          "internalType": "address",
          "name": "resolver",
          "type": "address"
        }
      ],
      "name": "revokeResolver",
      "outputs": [],
      "stateMutability": "nonpayable",
      "type": "function"
    },
    {
      "inputs": [
        {
          "internalType": "bytes32",
          "name": "role",
          "type": "bytes32"
        },
        {
          "internalType": "address",
          "name": "account",
          "type": "address"
        }
      ],
      "name": "revokeRole",
      "outputs": [],
      "stateMutability": "nonpayable",
      "type": "function"
    },
    {
      "inputs": [
        {
          "internalType": "uint256",
          "name": "marketId",
          "type": "uint256"
        },
        {
          "internalType": "uint256",
          "name": "winningOutcome",
          "type": "uint256"
        },
        {
          "internalType": "string",
          "name": "resolutionData",
          "type": "string"
        }
      ],
      "name": "settleMarket",
      "outputs": [],
      "stateMutability": "nonpayable",
      "type": "function"
    },
    {
      "inputs": [
        {
          "internalType": "bytes4",
          "name": "interfaceId",
          "type": "bytes4"
        }
      ],
      "name": "supportsInterface",
      "outputs": [
        {
          "internalType": "bool",
          "name": "",
          "type": "bool"
        }
      ],
      "stateMutability": "view",
      "type": "function"
    },
    {
      "inputs": [
        {
          "internalType": "address",
          "name": "newRecipient",
          "type": "address"
        }
      ],
      "name": "updateFeeRecipient",
      "outputs": [],
      "stateMutability": "nonpayable",
      "type": "function"
    },
    {
      "inputs": [
        {
          "internalType": "uint256",
          "name": "newMinimumStake",
          "type": "uint256"
        }
      ],
      "name": "updateMinimumStake",
      "outputs": [],
      "stateMutability": "nonpayable",
      "type": "function"
    },
    {
      "inputs": [
        {
          "internalType": "uint256",
          "name": "newFee",
          "type": "uint256"
        }
      ],
      "name": "updatePlatformFee",
      "outputs": [],
      "stateMutability": "nonpayable",
      "type": "function"
    },
    {
      "inputs": [
        {
          "internalType": "address",
          "name": "newImplementation",
          "type": "address"
        },
        {
          "internalType": "bytes",
          "name": "data",
          "type": "bytes"
        }
      ],
      "name": "upgradeToAndCall",
      "outputs": [],
      "stateMutability": "payable",
      "type": "function"
    },
    {
      "inputs": [
        {
          "internalType": "address",
          "name": "to",
          "type": "address"
        },
        {
          "internalType": "uint256",
          "name": "amount",
          "type": "uint256"
        }
      ],
      "name": "withdrawFees",
      "outputs": [],
      "stateMutability": "nonpayable",
      "type": "function"
    },
    {
      "inputs": [],
      "name": "worldId",
      "outputs": [
        {
          "internalType": "contract IWorldID",
          "name": "",
          "type": "address"
        }
      ],
      "stateMutability": "view",
      "type": "function"
    }
  ],
  "bytecode": "0x60a0604052306080523480156200001557600080fd5b506200002062000026565b620000da565b7ff0c57e16840df040f15088dc2f81fe391c3923bec73e23a9662efc9c229c6a00805468010000000000000000900460ff1615620000775760405163f92ee8a960e01b815260040160405180910390fd5b80546001600160401b0390811614620000d75780546001600160401b0319166001600160401b0390811782556040519081527fc7f505b2f371ae2175ee4913f4499e1f2633a7b5936321eed1cdaeb6115181d29060200160405180910390a15b50565b608051612fcc62000104600039600081816120de01528181612107015261225a0152612fcc6000f3fe6080604052600436106102c95760003560e01c8063a0f44c9211610175578063c1e3bd3e116100dc578063e9c21a1511610095578063ec9790821161006f578063ec979082146109a3578063f160d369146109b9578063f585dc57146109d9578063f92ad219146109f057600080fd5b8063e9c21a15146108fd578063eb44fdd314610959578063ec5ffac21461098d57600080fd5b8063c1e3bd3e1461081d578063d547741f1461084a578063d794d2d91461086a578063d917760b1461089a578063dc73d164146108ad578063e6369837146108c257600080fd5b8063af7b718a1161012e578063af7b718a14610751578063b1283e7714610771578063b1724b46146107a6578063b6a6d177146107bd578063bc063e1a146107d3578063c033f677146107e957600080fd5b8063a0f44c9214610688578063a217fddf1461069e578063aa0b5988146106b3578063ad3b1b47146106d3578063ad3cb1cc146106f3578063ae4180951461073157600080fd5b80634c41e88011610234578063677bd9ff116101ed57806375b238fc116101c757806375b238fc146105db57806385c74296146105fd57806386ae5fec1461063857806391d148541461066857600080fd5b8063677bd9ff1461057b578063742fe0b91461059b578063753e9ef0146105bb57600080fd5b80634c41e880146104e75780634f1ef2861461050757806352d1902d1461051a578063587f5ed71461052f57806359dd06aa1461054557806362ee6a4c1461055b57600080fd5b80632f2ff15d116102865780632f2ff15d146103c357806334a6f730146103e357806336568abe146103f657806346904840146104165780634a2021ef1461044e5780634b64218b1461046e57600080fd5b806301ffc9a7146102ce57806312a3bf0e1461030357806323e543a914610330578063248a9ca31461035257806326232a2e146103805780632dd9c47414610396575b600080fd5b3480156102da57600080fd5b506102ee6102e936600461255e565b610a10565b60405190151581526020015b60405180910390f35b34801561030f57600080fd5b5061032361031e366004612588565b610a47565b6040516102fa919061264b565b34801561033c57600080fd5b5061035061034b3660046126a7565b610b36565b005b34801561035e57600080fd5b5061037261036d366004612588565b610c8e565b6040519081526020016102fa565b34801561038c57600080fd5b5061037260095481565b3480156103a257600080fd5b506103b66103b1366004612588565b610cb0565b6040516102fa91906126fa565b3480156103cf57600080fd5b506103506103de366004612755565b610d15565b6103726103f1366004612793565b610d37565b34801561040257600080fd5b50610350610411366004612755565b610ee8565b34801561042257600080fd5b50600a54610436906001600160a01b031681565b6040516001600160a01b0390911681526020016102fa565b34801561045a57600080fd5b50610350610469366004612862565b610f20565b34801561047a57600080fd5b506104c1610489366004612755565b600460209081526000928352604080842090915290825290208054600182015460028301546003909301549192909160ff9091169084565b6040805194855260208501939093529015159183019190915260608201526080016102fa565b3480156104f357600080fd5b50610350610502366004612588565b611051565b6103506105153660046128c4565b61106f565b34801561052657600080fd5b5061037261108e565b34801561053b57600080fd5b50610372600b5481565b34801561055157600080fd5b5061037260015481565b34801561056757600080fd5b50610350610576366004612986565b6110ab565b34801561058757600080fd5b50610372610596366004612588565b61110d565b3480156105a757600080fd5b506103726105b63660046129a1565b611388565b3480156105c757600080fd5b50600054610436906001600160a01b031681565b3480156105e757600080fd5b50610372600080516020612f7783398151915281565b34801561060957600080fd5b506102ee6106183660046129a1565b600091825260056020908152604080842092845291905290205460ff1690565b34801561064457600080fd5b50610372610653366004612588565b6000908152600360205260409020600a015490565b34801561067457600080fd5b506102ee610683366004612755565b6113be565b34801561069457600080fd5b5061037260025481565b3480156106aa57600080fd5b50610372600081565b3480156106bf57600080fd5b506103506106ce366004612588565b6113f6565b3480156106df57600080fd5b506103506106ee3660046129c3565b611437565b3480156106ff57600080fd5b50610724604051806040016040528060058152602001640352e302e360dc1b81525081565b6040516102fa91906129ed565b34801561073d57600080fd5b5061035061074c366004612588565b6114fb565b34801561075d57600080fd5b5061035061076c366004612986565b6115d4565b34801561077d57600080fd5b5061079161078c366004612588565b611687565b6040516102fa99989796959493929190612a38565b3480156107b257600080fd5b5061037262278d0081565b3480156107c957600080fd5b50610372610e1081565b3480156107df57600080fd5b506103726103e881565b3480156107f557600080fd5b506103727f4e9fb4542c51584eec8e841667c7f0078908f626adbbbfcd019638ee800d61a981565b34801561082957600080fd5b5061083d610838366004612588565b611768565b6040516102fa9190612aa2565b34801561085657600080fd5b50610350610865366004612755565b6117d6565b34801561087657600080fd5b506102ee610885366004612986565b60076020526000908152604090205460ff1681565b6103506108a8366004612ae3565b6117f2565b3480156108b957600080fd5b50610372600a81565b3480156108ce57600080fd5b506102ee6108dd3660046129a1565b600560209081526000928352604080842090915290825290205460ff1681565b34801561090957600080fd5b506104c1610918366004612755565b60009182526004602090815260408084206001600160a01b0393909316845291905290208054600182015460028301546003909301549193909260ff169190565b34801561096557600080fd5b50610979610974366004612588565b611ab1565b6040516102fa989796959493929190612b2e565b34801561099957600080fd5b5061037260085481565b3480156109af57600080fd5b5061037260065481565b3480156109c557600080fd5b506103506109d4366004612986565b611ca2565b3480156109e557600080fd5b5061037262093a8081565b3480156109fc57600080fd5b50610350610a0b366004612b9e565b611d27565b60006001600160e01b03198216637965db0b60e01b1480610a4157506301ffc9a760e01b6001600160e01b03198316145b92915050565b606060036000838152602001908152602001600020600301805480602002602001604051908101604052809291908181526020016000905b82821015610b2b578382906000526020600020018054610a9e90612be0565b80601f0160208091040260200160405190810160405280929190818152602001828054610aca90612be0565b8015610b175780601f10610aec57610100808354040283529160200191610b17565b820191906000526020600020905b815481529060010190602001808311610afa57829003601f168201915b505050505081526020019060010190610a7f565b505050509050919050565b3360009081526007602052604090205460ff16158015610b7d5750610b7b7f4e9fb4542c51584eec8e841667c7f0078908f626adbbbfcd019638ee800d61a9336113be565b155b15610b9b57604051635d154fe160e11b815260040160405180910390fd5b6000848152600360205260409020600b81015460ff16610bce576040516307db1be560e41b815260040160405180910390fd5b6002600682015460ff166004811115610be957610be9612a00565b14610c07576040516356d85b9f60e01b815260040160405180910390fd5b60038101548410610c2b5760405163bdc9571560e01b815260040160405180910390fd5b6007810184905560068101805460ff19166003179055426005820181905560405186917fe48599dcfdca435f0318e0e411186d79bdedde59af471750b0f00182c68ce5f991610c7f91889188918891612c43565b60405180910390a25050505050565b6000908152600080516020612f37833981519152602052604090206001015490565b600081815260036020908152604091829020600901805483518184028101840190945280845260609392830182828015610d0957602002820191906000526020600020905b815481526020019060010190808311610cf5575b50505050509050919050565b610d1e82610c8e565b610d2781611f23565b610d318383611f30565b50505050565b6000610d44848484611fd5565b6002861080610d535750600a86115b15610d715760405163162cc9e360e11b815260040160405180910390fd5b610e10851080610d83575062278d0085115b15610da157604051637616640160e01b815260040160405180910390fd5b60068054906000610db183612c84565b9091555060008181526003602052604090208181556001810180546001600160a01b0319163317905590915060028101610dec8a8c83612ced565b50610df78642612dad565b600482015560068101805460ff19908116909155600b82018054909116600117905560005b87811015610e905781600301898983818110610e3a57610e3a612dc0565b9050602002810190610e4c9190612dd6565b82546001810184556000938452602090932090920191610e6c9183612ced565b50600982018054600181810183556000928352602083209091019190915501610e1c565b50336001600160a01b0316827f03e783e31593f59fda73a59d05e2525d610a533995cce4d4750186c3b6bf80bb8c8c8560040154604051610ed393929190612e1d565b60405180910390a35098975050505050505050565b6001600160a01b0381163314610f115760405163334bd91960e11b815260040160405180910390fd5b610f1b8282612057565b505050565b6000838152600360205260409020600b81015460ff16610f53576040516307db1be560e41b815260040160405180910390fd5b6003600682015460ff166004811115610f6e57610f6e612a00565b14610f8c576040516356d85b9f60e01b815260040160405180910390fd5b600084815260046020908152604080832033845290915281206001810154909103610fca5760405163721c7c6760e11b815260040160405180910390fd5b62093a808260050154610fdd9190612dad565b421115610ffd57604051630435161560e51b815260040160405180910390fd5b60068201805460ff19166004179055604051339086907ff20590b2cb9af0bb070ad77de2c0b74db291dd43666e7a386ffb0e65974b050a906110429088908890612e41565b60405180910390a35050505050565b600080516020612f7783398151915261106981611f23565b50600855565b6110776120d3565b6110808261217a565b61108a8282612192565b5050565b600061109861224f565b50600080516020612f1783398151915290565b600080516020612f778339815191526110c381611f23565b6001600160a01b038216600081815260076020526040808220805460ff19169055517f6cc76de175eb7c3679f8d4c3529e23883784a40e1f9d7f54e8a9f97115aab3479190a25050565b6000611117612298565b6000828152600360205260409020600b81015460ff1661114a576040516307db1be560e41b815260040160405180910390fd5b6003600682015460ff16600481111561116557611165612a00565b1461118357604051630ff84df760e11b815260040160405180910390fd5b6000838152600460209081526040808320338452909152812060018101549091036111c15760405163721c7c6760e11b815260040160405180910390fd5b600281015460ff16156111e757604051630c8d9eab60e31b815260040160405180910390fd5b600782015481541461120c5760405163047bb04160e01b815260040160405180910390fd5b60008260090183600701548154811061122757611227612dc0565b90600052602060002001549050806000036112555760405163047bb04160e01b815260040160405180910390fd5b808360080154836001015461126a9190612e5d565b6112749190612e74565b93506000612710600954866112899190612e5d565b6112939190612e74565b905061129f8186612e96565b945080600b60008282546112b39190612dad565b909155505060028301805460ff19166001179055604051600090339087908381818185875af1925050503d8060008114611309576040519150601f19603f3d011682016040523d82523d6000602084013e61130e565b606091505b5050905080611330576040516312171d8360e31b815260040160405180910390fd5b604051868152339088907f5380cf6fe903b40c6d5a9e0dfbca2f3a423f0a21520b4d5947ed5169bdba946d9060200160405180910390a350505050506113836001600080516020612f5783398151915255565b919050565b60008281526003602052604081206009018054839081106113ab576113ab612dc0565b9060005260206000200154905092915050565b6000918252600080516020612f37833981519152602090815260408084206001600160a01b0393909316845291905290205460ff1690565b600080516020612f7783398151915261140e81611f23565b6103e88211156114315760405163183440b760e31b815260040160405180910390fd5b50600955565b600080516020612f7783398151915261144f81611f23565b600b5482111561147257604051638d53e55360e01b815260040160405180910390fd5b81600b60008282546114849190612e96565b90915550506040516000906001600160a01b0385169084908381818185875af1925050503d80600081146114d4576040519150601f19603f3d011682016040523d82523d6000602084013e6114d9565b606091505b5050905080610d31576040516312171d8360e31b815260040160405180910390fd5b6000818152600360205260409020600b81015460ff1661152e576040516307db1be560e41b815260040160405180910390fd5b6000600682015460ff16600481111561154957611549612a00565b1461156757604051635a90bb8d60e11b815260040160405180910390fd5b806004015442101561158c576040516302d56b1d60e21b815260040160405180910390fd5b60068101805460ff1916600217905560405142815282907fca574a2a0ef315b41f7e803c5534dcfe30424bdfc5896ad1c291d74e372e186e9060200160405180910390a25050565b600080516020612f778339815191526115ec81611f23565b6001600160a01b03821661163a5760405162461bcd60e51b815260206004820152601060248201526f24b73b30b634b2103932b9b7b63b32b960811b60448201526064015b60405180910390fd5b6001600160a01b038216600081815260076020526040808220805460ff19166001179055517f2c3901e3fb770eb03de86a9d260bd78efb1582f427318c892172df56e31981199190a25050565b60036020526000908152604090208054600182015460028301805492936001600160a01b03909216926116b990612be0565b80601f01602080910402602001604051908101604052809291908181526020018280546116e590612be0565b80156117325780601f1061170757610100808354040283529160200191611732565b820191906000526020600020905b81548152906001019060200180831161171557829003601f168201915b50505060048401546005850154600686015460078701546008880154600b909801549697939692955060ff918216945092911689565b600081815260036020908152604091829020600a01805483518184028101840190945280845260609392830182828015610d0957602002820191906000526020600020905b81546001600160a01b031681526001909101906020018083116117ad5750505050509050919050565b6117df82610c8e565b6117e881611f23565b610d318383612057565b6117fa612298565b6000858152600360205260409020600b81015460ff1661182d576040516307db1be560e41b815260040160405180910390fd5b6000600682015460ff16600481111561184857611848612a00565b1461186657604051635a90bb8d60e11b815260040160405180910390fd5b8060040154421061188a576040516302d56b1d60e21b815260040160405180910390fd5b6008543410156118ad576040516378de4a6960e11b815260040160405180910390fd5b600381015485106118d15760405163bdc9571560e01b815260040160405180910390fd5b6118dc848484611fd5565b600086815260056020908152604080832086845290915290205460ff161561191757604051636569570160e11b815260040160405180910390fd5b600086815260046020908152604080832033845290915290206001015415611952576040516322ce1a0760e01b815260040160405180910390fd5b600086815260056020908152604080832086845282528083208054600160ff19918216811790925582516080810184528a815234818601818152828601888152606084018c81528f8a5260048952878a20338b5290985295909720915182559551928101929092559151600282018054909316901515179091559051600390910155600982018054879081106119ea576119ea612dc0565b906000526020600020016000828254611a039190612dad565b9250508190555034816008016000828254611a1e9190612dad565b9091555050600a81018054600181018255600091825260209091200180546001600160a01b0319163390811790915560405187907f5f1e1dc89f2133db82340b0c8610fd105abe06f6a2fb9cb3ea516ca08a46d32990611a8a9089903490918252602082015260400190565b60405180910390a350611aaa6001600080516020612f5783398151915255565b5050505050565b6000606080600080600080600080600360008b815260200190815260200160002090508060010160009054906101000a90046001600160a01b0316816002018260030183600401548460060160009054906101000a900460ff168560070154866008015487600b0160009054906101000a900460ff16868054611b3390612be0565b80601f0160208091040260200160405190810160405280929190818152602001828054611b5f90612be0565b8015611bac5780601f10611b8157610100808354040283529160200191611bac565b820191906000526020600020905b815481529060010190602001808311611b8f57829003601f168201915b5050505050965085805480602002602001604051908101604052809291908181526020016000905b82821015611c80578382906000526020600020018054611bf390612be0565b80601f0160208091040260200160405190810160405280929190818152602001828054611c1f90612be0565b8015611c6c5780601f10611c4157610100808354040283529160200191611c6c565b820191906000526020600020905b815481529060010190602001808311611c4f57829003601f168201915b505050505081526020019060010190611bd4565b5050505095509850985098509850985098509850985050919395975091939597565b600080516020612f77833981519152611cba81611f23565b6001600160a01b038216611d045760405162461bcd60e51b8152602060048201526011602482015270125b9d985b1a59081c9958da5c1a595b9d607a1b6044820152606401611631565b50600a80546001600160a01b0319166001600160a01b0392909216919091179055565b7ff0c57e16840df040f15088dc2f81fe391c3923bec73e23a9662efc9c229c6a008054600160401b810460ff16159067ffffffffffffffff16600081158015611d6d5750825b905060008267ffffffffffffffff166001148015611d8a5750303b155b905081158015611d98575080155b15611db65760405163f92ee8a960e01b815260040160405180910390fd5b845467ffffffffffffffff191660011785558315611de057845460ff60401b1916600160401b1785555b611de86122e4565b611df06122e4565b611df86122ec565b6001600160a01b038a16611e4e5760405162461bcd60e51b815260206004820152601760248201527f496e76616c696420576f726c64494420616464726573730000000000000000006044820152606401611631565b6103e8861115611e715760405163183440b760e31b815260040160405180910390fd5b600080546001600160a01b03199081166001600160a01b038d1617825560018b905560028a905560088990556009889055600a805433921682179055611eb79190611f30565b50611ed0600080516020612f7783398151915233611f30565b508315611f1757845460ff60401b19168555604051600181527fc7f505b2f371ae2175ee4913f4499e1f2633a7b5936321eed1cdaeb6115181d29060200160405180910390a15b50505050505050505050565b611f2d81336122fc565b50565b6000600080516020612f37833981519152611f4b84846113be565b611fcb576000848152602082815260408083206001600160a01b03871684529091529020805460ff19166001179055611f813390565b6001600160a01b0316836001600160a01b0316857f2f8788117e7eff1d82e926ec794901d17c78024a50270940304540a733656f0d60405160405180910390a46001915050610a41565b6000915050610a41565b600054600254600154604051633bc778e360e01b81526001600160a01b0390931692633bc778e392612011928892339189918990600401612ea9565b60006040518083038186803b15801561202957600080fd5b505afa92505050801561203a575060015b610f1b5760405163342fa4a760e11b815260040160405180910390fd5b6000600080516020612f3783398151915261207284846113be565b15611fcb576000848152602082815260408083206001600160a01b0387168085529252808320805460ff1916905551339287917ff6391f5c32d9c69d2a47ea670b442974b53935d1edc7fd64eb21e047a839171b9190a46001915050610a41565b306001600160a01b037f000000000000000000000000000000000000000000000000000000000000000016148061215a57507f00000000000000000000000000000000000000000000000000000000000000006001600160a01b031661214e600080516020612f17833981519152546001600160a01b031690565b6001600160a01b031614155b156121785760405163703e46dd60e11b815260040160405180910390fd5b565b600080516020612f7783398151915261108a81611f23565b816001600160a01b03166352d1902d6040518163ffffffff1660e01b8152600401602060405180830381865afa9250505080156121ec575060408051601f3d908101601f191682019092526121e991810190612ee1565b60015b61221457604051634c9c8ce360e01b81526001600160a01b0383166004820152602401611631565b600080516020612f17833981519152811461224557604051632a87526960e21b815260048101829052602401611631565b610f1b8383612335565b306001600160a01b037f000000000000000000000000000000000000000000000000000000000000000016146121785760405163703e46dd60e11b815260040160405180910390fd5b600080516020612f578339815191528054600119016122ca57604051633ee5aeb560e01b815260040160405180910390fd5b60029055565b6001600080516020612f5783398151915255565b61217861238b565b6122f461238b565b6121786123d4565b61230682826113be565b61108a5760405163e2517d3f60e01b81526001600160a01b038216600482015260248101839052604401611631565b61233e826123dc565b6040516001600160a01b038316907fbc7cd75a20ee27fd9adebab32041f755214dbc6bffa90cc0225b39da2e5c2d3b90600090a280511561238357610f1b8282612441565b61108a6124b7565b7ff0c57e16840df040f15088dc2f81fe391c3923bec73e23a9662efc9c229c6a0054600160401b900460ff1661217857604051631afcd79f60e31b815260040160405180910390fd5b6122d061238b565b806001600160a01b03163b60000361241257604051634c9c8ce360e01b81526001600160a01b0382166004820152602401611631565b600080516020612f1783398151915280546001600160a01b0319166001600160a01b0392909216919091179055565b6060600080846001600160a01b03168460405161245e9190612efa565b600060405180830381855af49150503d8060008114612499576040519150601f19603f3d011682016040523d82523d6000602084013e61249e565b606091505b50915091506124ae8583836124d6565b95945050505050565b34156121785760405163b398979f60e01b815260040160405180910390fd5b6060826124eb576124e682612535565b61252e565b815115801561250257506001600160a01b0384163b155b1561252b57604051639996b31560e01b81526001600160a01b0385166004820152602401611631565b50805b9392505050565b8051156125455780518082602001fd5b604051630a12f52160e11b815260040160405180910390fd5b60006020828403121561257057600080fd5b81356001600160e01b03198116811461252e57600080fd5b60006020828403121561259a57600080fd5b5035919050565b60005b838110156125bc5781810151838201526020016125a4565b50506000910152565b600081518084526125dd8160208601602086016125a1565b601f01601f19169290920160200192915050565b60008282518085526020808601955060208260051b8401016020860160005b8481101561263e57601f1986840301895261262c8383516125c5565b98840198925090830190600101612610565b5090979650505050505050565b60208152600061252e60208301846125f1565b60008083601f84011261267057600080fd5b50813567ffffffffffffffff81111561268857600080fd5b6020830191508360208285010111156126a057600080fd5b9250929050565b600080600080606085870312156126bd57600080fd5b8435935060208501359250604085013567ffffffffffffffff8111156126e257600080fd5b6126ee8782880161265e565b95989497509550505050565b6020808252825182820181905260009190848201906040850190845b8181101561273257835183529284019291840191600101612716565b50909695505050505050565b80356001600160a01b038116811461138357600080fd5b6000806040838503121561276857600080fd5b823591506127786020840161273e565b90509250929050565b806101008101831015610a4157600080fd5b6000806000806000806000806101a0898b0312156127b057600080fd5b883567ffffffffffffffff808211156127c857600080fd5b6127d48c838d0161265e565b909a50985060208b01359150808211156127ed57600080fd5b818b0191508b601f83011261280157600080fd5b81358181111561281057600080fd5b8c60208260051b850101111561282557600080fd5b6020830198508097505050506040890135935060608901359250608089013591506128538a60a08b01612781565b90509295985092959890939650565b60008060006040848603121561287757600080fd5b83359250602084013567ffffffffffffffff81111561289557600080fd5b6128a18682870161265e565b9497909650939450505050565b634e487b7160e01b600052604160045260246000fd5b600080604083850312156128d757600080fd5b6128e08361273e565b9150602083013567ffffffffffffffff808211156128fd57600080fd5b818501915085601f83011261291157600080fd5b813581811115612923576129236128ae565b604051601f8201601f19908116603f0116810190838211818310171561294b5761294b6128ae565b8160405282815288602084870101111561296457600080fd5b8260208601602083013760006020848301015280955050505050509250929050565b60006020828403121561299857600080fd5b61252e8261273e565b600080604083850312156129b457600080fd5b50508035926020909101359150565b600080604083850312156129d657600080fd5b6129df8361273e565b946020939093013593505050565b60208152600061252e60208301846125c5565b634e487b7160e01b600052602160045260246000fd5b60058110612a3457634e487b7160e01b600052602160045260246000fd5b9052565b8981526001600160a01b038916602082015261012060408201819052600090612a638382018b6125c5565b915050876060830152866080830152612a7f60a0830187612a16565b8460c08301528360e08301528215156101008301529a9950505050505050505050565b6020808252825182820181905260009190848201906040850190845b818110156127325783516001600160a01b031683529284019291840191600101612abe565b60008060008060006101808688031215612afc57600080fd5b85359450602086013593506040860135925060608601359150612b228760808801612781565b90509295509295909350565b6001600160a01b038916815261010060208201819052600090612b538382018b6125c5565b90508281036040840152612b67818a6125f1565b915050866060830152612b7d6080830187612a16565b8460a08301528360c083015282151560e08301529998505050505050505050565b600080600080600060a08688031215612bb657600080fd5b612bbf8661273e565b97602087013597506040870135966060810135965060800135945092505050565b600181811c90821680612bf457607f821691505b602082108103612c1457634e487b7160e01b600052602260045260246000fd5b50919050565b81835281816020850137506000828201602090810191909152601f909101601f19169091010190565b848152606060208201526000612c5d606083018587612c1a565b905082604083015295945050505050565b634e487b7160e01b600052601160045260246000fd5b600060018201612c9657612c96612c6e565b5060010190565b601f821115610f1b576000816000526020600020601f850160051c81016020861015612cc65750805b601f850160051c820191505b81811015612ce557828155600101612cd2565b505050505050565b67ffffffffffffffff831115612d0557612d056128ae565b612d1983612d138354612be0565b83612c9d565b6000601f841160018114612d4d5760008515612d355750838201355b600019600387901b1c1916600186901b178355611aaa565b600083815260209020601f19861690835b82811015612d7e5786850135825560209485019460019092019101612d5e565b5086821015612d9b5760001960f88860031b161c19848701351681555b505060018560011b0183555050505050565b80820180821115610a4157610a41612c6e565b634e487b7160e01b600052603260045260246000fd5b6000808335601e19843603018112612ded57600080fd5b83018035915067ffffffffffffffff821115612e0857600080fd5b6020019150368190038213156126a057600080fd5b604081526000612e31604083018587612c1a565b9050826020830152949350505050565b602081526000612e55602083018486612c1a565b949350505050565b8082028115828204841417610a4157610a41612c6e565b600082612e9157634e487b7160e01b600052601260045260246000fd5b500490565b81810381811115610a4157610a41612c6e565b60006101a0820190508782528660208301528560408301528460608301528360808301526101008360a0840137979650505050505050565b600060208284031215612ef357600080fd5b5051919050565b60008251612f0c8184602087016125a1565b919091019291505056fe360894a13ba1a3210667c828492db98dca3e2076cc3735a920a3ca505d382bbc02dd7bc7dec4dceedda775e58dd541e08a116c6c53815c0bd028192f7b6268009b779b17422d0df92223018b32b4d1fa46e071723d6817e2486d003becc55f00a49807205ce4d355092ef5a8a18f56e8913cf4a201fbe287825b095693c21775a2646970667358221220fbce18633d96dd582e1bccab28bf73c8c87849e33aa8eb42df99607da949988164736f6c63430008180033",
  "linkReferences": {},
  "deployedLinkReferences": {}
}