{
  "_format": "hh-sol-artifact-1",
  "contractName": "GovernanceModule",
  "sourceName": "contracts/GovernanceModule.sol",
  "abi": [
    {
      "inputs": [],
      "stateMutability": "nonpayable",
      "type": "constructor"
    },
    {
      "inputs": [],
      "name": "AccessControlBadConfirmation",
      "type": "error"
    },
    {
      "inputs": [
        {
          "internalType": "address",
          "name": "account",
          "type": "address"
        },
        {
          "internalType": "bytes32",
          "name": "neededRole",
          "type": "bytes32"
        }
      ],
      "name": "AccessControlUnauthorizedAccount",
      "type": "error"
    },
    {
      "inputs": [
        {
          "internalType": "address",
          "name": "target",
          "type": "address"
        }
      ],
      "name": "AddressEmptyCode",
      "type": "error"
    },
    {
      "inputs": [],
      "name": "AlreadyVoted",
      "type": "error"
    },
    {
      "inputs": [
        {
          "internalType": "address",
          "name": "implementation",
          "type": "address"
        }
      ],
      "name": "ERC1967InvalidImplementation",
      "type": "error"
    },
    {
      "inputs": [],
      "name": "ERC1967NonPayable",
      "type": "error"
    },
    {
      "inputs": [],
      "name": "ExecutionFailed",
      "type": "error"
    },
    {
      "inputs": [],
      "name": "FailedInnerCall",
      "type": "error"
    },
    {
      "inputs": [],
      "name": "InsufficientRiskScore",
      "type": "error"
    },
    {
      "inputs": [],
      "name": "InvalidEmergencyPeriod",
      "type": "error"
    },
    {
      "inputs": [],
      "name": "InvalidInitialization",
      "type": "error"
    },
    {
      "inputs": [],
      "name": "InvalidQuorumPercentage",
      "type": "error"
    },
    {
      "inputs": [],
      "name": "InvalidVotingPeriod",
      "type": "error"
    },
    {
      "inputs": [],
      "name": "InvalidWorldIDProof",
      "type": "error"
    },
    {
      "inputs": [],
      "name": "NotEmergencyProposal",
      "type": "error"
    },
    {
      "inputs": [],
      "name": "NotGuardianMultiSig",
      "type": "error"
    },
    {
      "inputs": [],
      "name": "NotInitializing",
      "type": "error"
    },
    {
      "inputs": [],
      "name": "NullifierAlreadyUsed",
      "type": "error"
    },
    {
      "inputs": [],
      "name": "ProposalAlreadyExecuted",
      "type": "error"
    },
    {
      "inputs": [],
      "name": "ProposalNotActive",
      "type": "error"
    },
    {
      "inputs": [],
      "name": "ProposalNotFound",
      "type": "error"
    },
    {
      "inputs": [],
      "name": "QuorumNotReached",
      "type": "error"
    },
    {
      "inputs": [],
      "name": "ReentrancyGuardReentrantCall",
      "type": "error"
    },
    {
      "inputs": [],
      "name": "TargetNotWhitelisted",
      "type": "error"
    },
    {
      "inputs": [],
      "name": "UUPSUnauthorizedCallContext",
      "type": "error"
    },
    {
      "inputs": [
        {
          "internalType": "bytes32",
          "name": "slot",
          "type": "bytes32"
        }
      ],
      "name": "UUPSUnsupportedProxiableUUID",
      "type": "error"
    },
    {
      "inputs": [],
      "name": "VotingPeriodEnded",
      "type": "error"
    },
    {
      "inputs": [],
      "name": "VotingPeriodNotEnded",
      "type": "error"
    },
    {
      "anonymous": false,
      "inputs": [
        {
          "indexed": true,
          "internalType": "uint256",
          "name": "proposalId",
          "type": "uint256"
        },
        {
          "indexed": false,
          "internalType": "uint256",
          "name": "riskScore",
          "type": "uint256"
        },
        {
          "indexed": false,
          "internalType": "string",
          "name": "aiReasoning",
          "type": "string"
        },
        {
          "indexed": false,
          "internalType": "uint256",
          "name": "votingEndTime",
          "type": "uint256"
        }
      ],
      "name": "EmergencyProposalCreated",
      "type": "event"
    },
    {
      "anonymous": false,
      "inputs": [
        {
          "indexed": true,
          "internalType": "address",
          "name": "oldGuardian",
          "type": "address"
        },
        {
          "indexed": true,
          "internalType": "address",
          "name": "newGuardian",
          "type": "address"
        }
      ],
      "name": "GuardianMultiSigUpdated",
      "type": "event"
    },
    {
      "anonymous": false,
      "inputs": [
        {
          "indexed": true,
          "internalType": "uint256",
          "name": "proposalId",
          "type": "uint256"
        },
        {
          "indexed": true,
          "internalType": "address",
          "name": "guardian",
          "type": "address"
        },
        {
          "indexed": false,
          "internalType": "string",
          "name": "justification",
          "type": "string"
        },
        {
          "indexed": false,
          "internalType": "uint256",
          "name": "timestamp",
          "type": "uint256"
        }
      ],
      "name": "GuardianOverride",
      "type": "event"
    },
    {
      "anonymous": false,
      "inputs": [
        {
          "indexed": false,
          "internalType": "uint64",
          "name": "version",
          "type": "uint64"
        }
      ],
      "name": "Initialized",
      "type": "event"
    },
    {
      "anonymous": false,
      "inputs": [
        {
          "indexed": true,
          "internalType": "uint256",
          "name": "proposalId",
          "type": "uint256"
        },
        {
          "indexed": true,
          "internalType": "address",
          "name": "proposer",
          "type": "address"
        },
        {
          "indexed": false,
          "internalType": "string",
          "name": "title",
          "type": "string"
        },
        {
          "indexed": false,
          "internalType": "uint256",
          "name": "votingEndTime",
          "type": "uint256"
        }
      ],
      "name": "ProposalCreated",
      "type": "event"
    },
    {
      "anonymous": false,
      "inputs": [
        {
          "indexed": true,
          "internalType": "uint256",
          "name": "proposalId",
          "type": "uint256"
        },
        {
          "indexed": false,
          "internalType": "uint256",
          "name": "votesFor",
          "type": "uint256"
        },
        {
          "indexed": false,
          "internalType": "uint256",
          "name": "votesAgainst",
          "type": "uint256"
        }
      ],
      "name": "ProposalDefeated",
      "type": "event"
    },
    {
      "anonymous": false,
      "inputs": [
        {
          "indexed": true,
          "internalType": "uint256",
          "name": "proposalId",
          "type": "uint256"
        },
        {
          "indexed": false,
          "internalType": "uint256",
          "name": "timestamp",
          "type": "uint256"
        }
      ],
      "name": "ProposalExecuted",
      "type": "event"
    },
    {
      "anonymous": false,
      "inputs": [
        {
          "indexed": true,
          "internalType": "bytes32",
          "name": "role",
          "type": "bytes32"
        },
        {
          "indexed": true,
          "internalType": "bytes32",
          "name": "previousAdminRole",
          "type": "bytes32"
        },
        {
          "indexed": true,
          "internalType": "bytes32",
          "name": "newAdminRole",
          "type": "bytes32"
        }
      ],
      "name": "RoleAdminChanged",
      "type": "event"
    },
    {
      "anonymous": false,
      "inputs": [
        {
          "indexed": true,
          "internalType": "bytes32",
          "name": "role",
          "type": "bytes32"
        },
        {
          "indexed": true,
          "internalType": "address",
          "name": "account",
          "type": "address"
        },
        {
          "indexed": true,
          "internalType": "address",
          "name": "sender",
          "type": "address"
        }
      ],
      "name": "RoleGranted",
      "type": "event"
    },
    {
      "anonymous": false,
      "inputs": [
        {
          "indexed": true,
          "internalType": "bytes32",
          "name": "role",
          "type": "bytes32"
        },
        {
          "indexed": true,
          "internalType": "address",
          "name": "account",
          "type": "address"
        },
        {
          "indexed": true,
          "internalType": "address",
          "name": "sender",
          "type": "address"
        }
      ],
      "name": "RoleRevoked",
      "type": "event"
    },
    {
      "anonymous": false,
      "inputs": [
        {
          "indexed": true,
          "internalType": "address",
          "name": "target",
          "type": "address"
        }
      ],
      "name": "TargetRemoved",
      "type": "event"
    },
    {
      "anonymous": false,
      "inputs": [
        {
          "indexed": true,
          "internalType": "address",
          "name": "target",
          "type": "address"
        }
      ],
      "name": "TargetWhitelisted",
      "type": "event"
    },
    {
      "anonymous": false,
      "inputs": [
        {
          "indexed": true,
          "internalType": "address",
          "name": "implementation",
          "type": "address"
        }
      ],
      "name": "Upgraded",
      "type": "event"
    },
    {
      "anonymous": false,
      "inputs": [
        {
          "indexed": false,
          "internalType": "uint256",
          "name": "oldTotal",
          "type": "uint256"
        },
        {
          "indexed": false,
          "internalType": "uint256",
          "name": "newTotal",
          "type": "uint256"
        }
      ],
      "name": "VerifiedHumansUpdated",
      "type": "event"
    },
    {
      "anonymous": false,
      "inputs": [
        {
          "indexed": true,
          "internalType": "uint256",
          "name": "proposalId",
          "type": "uint256"
        },
        {
          "indexed": true,
          "internalType": "address",
          "name": "voter",
          "type": "address"
        },
        {
          "indexed": false,
          "internalType": "bool",
          "name": "support",
          "type": "bool"
        },
        {
          "indexed": false,
          "internalType": "uint256",
          "name": "timestamp",
          "type": "uint256"
        }
      ],
      "name": "VoteCast",
      "type": "event"
    },
    {
      "inputs": [],
      "name": "ADMIN_ROLE",
      "outputs": [
        {
          "internalType": "bytes32",
          "name": "",
          "type": "bytes32"
        }
      ],
      "stateMutability": "view",
      "type": "function"
    },
    {
      "inputs": [],
      "name": "CRE_ROLE",
      "outputs": [
        {
          "internalType": "bytes32",
          "name": "",
          "type": "bytes32"
        }
      ],
      "stateMutability": "view",
      "type": "function"
    },
    {
      "inputs": [],
      "name": "DEFAULT_ADMIN_ROLE",
      "outputs": [
        {
          "internalType": "bytes32",
          "name": "",
          "type": "bytes32"
        }
      ],
      "stateMutability": "view",
      "type": "function"
    },
    {
      "inputs": [],
      "name": "EMERGENCY_RISK_THRESHOLD",
      "outputs": [
        {
          "internalType": "uint256",
          "name": "",
          "type": "uint256"
        }
      ],
      "stateMutability": "view",
      "type": "function"
    },
    {
      "inputs": [],
      "name": "MAX_EMERGENCY_PERIOD",
      "outputs": [
        {
          "internalType": "uint256",
          "name": "",
          "type": "uint256"
        }
      ],
      "stateMutability": "view",
      "type": "function"
    },
    {
      "inputs": [],
      "name": "MAX_QUORUM",
      "outputs": [
        {
          "internalType": "uint256",
          "name": "",
          "type": "uint256"
        }
      ],
      "stateMutability": "view",
      "type": "function"
    },
    {
      "inputs": [],
      "name": "MAX_VOTING_PERIOD",
      "outputs": [
        {
          "internalType": "uint256",
          "name": "",
          "type": "uint256"
        }
      ],
      "stateMutability": "view",
      "type": "function"
    },
    {
      "inputs": [],
      "name": "MIN_EMERGENCY_PERIOD",
      "outputs": [
        {
          "internalType": "uint256",
          "name": "",
          "type": "uint256"
        }
      ],
      "stateMutability": "view",
      "type": "function"
    },
    {
      "inputs": [],
      "name": "MIN_QUORUM",
      "outputs": [
        {
          "internalType": "uint256",
          "name": "",
          "type": "uint256"
        }
      ],
      "stateMutability": "view",
      "type": "function"
    },
    {
      "inputs": [],
      "name": "MIN_VOTING_PERIOD",
      "outputs": [
        {
          "internalType": "uint256",
          "name": "",
          "type": "uint256"
        }
      ],
      "stateMutability": "view",
      "type": "function"
    },
    {
      "inputs": [],
      "name": "ORACLE_ROLE",
      "outputs": [
        {
          "internalType": "bytes32",
          "name": "",
          "type": "bytes32"
        }
      ],
      "stateMutability": "view",
      "type": "function"
    },
    {
      "inputs": [],
      "name": "UPGRADE_INTERFACE_VERSION",
      "outputs": [
        {
          "internalType": "string",
          "name": "",
          "type": "string"
        }
      ],
      "stateMutability": "view",
      "type": "function"
    },
    {
      "inputs": [
        {
          "internalType": "uint256",
          "name": "proposalId",
          "type": "uint256"
        }
      ],
      "name": "cancelProposal",
      "outputs": [],
      "stateMutability": "nonpayable",
      "type": "function"
    },
    {
      "inputs": [
        {
          "internalType": "string",
          "name": "title",
          "type": "string"
        },
        {
          "internalType": "string",
          "name": "description",
          "type": "string"
        },
        {
          "internalType": "address",
          "name": "targetContract",
          "type": "address"
        },
        {
          "internalType": "bytes",
          "name": "callData",
          "type": "bytes"
        },
        {
          "internalType": "uint256",
          "name": "riskScore",
          "type": "uint256"
        },
        {
          "internalType": "string",
          "name": "aiReasoning",
          "type": "string"
        }
      ],
      "name": "createEmergencyProposal",
      "outputs": [
        {
          "internalType": "uint256",
          "name": "proposalId",
          "type": "uint256"
        }
      ],
      "stateMutability": "nonpayable",
      "type": "function"
    },
    {
      "inputs": [
        {
          "internalType": "string",
          "name": "title",
          "type": "string"
        },
        {
          "internalType": "string",
          "name": "description",
          "type": "string"
        },
        {
          "internalType": "address",
          "name": "targetContract",
          "type": "address"
        },
        {
          "internalType": "bytes",
          "name": "callData",
          "type": "bytes"
        },
        {
          "internalType": "uint256",
          "name": "merkleRoot",
          "type": "uint256"
        },
        {
          "internalType": "uint256",
          "name": "nullifierHash",
          "type": "uint256"
        },
        {
          "internalType": "uint256[8]",
          "name": "proof",
          "type": "uint256[8]"
        }
      ],
      "name": "createProposal",
      "outputs": [
        {
          "internalType": "uint256",
          "name": "proposalId",
          "type": "uint256"
        }
      ],
      "stateMutability": "nonpayable",
      "type": "function"
    },
    {
      "inputs": [],
      "name": "emergencyVotingPeriod",
      "outputs": [
        {
          "internalType": "uint256",
          "name": "",
          "type": "uint256"
        }
      ],
      "stateMutability": "view",
      "type": "function"
    },
    {
      "inputs": [
        {
          "internalType": "uint256",
          "name": "proposalId",
          "type": "uint256"
        }
      ],
      "name": "executeProposal",
      "outputs": [],
      "stateMutability": "nonpayable",
      "type": "function"
    },
    {
      "inputs": [],
      "name": "externalNullifierHash",
      "outputs": [
        {
          "internalType": "uint256",
          "name": "",
          "type": "uint256"
        }
      ],
      "stateMutability": "view",
      "type": "function"
    },
    {
      "inputs": [
        {
          "internalType": "uint256",
          "name": "proposalId",
          "type": "uint256"
        }
      ],
      "name": "getProposal",
      "outputs": [
        {
          "internalType": "address",
          "name": "proposer",
          "type": "address"
        },
        {
          "internalType": "string",
          "name": "title",
          "type": "string"
        },
        {
          "internalType": "string",
          "name": "description",
          "type": "string"
        },
        {
          "internalType": "address",
          "name": "targetContract",
          "type": "address"
        },
        {
          "internalType": "uint256",
          "name": "votingEndTime",
          "type": "uint256"
        },
        {
          "internalType": "enum GovernanceModule.ProposalStatus",
          "name": "status",
          "type": "uint8"
        },
        {
          "internalType": "uint256",
          "name": "votesFor",
          "type": "uint256"
        },
        {
          "internalType": "uint256",
          "name": "votesAgainst",
          "type": "uint256"
        },
        {
          "internalType": "bool",
          "name": "isEmergency",
          "type": "bool"
        }
      ],
      "stateMutability": "view",
      "type": "function"
    },
    {
      "inputs": [
        {
          "internalType": "bytes32",
          "name": "role",
          "type": "bytes32"
        }
      ],
      "name": "getRoleAdmin",
      "outputs": [
        {
          "internalType": "bytes32",
          "name": "",
          "type": "bytes32"
        }
      ],
      "stateMutability": "view",
      "type": "function"
    },
    {
      "inputs": [
        {
          "internalType": "uint256",
          "name": "proposalId",
          "type": "uint256"
        },
        {
          "internalType": "address",
          "name": "voter",
          "type": "address"
        }
      ],
      "name": "getVote",
      "outputs": [
        {
          "internalType": "bool",
          "name": "support",
          "type": "bool"
        },
        {
          "internalType": "uint256",
          "name": "nullifierHash",
          "type": "uint256"
        },
        {
          "internalType": "uint256",
          "name": "timestamp",
          "type": "uint256"
        }
      ],
      "stateMutability": "view",
      "type": "function"
    },
    {
      "inputs": [
        {
          "internalType": "uint256",
          "name": "proposalId",
          "type": "uint256"
        }
      ],
      "name": "getVoters",
      "outputs": [
        {
          "internalType": "address[]",
          "name": "",
          "type": "address[]"
        }
      ],
      "stateMutability": "view",
      "type": "function"
    },
    {
      "inputs": [
        {
          "internalType": "bytes32",
          "name": "role",
          "type": "bytes32"
        },
        {
          "internalType": "address",
          "name": "account",
          "type": "address"
        }
      ],
      "name": "grantRole",
      "outputs": [],
      "stateMutability": "nonpayable",
      "type": "function"
    },
    {
      "inputs": [],
      "name": "groupId",
      "outputs": [
        {
          "internalType": "uint256",
          "name": "",
          "type": "uint256"
        }
      ],
      "stateMutability": "view",
      "type": "function"
    },
    {
      "inputs": [],
      "name": "guardianMultiSig",
      "outputs": [
        {
          "internalType": "address",
          "name": "",
          "type": "address"
        }
      ],
      "stateMutability": "view",
      "type": "function"
    },
    {
      "inputs": [
        {
          "internalType": "uint256",
          "name": "proposalId",
          "type": "uint256"
        },
        {
          "internalType": "string",
          "name": "justification",
          "type": "string"
        }
      ],
      "name": "guardianOverride",
      "outputs": [],
      "stateMutability": "nonpayable",
      "type": "function"
    },
    {
      "inputs": [
        {
          "internalType": "uint256",
          "name": "",
          "type": "uint256"
        }
      ],
      "name": "guardianOverrides",
      "outputs": [
        {
          "internalType": "bool",
          "name": "",
          "type": "bool"
        }
      ],
      "stateMutability": "view",
      "type": "function"
    },
    {
      "inputs": [
        {
          "internalType": "bytes32",
          "name": "role",
          "type": "bytes32"
        },
        {
          "internalType": "address",
          "name": "account",
          "type": "address"
        }
      ],
      "name": "hasRole",
      "outputs": [
        {
          "internalType": "bool",
          "name": "",
          "type": "bool"
        }
      ],
      "stateMutability": "view",
      "type": "function"
    },
    {
      "inputs": [
        {
          "internalType": "uint256",
          "name": "proposalId",
          "type": "uint256"
        },
        {
          "internalType": "address",
          "name": "voter",
          "type": "address"
        }
      ],
      "name": "hasVoted",
      "outputs": [
        {
          "internalType": "bool",
          "name": "",
          "type": "bool"
        }
      ],
      "stateMutability": "view",
      "type": "function"
    },
    {
      "inputs": [
        {
          "internalType": "address",
          "name": "_worldId",
          "type": "address"
        },
        {
          "internalType": "uint256",
          "name": "_externalNullifierHash",
          "type": "uint256"
        },
        {
          "internalType": "uint256",
          "name": "_groupId",
          "type": "uint256"
        },
        {
          "internalType": "uint256",
          "name": "_quorumPercentage",
          "type": "uint256"
        },
        {
          "internalType": "uint256",
          "name": "_votingPeriod",
          "type": "uint256"
        },
        {
          "internalType": "uint256",
          "name": "_emergencyVotingPeriod",
          "type": "uint256"
        },
        {
          "internalType": "address",
          "name": "_guardianMultiSig",
          "type": "address"
        }
      ],
      "name": "initialize",
      "outputs": [],
      "stateMutability": "nonpayable",
      "type": "function"
    },
    {
      "inputs": [
        {
          "internalType": "uint256",
          "name": "proposalId",
          "type": "uint256"
        },
        {
          "internalType": "uint256",
          "name": "nullifierHash",
          "type": "uint256"
        }
      ],
      "name": "isNullifierUsed",
      "outputs": [
        {
          "internalType": "bool",
          "name": "",
          "type": "bool"
        }
      ],
      "stateMutability": "view",
      "type": "function"
    },
    {
      "inputs": [],
      "name": "proposalCount",
      "outputs": [
        {
          "internalType": "uint256",
          "name": "",
          "type": "uint256"
        }
      ],
      "stateMutability": "view",
      "type": "function"
    },
    {
      "inputs": [
        {
          "internalType": "uint256",
          "name": "",
          "type": "uint256"
        }
      ],
      "name": "proposals",
      "outputs": [
        {
          "internalType": "uint256",
          "name": "proposalId",
          "type": "uint256"
        },
        {
          "internalType": "address",
          "name": "proposer",
          "type": "address"
        },
        {
          "internalType": "string",
          "name": "title",
          "type": "string"
        },
        {
          "internalType": "string",
          "name": "description",
          "type": "string"
        },
        {
          "internalType": "address",
          "name": "targetContract",
          "type": "address"
        },
        {
          "internalType": "bytes",
          "name": "callData",
          "type": "bytes"
        },
        {
          "internalType": "uint256",
          "name": "creationTime",
          "type": "uint256"
        },
        {
          "internalType": "uint256",
          "name": "votingEndTime",
          "type": "uint256"
        },
        {
          "internalType": "enum GovernanceModule.ProposalStatus",
          "name": "status",
          "type": "uint8"
        },
        {
          "internalType": "uint256",
          "name": "votesFor",
          "type": "uint256"
        },
        {
          "internalType": "uint256",
          "name": "votesAgainst",
          "type": "uint256"
        },
        {
          "internalType": "bool",
          "name": "isEmergency",
          "type": "bool"
        },
        {
          "internalType": "uint256",
          "name": "riskScore",
          "type": "uint256"
        },
        {
          "internalType": "string",
          "name": "aiReasoning",
          "type": "string"
        }
      ],
      "stateMutability": "view",
      "type": "function"
    },
    {
      "inputs": [],
      "name": "proxiableUUID",
      "outputs": [
        {
          "internalType": "bytes32",
          "name": "",
          "type": "bytes32"
        }
      ],
      "stateMutability": "view",
      "type": "function"
    },
    {
      "inputs": [],
      "name": "quorumPercentage",
      "outputs": [
        {
          "internalType": "uint256",
          "name": "",
          "type": "uint256"
        }
      ],
      "stateMutability": "view",
      "type": "function"
    },
    {
      "inputs": [
        {
          "internalType": "address",
          "name": "target",
          "type": "address"
        }
      ],
      "name": "removeTarget",
      "outputs": [],
      "stateMutability": "nonpayable",
      "type": "function"
    },
    {
      "inputs": [
        {
          "internalType": "bytes32",
          "name": "role",
          "type": "bytes32"
        },
        {
          "internalType": "address",
          "name": "callerConfirmation",
          "type": "address"
        }
      ],
      "name": "renounceRole",
      "outputs": [],
      "stateMutability": "nonpayable",
      "type": "function"
    },
    {
      "inputs": [
        {
          "internalType": "bytes32",
          "name": "role",
          "type": "bytes32"
        },
        {
          "internalType": "address",
          "name": "account",
          "type": "address"
        }
      ],
      "name": "revokeRole",
      "outputs": [],
      "stateMutability": "nonpayable",
      "type": "function"
    },
    {
      "inputs": [
        {
          "internalType": "bytes4",
          "name": "interfaceId",
          "type": "bytes4"
        }
      ],
      "name": "supportsInterface",
      "outputs": [
        {
          "internalType": "bool",
          "name": "",
          "type": "bool"
        }
      ],
      "stateMutability": "view",
      "type": "function"
    },
    {
      "inputs": [],
      "name": "totalVerifiedHumans",
      "outputs": [
        {
          "internalType": "uint256",
          "name": "",
          "type": "uint256"
        }
      ],
      "stateMutability": "view",
      "type": "function"
    },
    {
      "inputs": [
        {
          "internalType": "uint256",
          "name": "newPeriod",
          "type": "uint256"
        }
      ],
      "name": "updateEmergencyVotingPeriod",
      "outputs": [],
      "stateMutability": "nonpayable",
      "type": "function"
    },
    {
      "inputs": [
        {
          "internalType": "address",
          "name": "newGuardian",
          "type": "address"
        }
      ],
      "name": "updateGuardianMultiSig",
      "outputs": [],
      "stateMutability": "nonpayable",
      "type": "function"
    },
    {
      "inputs": [
        {
          "internalType": "uint256",
          "name": "newQuorum",
          "type": "uint256"
        }
      ],
      "name": "updateQuorumPercentage",
      "outputs": [],
      "stateMutability": "nonpayable",
      "type": "function"
    },
    {
      "inputs": [
        {
          "internalType": "uint256",
          "name": "newTotal",
          "type": "uint256"
        }
      ],
      "name": "updateTotalVerifiedHumans",
      "outputs": [],
      "stateMutability": "nonpayable",
      "type": "function"
    },
    {
      "inputs": [
        {
          "internalType": "uint256",
          "name": "newPeriod",
          "type": "uint256"
        }
      ],
      "name": "updateVotingPeriod",
      "outputs": [],
      "stateMutability": "nonpayable",
      "type": "function"
    },
    {
      "inputs": [
        {
          "internalType": "address",
          "name": "newImplementation",
          "type": "address"
        },
        {
          "internalType": "bytes",
          "name": "data",
          "type": "bytes"
        }
      ],
      "name": "upgradeToAndCall",
      "outputs": [],
      "stateMutability": "payable",
      "type": "function"
    },
    {
      "inputs": [
        {
          "internalType": "uint256",
          "name": "proposalId",
          "type": "uint256"
        },
        {
          "internalType": "bool",
          "name": "support",
          "type": "bool"
        },
        {
          "internalType": "uint256",
          "name": "merkleRoot",
          "type": "uint256"
        },
        {
          "internalType": "uint256",
          "name": "nullifierHash",
          "type": "uint256"
        },
        {
          "internalType": "uint256[8]",
          "name": "proof",
          "type": "uint256[8]"
        }
      ],
      "name": "vote",
      "outputs": [],
      "stateMutability": "nonpayable",
      "type": "function"
    },
    {
      "inputs": [],
      "name": "votingPeriod",
      "outputs": [
        {
          "internalType": "uint256",
          "name": "",
          "type": "uint256"
        }
      ],
      "stateMutability": "view",
      "type": "function"
    },
    {
      "inputs": [
        {
          "internalType": "address",
          "name": "target",
          "type": "address"
        }
      ],
      "name": "whitelistTarget",
      "outputs": [],
      "stateMutability": "nonpayable",
      "type": "function"
    },
    {
      "inputs": [
        {
          "internalType": "address",
          "name": "",
          "type": "address"
        }
      ],
      "name": "whitelistedTargets",
      "outputs": [
        {
          "internalType": "bool",
          "name": "",
          "type": "bool"
        }
      ],
      "stateMutability": "view",
      "type": "function"
    },
    {
      "inputs": [],
      "name": "worldId",
      "outputs": [
        {
          "internalType": "contract IWorldID",
          "name": "",
          "type": "address"
        }
      ],
      "stateMutability": "view",
      "type": "function"
    }
  ],
  "bytecode": "0x60a0604052306080523480156200001557600080fd5b506200002062000026565b620000da565b7ff0c57e16840df040f15088dc2f81fe391c3923bec73e23a9662efc9c229c6a00805468010000000000000000900460ff1615620000775760405163f92ee8a960e01b815260040160405180910390fd5b80546001600160401b0390811614620000d75780546001600160401b0319166001600160401b0390811782556040519081527fc7f505b2f371ae2175ee4913f4499e1f2633a7b5936321eed1cdaeb6115181d29060200160405180910390a15b50565b60805161318762000104600039600081816122d1015281816122fa015261244b01526131876000f3fe6080604052600436106102e45760003560e01c8063753e9ef011610190578063c033f677116100dc578063d5d7ff3c11610095578063eee243991161006f578063eee2439914610999578063ef00ef43146109af578063f0f9e6b7146109cf578063fb9ed257146109ef57600080fd5b8063d5d7ff3c14610943578063da35c66414610963578063e0a8f6f51461097957600080fd5b8063c033f67714610855578063c3097bee14610889578063c7f758a8146108a9578063c88425b5146108de578063d2cbc8671461090e578063d547741f1461092357600080fd5b806391d1485411610149578063a64e024a11610123578063a64e024a1461076b578063a97c918914610782578063ad3cb1cc146107a2578063bc3f931f146107e057600080fd5b806391d1485414610720578063a0f44c9214610740578063a217fddf1461075657600080fd5b8063753e9ef01461063d57806375b238fc1461065d5780638220a5b01461067f57806385c742961461069f578063860d1d55146106de57806386b646f2146106f357600080fd5b806336568abe1161024f5780634fa76ec91161020857806354131475116101e257806354131475146105ba57806359dd06aa146105da5780635f3ad709146105f057806361eed8f11461060557600080fd5b80634fa76ec91461057857806352d1902d1461058e5780635358e009146105a357600080fd5b806336568abe1461049957806339893b60146104b957806339b6e72c146104d9578063428ee06c146104f957806343859632146105195780634f1ef2861461056557600080fd5b80631cfda9fa116102a15780631cfda9fa146103ec578063215809ca1461040c578063248a9ca3146104235780632bb790b7146104435780632bee8d32146104635780632f2ff15d1461047957600080fd5b8063013cf08b146102e957806301ffc9a71461032c57806302a251a31461035c57806307e2cea5146103805780630d61b519146103b457806318b62629146103d6575b600080fd5b3480156102f557600080fd5b506103096103043660046126eb565b610a1f565b6040516103239e9d9c9b9a9998979695949392919061278c565b60405180910390f35b34801561033857600080fd5b5061034c610347366004612854565b610ccc565b6040519015158152602001610323565b34801561036857600080fd5b5061037260065481565b604051908152602001610323565b34801561038c57600080fd5b506103727f68e79a7bf1e0bc45d0a330c573bc367f9cf464fd326078812f301165fbda4ef181565b3480156103c057600080fd5b506103d46103cf3660046126eb565b610d03565b005b3480156103e257600080fd5b5061037260075481565b3480156103f857600080fd5b506103d461040736600461289a565b610fc6565b34801561041857600080fd5b506103726201518081565b34801561042f57600080fd5b5061037261043e3660046126eb565b61107a565b34801561044f57600080fd5b5061037261045e3660046128fe565b61109c565b34801561046f57600080fd5b5061037260085481565b34801561048557600080fd5b506103d46104943660046129e2565b61124b565b3480156104a557600080fd5b506103d46104b43660046129e2565b61126d565b3480156104c557600080fd5b506103726104d4366004612a20565b6112a5565b3480156104e557600080fd5b506103d46104f4366004612af2565b611418565b34801561050557600080fd5b506103d46105143660046126eb565b611757565b34801561052557600080fd5b5061034c6105343660046129e2565b60008281526003602090815260408083206001600160a01b0385168452600b01909152902060020154151592915050565b6103d4610573366004612b6b565b6117a5565b34801561058457600080fd5b5061037260055481565b34801561059a57600080fd5b506103726117c4565b3480156105af57600080fd5b506103726203f48081565b3480156105c657600080fd5b506103d46105d53660046126eb565b6117e1565b3480156105e657600080fd5b5061037260015481565b3480156105fc57600080fd5b50610372600a81565b34801561061157600080fd5b50600954610625906001600160a01b031681565b6040516001600160a01b039091168152602001610323565b34801561064957600080fd5b50600054610625906001600160a01b031681565b34801561066957600080fd5b5061037260008051602061313283398151915281565b34801561068b57600080fd5b506103d461069a366004612c2d565b611851565b3480156106ab57600080fd5b5061034c6106ba366004612c79565b6000918252600360209081526040808420928452600c909201905290205460ff1690565b3480156106ea57600080fd5b50610372605a81565b3480156106ff57600080fd5b5061071361070e3660046126eb565b6119d2565b6040516103239190612c9b565b34801561072c57600080fd5b5061034c61073b3660046129e2565b611a41565b34801561074c57600080fd5b5061037260025481565b34801561076257600080fd5b50610372600081565b34801561077757600080fd5b5061037262278d0081565b34801561078e57600080fd5b506103d461079d366004612ce8565b611a79565b3480156107ae57600080fd5b506107d3604051806040016040528060058152602001640352e302e360dc1b81525081565b6040516103239190612d41565b3480156107ec57600080fd5b506108386107fb3660046129e2565b60009182526003602090815260408084206001600160a01b03939093168452600b909201905290208054600182015460029092015460ff90911692565b604080519315158452602084019290925290820152606001610323565b34801561086157600080fd5b506103727f4e9fb4542c51584eec8e841667c7f0078908f626adbbbfcd019638ee800d61a981565b34801561089557600080fd5b506103d46108a436600461289a565b611c79565b3480156108b557600080fd5b506108c96108c43660046126eb565b611d35565b60405161032399989796959493929190612d54565b3480156108ea57600080fd5b5061034c6108f93660046126eb565b600a6020526000908152604090205460ff1681565b34801561091a57600080fd5b50610372605081565b34801561092f57600080fd5b506103d461093e3660046129e2565b611edb565b34801561094f57600080fd5b506103d461095e36600461289a565b611ef7565b34801561096f57600080fd5b5061037260045481565b34801561098557600080fd5b506103d46109943660046126eb565b611f59565b3480156109a557600080fd5b50610372610e1081565b3480156109bb57600080fd5b506103d46109ca3660046126eb565b611ff5565b3480156109db57600080fd5b506103d46109ea3660046126eb565b612044565b3480156109fb57600080fd5b5061034c610a0a36600461289a565b600b6020526000908152604090205460ff1681565b60036020526000908152604090208054600182015460028301805492936001600160a01b0390921692610a5190612dd0565b80601f0160208091040260200160405190810160405280929190818152602001828054610a7d90612dd0565b8015610aca5780601f10610a9f57610100808354040283529160200191610aca565b820191906000526020600020905b815481529060010190602001808311610aad57829003601f168201915b505050505090806003018054610adf90612dd0565b80601f0160208091040260200160405190810160405280929190818152602001828054610b0b90612dd0565b8015610b585780601f10610b2d57610100808354040283529160200191610b58565b820191906000526020600020905b815481529060010190602001808311610b3b57829003601f168201915b505050600484015460058501805494956001600160a01b03909216949193509150610b8290612dd0565b80601f0160208091040260200160405190810160405280929190818152602001828054610bae90612dd0565b8015610bfb5780601f10610bd057610100808354040283529160200191610bfb565b820191906000526020600020905b815481529060010190602001808311610bde57829003601f168201915b5050506006840154600785015460088601546009870154600a880154600e890154600f8a015460108b0180549a9b979a96995060ff95861698509396929591909416939290610c4990612dd0565b80601f0160208091040260200160405190810160405280929190818152602001828054610c7590612dd0565b8015610cc25780601f10610c9757610100808354040283529160200191610cc2565b820191906000526020600020905b815481529060010190602001808311610ca557829003601f168201915b505050505090508e565b60006001600160e01b03198216637965db0b60e01b1480610cfd57506301ffc9a760e01b6001600160e01b03198316145b92915050565b610d0b61208f565b600081815260036020526040902060018101546001600160a01b0316610d445760405163635e873760e01b815260040160405180910390fd5b6000600882015460ff166004811115610d5f57610d5f612754565b14610d7d57604051637becc13f60e01b815260040160405180910390fd5b8060070154421015610da257604051630cd7c29960e21b815260040160405180910390fd5b600081600a01548260090154610db89190612e20565b9050600060085411610e115760405162461bcd60e51b815260206004820152601d60248201527f4e6f2076657269666965642068756d616e73207265676973746572656400000060448201526064015b60405180910390fd5b600854600090610e22836064612e33565b610e2c9190612e4a565b9050600554811015610e515760405163aa26a69360e01b815260040160405180910390fd5b82600a015483600901541115610f415760088301805460ff1916600117905560048301546040516000916001600160a01b031690610e93906005870190612e6c565b6000604051808303816000865af19150503d8060008114610ed0576040519150601f19603f3d011682016040523d82523d6000602084013e610ed5565b606091505b5050905080610ef757604051632b3f6d1160e21b815260040160405180910390fd5b60088401805460ff1916600317905560405142815285907ff758fc91e01b00ea6b4a6138756f7f28e021f9bf21db6dbf8c36c88eb737257a9060200160405180910390a250610f97565b60088301805460ff191660021790556009830154600a84015460408051928352602083019190915285917ffd2b3cca7d8d1cba4848674d23855dac8eba097a0d59b41d5cc29600d8ac9780910160405180910390a25b505050610fc360017f9b779b17422d0df92223018b32b4d1fa46e071723d6817e2486d003becc55f0055565b50565b600080516020613132833981519152610fde816120ff565b6001600160a01b03821661102d5760405162461bcd60e51b8152602060048201526016602482015275496e76616c696420746172676574206164647265737360501b6044820152606401610e08565b6001600160a01b0382166000818152600b6020526040808220805460ff19166001179055517f3d5490c3a5f2e74f927ed836bbeb02e5cf4f5e601f134742ec4c00235710b0829190a25050565b6000908152600080516020613112833981519152602052604090206001015490565b60007f4e9fb4542c51584eec8e841667c7f0078908f626adbbbfcd019638ee800d61a96110c8816120ff565b605a8510156110ea57604051631325581d60e01b815260040160405180910390fd5b6001600160a01b0388166000908152600b602052604090205460ff16611123576040516301d0c40560e21b815260040160405180910390fd5b6004805490600061113383612ee2565b9091555060008181526003602052604090208181556001810180546001600160a01b031916331790559092506002810161116e8d8f83612f4b565b506003810161117e8b8d83612f4b565b506004810180546001600160a01b0319166001600160a01b038b16179055600581016111ab888a83612f4b565b5042600682018190556007546111c091612e20565b600782015560088101805460ff19908116909155600e820180549091166001179055600f8101869055601081016111f8858783612f4b565b50827ffe6e87b646526878e5f9097064cd37564168505bb0309614e7a057561b2ee2d187878785600701546040516112339493929190613035565b60405180910390a250509a9950505050505050505050565b6112548261107a565b61125d816120ff565b6112678383612109565b50505050565b6001600160a01b03811633146112965760405163334bd91960e11b815260040160405180910390fd5b6112a082826121ae565b505050565b60006112b284848461222a565b6001600160a01b0387166000908152600b602052604090205460ff166112eb576040516301d0c40560e21b815260040160405180910390fd5b600480549060006112fb83612ee2565b9091555060008181526003602052604090208181556001810180546001600160a01b03191633179055909150600281016113368c8e83612f4b565b50600381016113468a8c83612f4b565b506004810180546001600160a01b0319166001600160a01b038a1617905560058101611373878983612f4b565b504260068083018290555461138791612e20565b60078201556008810180546000919060ff19166001830217905550600081600e0160006101000a81548160ff021916908315150217905550336001600160a01b0316827f98120a6aaa04295520ab4e01c6c1235dd316e822cc9ff31db7b3f197366d18bd8e8e856007015460405161140193929190613060565b60405180910390a3509a9950505050505050505050565b7ff0c57e16840df040f15088dc2f81fe391c3923bec73e23a9662efc9c229c6a008054600160401b810460ff16159067ffffffffffffffff1660008115801561145e5750825b905060008267ffffffffffffffff16600114801561147b5750303b155b905081158015611489575080155b156114a75760405163f92ee8a960e01b815260040160405180910390fd5b845467ffffffffffffffff1916600117855583156114d157845460ff60401b1916600160401b1785555b6114d96122ac565b6114e16122ac565b6114e96122b6565b6001600160a01b038c1661153f5760405162461bcd60e51b815260206004820152601760248201527f496e76616c696420576f726c64494420616464726573730000000000000000006044820152606401610e08565b6001600160a01b0386166115905760405162461bcd60e51b8152602060048201526018602482015277496e76616c696420677561726469616e206164647265737360401b6044820152606401610e08565b600a89101580156115a2575060508911155b6115df5760405162461bcd60e51b815260206004820152600e60248201526d496e76616c69642071756f72756d60901b6044820152606401610e08565b6201518088101580156115f5575062278d008811155b6116395760405162461bcd60e51b8152602060048201526015602482015274125b9d985b1a59081d9bdd1a5b99c81c195c9a5bd9605a1b6044820152606401610e08565b610e10871015801561164e57506203f4808711155b61169a5760405162461bcd60e51b815260206004820152601860248201527f496e76616c696420656d657267656e637920706572696f6400000000000000006044820152606401610e08565b600080546001600160a01b03808f166001600160a01b031992831617835560018e905560028d905560058c905560068b905560078a905560098054918a16919092161790556116e99033612109565b5061170260008051602061313283398151915233612109565b50831561174957845460ff60401b19168555604051600181527fc7f505b2f371ae2175ee4913f4499e1f2633a7b5936321eed1cdaeb6115181d29060200160405180910390a15b505050505050505050505050565b60008051602061313283398151915261176f816120ff565b610e1082108061178157506203f48082115b1561179f5760405163b643945560e01b815260040160405180910390fd5b50600755565b6117ad6122c6565b6117b68261236b565b6117c08282612383565b5050565b60006117ce612440565b506000805160206130f283398151915290565b7f68e79a7bf1e0bc45d0a330c573bc367f9cf464fd326078812f301165fbda4ef161180b816120ff565b600880549083905560408051828152602081018590527f2c67670044c0ebfb996f361343ec6f320b72ac82f639dc3ec6b282cbdcc43131910160405180910390a1505050565b6009546001600160a01b0316331461187c57604051632891afcb60e01b815260040160405180910390fd5b600083815260036020526040902060018101546001600160a01b03166118b55760405163635e873760e01b815260040160405180910390fd5b600e81015460ff166118da5760405163319479a560e11b815260040160405180910390fd5b60048101546040516000916001600160a01b0316906118fd906005850190612e6c565b6000604051808303816000865af19150503d806000811461193a576040519150601f19603f3d011682016040523d82523d6000602084013e61193f565b606091505b505090508061196157604051632b3f6d1160e21b815260040160405180910390fd5b6000858152600a602052604090819020805460ff19908116600117909155600884018054909116600317905551339086907fd41c50380a752754a42081821c1f6bafc1f99e1d39cc8ca8d40b9b9f30cc4ece906119c390889088904290613060565b60405180910390a35050505050565b600081815260036020908152604091829020600d01805483518184028101840190945280845260609392830182828015611a3557602002820191906000526020600020905b81546001600160a01b03168152600190910190602001808311611a17575b50505050509050919050565b6000918252600080516020613112833981519152602090815260408084206001600160a01b0393909316845291905290205460ff1690565b600085815260036020526040902060018101546001600160a01b0316611ab25760405163635e873760e01b815260040160405180910390fd5b6000600882015460ff166004811115611acd57611acd612754565b14611aeb57604051637becc13f60e01b815260040160405180910390fd5b80600701544210611b0f5760405163370ec37160e21b815260040160405180910390fd5b611b1a84848461222a565b6000838152600c8201602052604090205460ff1615611b4c57604051636569570160e11b815260040160405180910390fd5b336000908152600b8201602052604090206002015415611b7f57604051637c9a1cf960e01b815260040160405180910390fd5b6000838152600c820160209081526040808320805460ff199081166001908117909255338552600b8601909352922080548815801591909316178155918201859055426002830155611be757600982018054906000611bdd83612ee2565b9190505550611bff565b600a82018054906000611bf983612ee2565b91905055505b600d82018054600181018255600091825260209091200180546001600160a01b0319163390811790915560405188907fcbdf6214089cba887ecbf35a0b6a734589959c9763342c756bb2a80ca2bc9f6e90611c68908a9042909115158252602082015260400190565b60405180910390a350505050505050565b600080516020613132833981519152611c91816120ff565b6001600160a01b038216611ce25760405162461bcd60e51b8152602060048201526018602482015277496e76616c696420677561726469616e206164647265737360401b6044820152606401610e08565b600980546001600160a01b038481166001600160a01b0319831681179093556040519116919082907fe1c60e191424e8ddfb31d0ecb6585118262ce2822ac351d1c54ca1f722023ae690600090a3505050565b6000818152600360208190526040822060018101546004820154600783015460088401546009850154600a860154600e87015460028801805460609a8b9a8d9a8b9a8b9a8b9a8b9a8b9a95996001600160a01b039586169998978b01979490951695929460ff9283169491939216908890611daf90612dd0565b80601f0160208091040260200160405190810160405280929190818152602001828054611ddb90612dd0565b8015611e285780601f10611dfd57610100808354040283529160200191611e28565b820191906000526020600020905b815481529060010190602001808311611e0b57829003601f168201915b50505050509750868054611e3b90612dd0565b80601f0160208091040260200160405190810160405280929190818152602001828054611e6790612dd0565b8015611eb45780601f10611e8957610100808354040283529160200191611eb4565b820191906000526020600020905b815481529060010190602001808311611e9757829003601f168201915b50505050509650995099509950995099509950995099509950509193959799909294969850565b611ee48261107a565b611eed816120ff565b61126783836121ae565b600080516020613132833981519152611f0f816120ff565b6001600160a01b0382166000818152600b6020526040808220805460ff19169055517fe553c8d5c5394d64d3220f3548c51ee149f9d77f3052d1e18ce62f0926a160809190a25050565b600080516020613132833981519152611f71816120ff565b600082815260036020526040902060018101546001600160a01b0316611faa5760405163635e873760e01b815260040160405180910390fd5b6000600882015460ff166004811115611fc557611fc5612754565b14611fe357604051637becc13f60e01b815260040160405180910390fd5b600801805460ff191660041790555050565b60008051602061313283398151915261200d816120ff565b62015180821080612020575062278d0082115b1561203e576040516305a612e360e01b815260040160405180910390fd5b50600655565b60008051602061313283398151915261205c816120ff565b600a82108061206b5750605082115b156120895760405163c093b13b60e01b815260040160405180910390fd5b50600555565b7f9b779b17422d0df92223018b32b4d1fa46e071723d6817e2486d003becc55f008054600119016120d357604051633ee5aeb560e01b815260040160405180910390fd5b60029055565b60017f9b779b17422d0df92223018b32b4d1fa46e071723d6817e2486d003becc55f0055565b610fc38133612489565b60006000805160206131128339815191526121248484611a41565b6121a4576000848152602082815260408083206001600160a01b03871684529091529020805460ff1916600117905561215a3390565b6001600160a01b0316836001600160a01b0316857f2f8788117e7eff1d82e926ec794901d17c78024a50270940304540a733656f0d60405160405180910390a46001915050610cfd565b6000915050610cfd565b60006000805160206131128339815191526121c98484611a41565b156121a4576000848152602082815260408083206001600160a01b0387168085529252808320805460ff1916905551339287917ff6391f5c32d9c69d2a47ea670b442974b53935d1edc7fd64eb21e047a839171b9190a46001915050610cfd565b600054600254600154604051633bc778e360e01b81526001600160a01b0390931692633bc778e392612266928892339189918990600401613084565b60006040518083038186803b15801561227e57600080fd5b505afa92505050801561228f575060015b6112a05760405163342fa4a760e11b815260040160405180910390fd5b6122b46124c2565b565b6122be6124c2565b6122b461250b565b306001600160a01b037f000000000000000000000000000000000000000000000000000000000000000016148061234d57507f00000000000000000000000000000000000000000000000000000000000000006001600160a01b03166123416000805160206130f2833981519152546001600160a01b031690565b6001600160a01b031614155b156122b45760405163703e46dd60e11b815260040160405180910390fd5b6000805160206131328339815191526117c0816120ff565b816001600160a01b03166352d1902d6040518163ffffffff1660e01b8152600401602060405180830381865afa9250505080156123dd575060408051601f3d908101601f191682019092526123da918101906130bc565b60015b61240557604051634c9c8ce360e01b81526001600160a01b0383166004820152602401610e08565b6000805160206130f2833981519152811461243657604051632a87526960e21b815260048101829052602401610e08565b6112a08383612513565b306001600160a01b037f000000000000000000000000000000000000000000000000000000000000000016146122b45760405163703e46dd60e11b815260040160405180910390fd5b6124938282611a41565b6117c05760405163e2517d3f60e01b81526001600160a01b038216600482015260248101839052604401610e08565b7ff0c57e16840df040f15088dc2f81fe391c3923bec73e23a9662efc9c229c6a0054600160401b900460ff166122b457604051631afcd79f60e31b815260040160405180910390fd5b6120d96124c2565b61251c82612569565b6040516001600160a01b038316907fbc7cd75a20ee27fd9adebab32041f755214dbc6bffa90cc0225b39da2e5c2d3b90600090a2805115612561576112a082826125ce565b6117c0612644565b806001600160a01b03163b60000361259f57604051634c9c8ce360e01b81526001600160a01b0382166004820152602401610e08565b6000805160206130f283398151915280546001600160a01b0319166001600160a01b0392909216919091179055565b6060600080846001600160a01b0316846040516125eb91906130d5565b600060405180830381855af49150503d8060008114612626576040519150601f19603f3d011682016040523d82523d6000602084013e61262b565b606091505b509150915061263b858383612663565b95945050505050565b34156122b45760405163b398979f60e01b815260040160405180910390fd5b60608261267857612673826126c2565b6126bb565b815115801561268f57506001600160a01b0384163b155b156126b857604051639996b31560e01b81526001600160a01b0385166004820152602401610e08565b50805b9392505050565b8051156126d25780518082602001fd5b604051630a12f52160e11b815260040160405180910390fd5b6000602082840312156126fd57600080fd5b5035919050565b60005b8381101561271f578181015183820152602001612707565b50506000910152565b60008151808452612740816020860160208601612704565b601f01601f19169290920160200192915050565b634e487b7160e01b600052602160045260246000fd5b6005811061278857634e487b7160e01b600052602160045260246000fd5b9052565b8e81526001600160a01b038e1660208201526101c0604082015260006127b66101c083018f612728565b82810360608401526127c8818f612728565b6001600160a01b038e166080850152905082810360a08401526127eb818d612728565b90508a60c08401528960e084015261280761010084018a61276a565b876101208401528661014084015261282461016084018715159052565b846101808401528281036101a084015261283e8185612728565b9150509f9e505050505050505050505050505050565b60006020828403121561286657600080fd5b81356001600160e01b0319811681146126bb57600080fd5b80356001600160a01b038116811461289557600080fd5b919050565b6000602082840312156128ac57600080fd5b6126bb8261287e565b60008083601f8401126128c757600080fd5b50813567ffffffffffffffff8111156128df57600080fd5b6020830191508360208285010111156128f757600080fd5b9250929050565b60008060008060008060008060008060c08b8d03121561291d57600080fd5b8a3567ffffffffffffffff8082111561293557600080fd5b6129418e838f016128b5565b909c509a5060208d013591508082111561295a57600080fd5b6129668e838f016128b5565b909a50985088915061297a60408e0161287e565b975060608d013591508082111561299057600080fd5b61299c8e838f016128b5565b909750955060808d0135945060a08d01359150808211156129bc57600080fd5b506129c98d828e016128b5565b915080935050809150509295989b9194979a5092959850565b600080604083850312156129f557600080fd5b82359150612a056020840161287e565b90509250929050565b806101008101831015610cfd57600080fd5b6000806000806000806000806000806101c08b8d031215612a4057600080fd5b8a3567ffffffffffffffff80821115612a5857600080fd5b612a648e838f016128b5565b909c509a5060208d0135915080821115612a7d57600080fd5b612a898e838f016128b5565b909a509850889150612a9d60408e0161287e565b975060608d0135915080821115612ab357600080fd5b50612ac08d828e016128b5565b90965094505060808b0135925060a08b01359150612ae18c60c08d01612a0e565b90509295989b9194979a5092959850565b600080600080600080600060e0888a031215612b0d57600080fd5b612b168861287e565b96506020880135955060408801359450606088013593506080880135925060a08801359150612b4760c0890161287e565b905092959891949750929550565b634e487b7160e01b600052604160045260246000fd5b60008060408385031215612b7e57600080fd5b612b878361287e565b9150602083013567ffffffffffffffff80821115612ba457600080fd5b818501915085601f830112612bb857600080fd5b813581811115612bca57612bca612b55565b604051601f8201601f19908116603f01168101908382118183101715612bf257612bf2612b55565b81604052828152886020848701011115612c0b57600080fd5b8260208601602083013760006020848301015280955050505050509250929050565b600080600060408486031215612c4257600080fd5b83359250602084013567ffffffffffffffff811115612c6057600080fd5b612c6c868287016128b5565b9497909650939450505050565b60008060408385031215612c8c57600080fd5b50508035926020909101359150565b6020808252825182820181905260009190848201906040850190845b81811015612cdc5783516001600160a01b031683529284019291840191600101612cb7565b50909695505050505050565b60008060008060006101808688031215612d0157600080fd5b8535945060208601358015158114612d1857600080fd5b93506040860135925060608601359150612d358760808801612a0e565b90509295509295909350565b6020815260006126bb6020830184612728565b6001600160a01b038a8116825261012060208301819052600091612d7a8483018d612728565b91508382036040850152612d8e828c612728565b9250808a1660608501525050866080830152612dad60a083018761276a565b8460c08301528360e08301528215156101008301529a9950505050505050505050565b600181811c90821680612de457607f821691505b602082108103612e0457634e487b7160e01b600052602260045260246000fd5b50919050565b634e487b7160e01b600052601160045260246000fd5b80820180821115610cfd57610cfd612e0a565b8082028115828204841417610cfd57610cfd612e0a565b600082612e6757634e487b7160e01b600052601260045260246000fd5b500490565b6000808354612e7a81612dd0565b60018281168015612e925760018114612ea757612ed6565b60ff1984168752821515830287019450612ed6565b8760005260208060002060005b85811015612ecd5781548a820152908401908201612eb4565b50505082870194505b50929695505050505050565b600060018201612ef457612ef4612e0a565b5060010190565b601f8211156112a0576000816000526020600020601f850160051c81016020861015612f245750805b601f850160051c820191505b81811015612f4357828155600101612f30565b505050505050565b67ffffffffffffffff831115612f6357612f63612b55565b612f7783612f718354612dd0565b83612efb565b6000601f841160018114612fab5760008515612f935750838201355b600019600387901b1c1916600186901b178355613005565b600083815260209020601f19861690835b82811015612fdc5786850135825560209485019460019092019101612fbc565b5086821015612ff95760001960f88860031b161c19848701351681555b505060018560011b0183555b5050505050565b81835281816020850137506000828201602090810191909152601f909101601f19169091010190565b84815260606020820152600061304f60608301858761300c565b905082604083015295945050505050565b60408152600061307460408301858761300c565b9050826020830152949350505050565b60006101a0820190508782528660208301528560408301528460608301528360808301526101008360a0840137979650505050505050565b6000602082840312156130ce57600080fd5b5051919050565b600082516130e7818460208701612704565b919091019291505056fe360894a13ba1a3210667c828492db98dca3e2076cc3735a920a3ca505d382bbc02dd7bc7dec4dceedda775e58dd541e08a116c6c53815c0bd028192f7b626800a49807205ce4d355092ef5a8a18f56e8913cf4a201fbe287825b095693c21775a26469706673582212207fc518f6ec7559c9573fc933bf3cec9c24555026e91084aff675bf88dc9446ce64736f6c63430008180033",
  "linkReferences": {},
  "deployedLinkReferences": {}
}